Component: ARM Compiler 5.06 update 6 (build 750) Tool: armlink [4d35ed]

==============================================================================

Section Cross References

    main.o(i.MPU9250) refers to kservice.o(i.rt_strcmp) for rt_strcmp
    main.o(i.MPU9250) refers to kservice.o(i.rt_kprintf) for rt_kprintf
    main.o(i.MPU9250) refers to main.o(.bss) for app_GloabalPos
    main.o(i.main) refers to app_globalpos.o(i.APP_GlobalPos_Config) for APP_GlobalPos_Config
    main.o(i.main) refers to main.o(.bss) for app_GloabalPos
    main.o(FSymTab) refers to main.o(.rodata.name) for __fsym___cmd_MPU9250_name
    main.o(FSymTab) refers to main.o(i.MPU9250) for MPU9250
    app_globalpos.o(i.APP_GlobalPosRun) refers to ipc.o(i.rt_sem_create) for rt_sem_create
    app_globalpos.o(i.APP_GlobalPosRun) refers to thread.o(i.rt_thread_create) for rt_thread_create
    app_globalpos.o(i.APP_GlobalPosRun) refers to thread.o(i.rt_thread_startup) for rt_thread_startup
    app_globalpos.o(i.APP_GlobalPosRun) refers to app_globalpos.o(.data) for MPUoffset_sem
    app_globalpos.o(i.APP_GlobalPosRun) refers to app_globalpos.o(i.GlobalPosLed_entry) for GlobalPosLed_entry
    app_globalpos.o(i.APP_GlobalPosRun) refers to app_globalpos.o(i.GlobalPosUpdate_entry) for GlobalPosUpdate_entry
    app_globalpos.o(i.APP_GlobalPosRun) refers to app_globalpos.o(i.GlobalPosOffset_entry) for GlobalPosOffset_entry
    app_globalpos.o(i.APP_GlobalPosRun) refers to app_globalpos.o(i.GlobalPosDeal_entry) for GlobalPosDeal_entry
    app_globalpos.o(i.APP_GlobalPosRun) refers to app_globalpos.o(i.GlobalPosFuse_entry) for GlobalPosFuse_entry
    app_globalpos.o(i.APP_GlobalPos_Config) refers to kservice.o(i.rt_kprintf) for rt_kprintf
    app_globalpos.o(i.APP_GlobalPos_Config) refers to module_led.o(i.Module_Led_Config) for Module_Led_Config
==============================================================================

Removing Unused input sections from the image.

    Removing main.o(.rev16_text), (4 bytes).
    Removing main.o(.revsh_text), (4 bytes).
    Removing main.o(.rrx_text), (6 bytes).
    Removing app_globalpos.o(.rev16_text), (4 bytes).
    Removing app_globalpos.o(.revsh_text), (4 bytes).
    Removing app_globalpos.o(.rrx_text), (6 bytes).
    Removing math_kalman.o(.rev16_text), (4 bytes).
    Removing math_kalman.o(.revsh_text), (4 bytes).
    Removing math_kalman.o(.rrx_text), (6 bytes).
    Removing module_file.o(.rev16_text), (4 bytes).
    Removing module_file.o(.revsh_text), (4 bytes).
    Removing module_file.o(.rrx_text), (6 bytes).
    Removing module_led.o(.rev16_text), (4 bytes).
    Removing module_led.o(.revsh_text), (4 bytes).
    Removing module_led.o(.rrx_text), (6 bytes).
    Removing module_mpu9250.o(.rev16_text), (4 bytes).
    Removing module_mpu9250.o(.revsh_text), (4 bytes).
    Removing module_mpu9250.o(.rrx_text), (6 bytes).
==============================================================================

Image Symbol Table

    Local Symbols

    Symbol Name                              Value     Ov Type        Size  Object(Section)

    ../clib/angel/boardlib.s                 0x00000000   Number         0  boardinit1.o ABSOLUTE
    ../clib/angel/boardlib.s                 0x00000000   Number         0  boardshut.o ABSOLUTE
    ../clib/angel/boardlib.s                 0x00000000   Number         0  boardinit3.o ABSOLUTE
    ../clib/angel/boardlib.s                 0x00000000   Number         0  boardinit2.o ABSOLUTE
    ../clib/angel/dczerorl2.s                0x00000000   Number         0  __dczerorl2.o ABSOLUTE
    ../clib/angel/handlers.s                 0x00000000   Number         0  __scatter_zi.o ABSOLUTE
    ../clib/angel/kernel.s                   0x00000000   Number         0  rtexit.o ABSOLUTE
    ../clib/angel/kernel.s                   0x00000000   Number         0  rtexit2.o ABSOLUTE
    ../clib/angel/kernel.s                   0x00000000   Number         0  __rtentry.o ABSOLUTE
    ../clib/angel/kernel.s                   0x00000000   Number         0  __rtentry4.o ABSOLUTE
    ../clib/angel/kernel.s                   0x00000000   Number         0  __rtentry2.o ABSOLUTE
    ../clib/angel/rt.s                       0x00000000   Number         0  rt_errno_addr.o ABSOLUTE
    ../clib/angel/rt.s                       0x00000000   Number         0  rt_raise.o ABSOLUTE
    ../clib/angel/rt.s                       0x00000000   Number         0  aeabi_ldiv0_sigfpe.o ABSOLUTE
    ../clib/angel/rt.s                       0x00000000   Number         0  aeabi_ldiv0.o ABSOLUTE
    ../clib/angel/rt.s                       0x00000000   Number         0  rt_ctype_table.o ABSOLUTE
    ../clib/angel/rt.s                       0x00000000   Number         0  rt_locale_intlibspace.o ABSOLUTE
    ../clib/angel/rt.s                       0x00000000   Number         0  rt_locale.o ABSOLUTE
    ../clib/angel/rt.s                       0x00000000   Number         0  rt_div0.o ABSOLUTE
    ../clib/angel/rt.s                       0x00000000   Number         0  rt_errno_addr_intlibspace.o ABSOLUTE
    ../clib/angel/scatter.s                  0x00000000   Number         0  __scatter.o ABSOLUTE
    ../clib/angel/startup.s                  0x00000000   Number         0  __main.o ABSOLUTE
    ../clib/angel/sys.s                      0x00000000   Number         0  use_no_semi.o ABSOLUTE
    ../clib/angel/sys.s                      0x00000000   Number         0  indicate_semi.o ABSOLUTE
    ../clib/angel/sys.s                      0x00000000   Number         0  sys_stackheap_outer.o ABSOLUTE
    ../clib/angel/sys.s                      0x00000000   Number         0  libspace.o ABSOLUTE
    ../clib/angel/sysapp.c                   0x00000000   Number         0  sys_exit.o ABSOLUTE
    ../clib/angel/sysapp.c                   0x00000000   Number         0  sys_command.o ABSOLUTE
    ../clib/angel/sysapp.c                   0x00000000   Number         0  sys_wrch.o ABSOLUTE
    ../clib/armsys.c                         0x00000000   Number         0  argv_veneer.o ABSOLUTE
    ../clib/armsys.c                         0x00000000   Number         0  argv_veneer.o ABSOLUTE
    ../clib/armsys.c                         0x00000000   Number         0  _get_argv_nomalloc.o ABSOLUTE
    ../clib/armsys.c                         0x00000000   Number         0  no_argv.o ABSOLUTE
    ../clib/bigflt.c                         0x00000000   Number         0  bigflt0.o ABSOLUTE
    ../clib/btod.s                           0x00000000   Number         0  btod.o ABSOLUTE
    ../clib/fenv.c                           0x00000000   Number         0  _rserrno.o ABSOLUTE
    ../clib/heapalloc.c                      0x00000000   Number         0  hrguard.o ABSOLUTE
    ../clib/heapaux.c                        0x00000000   Number         0  heapauxi.o ABSOLUTE
    ../clib/libinit.s                        0x00000000   Number         0  libshutdown2.o ABSOLUTE
    ../clib/libinit.s                        0x00000000   Number         0  libshutdown.o ABSOLUTE
    ../clib/libinit.s                        0x00000000   Number         0  libinit.o ABSOLUTE
    ../clib/libinit.s                        0x00000000   Number         0  libinit2.o ABSOLUTE
    ../clib/locale.s                         0x00000000   Number         0  lc_numeric_c.o ABSOLUTE
    ../clib/locale.s                         0x00000000   Number         0  lc_ctype_c.o ABSOLUTE
    ../clib/longlong.s                       0x00000000   Number         0  lludivv7m.o ABSOLUTE
    ../clib/longlong.s                       0x00000000   Number         0  llsdiv.o ABSOLUTE
    ../clib/longlong.s                       0x00000000   Number         0  lludiv10.o ABSOLUTE
    ../clib/memcpset.s                       0x00000000   Number         0  rt_memcpy_v6.o ABSOLUTE
    ../clib/memcpset.s                       0x00000000   Number         0  strncpy.o ABSOLUTE
    ../clib/memcpset.s                       0x00000000   Number         0  rt_memclr.o ABSOLUTE
    ../clib/memcpset.s                       0x00000000   Number         0  aeabi_memset.o ABSOLUTE
    ../clib/memcpset.s                       0x00000000   Number         0  strcmpv7m.o ABSOLUTE
    ../clib/memcpset.s                       0x00000000   Number         0  rt_memcpy_w.o ABSOLUTE
    ../clib/memcpset.s                       0x00000000   Number         0  rt_memclr_w.o ABSOLUTE
    ../clib/misc.s                           0x00000000   Number         0  printf_stubs.o ABSOLUTE
    ../clib/printf.c                         0x00000000   Number         0  __printf.o ABSOLUTE
    ../clib/printf.c                         0x00000000   Number         0  _printf_fp_dec.o ABSOLUTE
    ../clib/printf.c                         0x00000000   Number         0  _printf_char_common.o ABSOLUTE
    ../clib/printf.c                         0x00000000   Number         0  __2sprintf.o ABSOLUTE
    ../clib/printf.c                         0x00000000   Number         0  _printf_fp_infnan.o ABSOLUTE
    ../clib/printf.c                         0x00000000   Number         0  __printf_nopercent.o ABSOLUTE
    ../clib/printf.c                         0x00000000   Number         0  noretval__2sprintf.o ABSOLUTE
    ../clib/printf.c                         0x00000000   Number         0  __printf_wp.o ABSOLUTE
    ../clib/printf.c                         0x00000000   Number         0  __printf_flags_wp.o ABSOLUTE
    ../clib/printf.c                         0x00000000   Number         0  __printf_flags_ss.o ABSOLUTE
    ../clib/printf.c                         0x00000000   Number         0  __printf_ss_wp.o ABSOLUTE
    ../clib/printf.c                         0x00000000   Number         0  __printf_flags_ss_wp.o ABSOLUTE
    ../clib/printf.c                         0x00000000   Number         0  __printf_flags.o ABSOLUTE
    ../clib/printf.c                         0x00000000   Number         0  _sputc.o ABSOLUTE
    ../clib/printf.c                         0x00000000   Number         0  __printf_ss.o ABSOLUTE
    ../clib/printf_percent.s                 0x00000000   Number         0  _printf_f.o ABSOLUTE
    ../clib/printf_percent.s                 0x00000000   Number         0  _printf_percent_end.o ABSOLUTE
    ../clib/printf_percent.s                 0x00000000   Number         0  _printf_percent.o ABSOLUTE
    ../clib/scanf.c                          0x00000000   Number         0  strtol.o ABSOLUTE
    ../clib/scanf.c                          0x00000000   Number         0  atoi.o ABSOLUTE
    ../clib/scanf.c                          0x00000000   Number         0  _strtoul.o ABSOLUTE
    ../clib/scanf.c                          0x00000000   Number         0  _chval.o ABSOLUTE
    ../clib/signal.c                         0x00000000   Number         0  defsig_segv_inner.o ABSOLUTE
    ../clib/signal.c                         0x00000000   Number         0  defsig_cppl_inner.o ABSOLUTE
    ../clib/signal.c                         0x00000000   Number         0  defsig_pvfn_inner.o ABSOLUTE
    ../clib/signal.c                         0x00000000   Number         0  defsig_stak_inner.o ABSOLUTE
    ../clib/signal.c                         0x00000000   Number         0  defsig_rtmem_inner.o ABSOLUTE
    ../clib/signal.c                         0x00000000   Number         0  defsig_rtred_inner.o ABSOLUTE
    ../clib/signal.c                         0x00000000   Number         0  defsig_abrt_inner.o ABSOLUTE
    ../clib/signal.c                         0x00000000   Number         0  defsig_rtmem_formal.o ABSOLUTE
    ../clib/signal.c                         0x00000000   Number         0  defsig_rtmem_outer.o ABSOLUTE
    ../clib/signal.c                         0x00000000   Number         0  defsig_exit.o ABSOLUTE
    ../clib/signal.c                         0x00000000   Number         0  defsig_general.o ABSOLUTE
    ../clib/signal.c                         0x00000000   Number         0  __raise.o ABSOLUTE
    ../clib/signal.c                         0x00000000   Number         0  defsig_fpe_inner.o ABSOLUTE
    ../clib/signal.c                         0x00000000   Number         0  defsig_fpe_formal.o ABSOLUTE
    ../clib/signal.c                         0x00000000   Number         0  defsig_fpe_outer.o ABSOLUTE
    ../clib/signal.c                         0x00000000   Number         0  defsig_other.o ABSOLUTE
    ../clib/signal.s                         0x00000000   Number         0  defsig.o ABSOLUTE
    ../clib/stdlib.c                         0x00000000   Number         0  exit.o ABSOLUTE
    ../clib/string.c                         0x00000000   Number         0  strncmp.o ABSOLUTE
    ../clib/string.c                         0x00000000   Number         0  strcat.o ABSOLUTE
    ../clib/string.c                         0x00000000   Number         0  strstr.o ABSOLUTE
    ../clib/string.c                         0x00000000   Number         0  strrchr.o ABSOLUTE
    ../clib/string.c                         0x00000000   Number         0  strcpy.o ABSOLUTE
    ../clib/string.c                         0x00000000   Number         0  memcmp.o ABSOLUTE
    ../clib/string.c                         0x00000000   Number         0  strlen.o ABSOLUTE
    ../fplib/basic.s                         0x00000000   Number         0  basic.o ABSOLUTE
    ../fplib/d2f.s                           0x00000000   Number         0  d2f.o ABSOLUTE
    ../fplib/daddsub.s                       0x00000000   Number         0  daddsub_clz.o ABSOLUTE
    ../fplib/ddiv.s                          0x00000000   Number         0  ddiv.o ABSOLUTE
    ../fplib/dfix.s                          0x00000000   Number         0  dfix.o ABSOLUTE
    ../fplib/dflt.s                          0x00000000   Number         0  dflt_clz.o ABSOLUTE
    ../fplib/dmul.s                          0x00000000   Number         0  dmul.o ABSOLUTE
    ../fplib/dnaninf.s                       0x00000000   Number         0  dnaninf.o ABSOLUTE
    ../fplib/drem.s                          0x00000000   Number         0  drem_clz.o ABSOLUTE
    ../fplib/dretinf.s                       0x00000000   Number         0  dretinf.o ABSOLUTE
    ../fplib/f2d.s                           0x00000000   Number         0  f2d.o ABSOLUTE
    ../fplib/fnaninf.s                       0x00000000   Number         0  fnaninf.o ABSOLUTE
    ../fplib/fpinit.s                        0x00000000   Number         0  fpinit.o ABSOLUTE
    ../fplib/fretinf.s                       0x00000000   Number         0  fretinf.o ABSOLUTE
    ../fplib/istatus.s                       0x00000000   Number         0  istatus.o ABSOLUTE
    ../fplib/printf1.s                       0x00000000   Number         0  printf1.o ABSOLUTE
    ../fplib/usenofp.s                       0x00000000   Number         0  usenofp.o ABSOLUTE
    ../mathlib/cos.c                         0x00000000   Number         0  cos_x.o ABSOLUTE
    ../mathlib/cos.c                         0x00000000   Number         0  cos.o ABSOLUTE
    ../mathlib/cos_i.c                       0x00000000   Number         0  cos_i.o ABSOLUTE
    ../mathlib/dunder.c                      0x00000000   Number         0  dunder.o ABSOLUTE
    ../mathlib/fabs.c                        0x00000000   Number         0  fabs.o ABSOLUTE
    ../mathlib/fmod.c                        0x00000000   Number         0  fmod.o ABSOLUTE
    ../mathlib/fmod.c                        0x00000000   Number         0  fmod_x.o ABSOLUTE
    ../mathlib/fpclassify.c                  0x00000000   Number         0  fpclassify.o ABSOLUTE
    ../mathlib/poly.c                        0x00000000   Number         0  poly.o ABSOLUTE
    ../mathlib/rred.c                        0x00000000   Number         0  rred.o ABSOLUTE
    ../mathlib/sin.c                         0x00000000   Number         0  sin.o ABSOLUTE
    ../mathlib/sin.c                         0x00000000   Number         0  sin_x.o ABSOLUTE
    ../mathlib/sin_i.c                       0x00000000   Number         0  sin_i.o ABSOLUTE
    ../mathlib/sin_i.c                       0x00000000   Number         0  sin_i_x.o ABSOLUTE
    ..\..\..\components\dfs\filesystems\devfs\devfs.c 0x00000000   Number         0  devfs.o ABSOLUTE
    ..\..\..\components\dfs\filesystems\elmfat\dfs_elm.c 0x00000000   Number         0  dfs_elm.o ABSOLUTE
    ..\..\..\components\dfs\filesystems\elmfat\ff.c 0x00000000   Number         0  ff.o ABSOLUTE
    ..\..\..\components\dfs\filesystems\elmfat\option\ccsbcs.c 0x00000000   Number         0  ccsbcs.o ABSOLUTE
    ..\..\..\components\dfs\src\dfs.c        0x00000000   Number         0  dfs.o ABSOLUTE
    ..\..\..\components\dfs\src\dfs_file.c   0x00000000   Number         0  dfs_file.o ABSOLUTE
    ..\..\..\components\dfs\src\dfs_fs.c     0x00000000   Number         0  dfs_fs.o ABSOLUTE
    ..\..\..\components\dfs\src\dfs_posix.c  0x00000000   Number         0  dfs_posix.o ABSOLUTE
    ..\..\..\components\drivers\i2c\i2c-bit-ops.c 0x00000000   Number         0  i2c-bit-ops.o ABSOLUTE
    ..\..\..\components\drivers\i2c\i2c_core.c 0x00000000   Number         0  i2c_core.o ABSOLUTE
    ..\..\..\components\drivers\i2c\i2c_dev.c 0x00000000   Number         0  i2c_dev.o ABSOLUTE
    ..\..\..\components\drivers\misc\pin.c   0x00000000   Number         0  pin.o ABSOLUTE
    ..\..\..\components\drivers\serial\serial.c 0x00000000   Number         0  serial.o ABSOLUTE
    ..\..\..\components\drivers\spi\sfud\src\sfud.c 0x00000000   Number         0  sfud.o ABSOLUTE
    ..\..\..\components\drivers\spi\sfud\src\sfud_sfdp.c 0x00000000   Number         0  sfud_sfdp.o ABSOLUTE
    ..\..\..\components\drivers\spi\spi_core.c 0x00000000   Number         0  spi_core.o ABSOLUTE
    ..\..\..\components\drivers\spi\spi_dev.c 0x00000000   Number         0  spi_dev.o ABSOLUTE
    ..\..\..\components\drivers\spi\spi_flash_sfud.c 0x00000000   Number         0  spi_flash_sfud.o ABSOLUTE
    ..\..\..\components\drivers\src\completion.c 0x00000000   Number         0  completion.o ABSOLUTE
    ..\..\..\components\drivers\src\dataqueue.c 0x00000000   Number         0  dataqueue.o ABSOLUTE
    ..\..\..\components\drivers\src\pipe.c   0x00000000   Number         0  pipe.o ABSOLUTE
    ..\..\..\components\drivers\src\ringblk_buf.c 0x00000000   Number         0  ringblk_buf.o ABSOLUTE
    ..\..\..\components\drivers\src\ringbuffer.c 0x00000000   Number         0  ringbuffer.o ABSOLUTE
    ..\..\..\components\drivers\src\waitqueue.c 0x00000000   Number         0  waitqueue.o ABSOLUTE
    ..\..\..\components\drivers\src\workqueue.c 0x00000000   Number         0  workqueue.o ABSOLUTE
    ..\..\..\components\finsh\cmd.c          0x00000000   Number         0  cmd.o ABSOLUTE
    ..\..\..\components\finsh\finsh_compiler.c 0x00000000   Number         0  finsh_compiler.o ABSOLUTE
    ..\..\..\components\finsh\finsh_error.c  0x00000000   Number         0  finsh_error.o ABSOLUTE
    ..\..\..\components\finsh\finsh_heap.c   0x00000000   Number         0  finsh_heap.o ABSOLUTE
    ..\..\..\components\finsh\finsh_init.c   0x00000000   Number         0  finsh_init.o ABSOLUTE
    ..\..\..\components\finsh\finsh_node.c   0x00000000   Number         0  finsh_node.o ABSOLUTE
    ..\..\..\components\finsh\finsh_ops.c    0x00000000   Number         0  finsh_ops.o ABSOLUTE
    ..\..\..\components\finsh\finsh_parser.c 0x00000000   Number         0  finsh_parser.o ABSOLUTE
    ..\..\..\components\finsh\finsh_token.c  0x00000000   Number         0  finsh_token.o ABSOLUTE
    ..\..\..\components\finsh\finsh_var.c    0x00000000   Number         0  finsh_var.o ABSOLUTE
    ..\..\..\components\finsh\finsh_vm.c     0x00000000   Number         0  finsh_vm.o ABSOLUTE
    ..\..\..\components\finsh\msh.c          0x00000000   Number         0  msh.o ABSOLUTE
    ..\..\..\components\finsh\msh_file.c     0x00000000   Number         0  msh_file.o ABSOLUTE
    ..\..\..\components\finsh\shell.c        0x00000000   Number         0  shell.o ABSOLUTE
    ..\..\..\components\libc\compilers\common\time.c 0x00000000   Number         0  time.o ABSOLUTE
    ..\..\..\libcpu\arm\common\backtrace.c   0x00000000   Number         0  backtrace.o ABSOLUTE
    ..\..\..\libcpu\arm\common\div0.c        0x00000000   Number         0  div0.o ABSOLUTE
    ..\..\..\libcpu\arm\common\showmem.c     0x00000000   Number         0  showmem.o ABSOLUTE
    ..\..\..\libcpu\arm\cortex-m4\context_rvds.S 0x00000000   Number         0  context_rvds.o ABSOLUTE
    ..\..\..\libcpu\arm\cortex-m4\cpuport.c  0x00000000   Number         0  cpuport.o ABSOLUTE
    ..\..\..\src\clock.c                     0x00000000   Number         0  clock.o ABSOLUTE
    ..\..\..\src\components.c                0x00000000   Number         0  components.o ABSOLUTE
    ..\..\..\src\device.c                    0x00000000   Number         0  device.o ABSOLUTE
    ..\..\..\src\idle.c                      0x00000000   Number         0  idle.o ABSOLUTE
    ..\..\..\src\ipc.c                       0x00000000   Number         0  ipc.o ABSOLUTE
    ..\..\..\src\irq.c                       0x00000000   Number         0  irq.o ABSOLUTE
    ..\..\..\src\kservice.c                  0x00000000   Number         0  kservice.o ABSOLUTE
    ..\..\..\src\mem.c                       0x00000000   Number         0  mem.o ABSOLUTE
    ..\..\..\src\mempool.c                   0x00000000   Number         0  mempool.o ABSOLUTE
    ..\..\..\src\object.c                    0x00000000   Number         0  object.o ABSOLUTE
    ..\..\..\src\scheduler.c                 0x00000000   Number         0  scheduler.o ABSOLUTE
    ..\..\..\src\signal.c                    0x00000000   Number         0  signal.o ABSOLUTE
    ..\..\..\src\thread.c                    0x00000000   Number         0  thread.o ABSOLUTE
    ..\..\..\src\timer.c                     0x00000000   Number         0  timer.o ABSOLUTE
    ..\\..\\..\\libcpu\\arm\\cortex-m4\\cpuport.c 0x00000000   Number         0  cpuport.o ABSOLUTE
    ..\\libraries\\HAL_Drivers\\drv_common.c 0x00000000   Number         0  drv_common.o ABSOLUTE
    ..\\libraries\\HAL_Drivers\\drv_gpio.c   0x00000000   Number         0  drv_gpio.o ABSOLUTE
    ..\\libraries\\HAL_Drivers\\drv_soft_i2c.c 0x00000000   Number         0  drv_soft_i2c.o ABSOLUTE
    ..\\libraries\\HAL_Drivers\\drv_spi.c    0x00000000   Number         0  drv_spi.o ABSOLUTE
    ..\\libraries\\HAL_Drivers\\drv_usart.c  0x00000000   Number         0  drv_usart.o ABSOLUTE
    ..\\libraries\\STM32F4xx_HAL\\CMSIS\\Device\\ST\\STM32F4xx\\Source\\Templates\\system_stm32f4xx.c 0x00000000   Number         0  system_stm32f4xx.o ABSOLUTE
    ..\\libraries\\STM32F4xx_HAL\\STM32F4xx_HAL_Driver\\Src\\stm32f4xx_hal.c 0x00000000   Number         0  stm32f4xx_hal.o ABSOLUTE
    ..\\libraries\\STM32F4xx_HAL\\STM32F4xx_HAL_Driver\\Src\\stm32f4xx_hal_cec.c 0x00000000   Number         0  stm32f4xx_hal_cec.o ABSOLUTE
    ..\\libraries\\STM32F4xx_HAL\\STM32F4xx_HAL_Driver\\Src\\stm32f4xx_hal_cortex.c 0x00000000   Number         0  stm32f4xx_hal_cortex.o ABSOLUTE
    ..\\libraries\\STM32F4xx_HAL\\STM32F4xx_HAL_Driver\\Src\\stm32f4xx_hal_crc.c 0x00000000   Number         0  stm32f4xx_hal_crc.o ABSOLUTE
    ..\\libraries\\STM32F4xx_HAL\\STM32F4xx_HAL_Driver\\Src\\stm32f4xx_hal_cryp.c 0x00000000   Number         0  stm32f4xx_hal_cryp.o ABSOLUTE
    ..\\libraries\\STM32F4xx_HAL\\STM32F4xx_HAL_Driver\\Src\\stm32f4xx_hal_cryp_ex.c 0x00000000   Number         0  stm32f4xx_hal_cryp_ex.o ABSOLUTE
    ..\\libraries\\STM32F4xx_HAL\\STM32F4xx_HAL_Driver\\Src\\stm32f4xx_hal_dma.c 0x00000000   Number         0  stm32f4xx_hal_dma.o ABSOLUTE
    ..\\libraries\\STM32F4xx_HAL\\STM32F4xx_HAL_Driver\\Src\\stm32f4xx_hal_dma_ex.c 0x00000000   Number         0  stm32f4xx_hal_dma_ex.o ABSOLUTE
    ..\\libraries\\STM32F4xx_HAL\\STM32F4xx_HAL_Driver\\Src\\stm32f4xx_hal_gpio.c 0x00000000   Number         0  stm32f4xx_hal_gpio.o ABSOLUTE
    ..\\libraries\\STM32F4xx_HAL\\STM32F4xx_HAL_Driver\\Src\\stm32f4xx_hal_i2c.c 0x00000000   Number         0  stm32f4xx_hal_i2c.o ABSOLUTE
    ..\\libraries\\STM32F4xx_HAL\\STM32F4xx_HAL_Driver\\Src\\stm32f4xx_hal_i2c_ex.c 0x00000000   Number         0  stm32f4xx_hal_i2c_ex.o ABSOLUTE
    ..\\libraries\\STM32F4xx_HAL\\STM32F4xx_HAL_Driver\\Src\\stm32f4xx_hal_pwr.c 0x00000000   Number         0  stm32f4xx_hal_pwr.o ABSOLUTE
    ..\\libraries\\STM32F4xx_HAL\\STM32F4xx_HAL_Driver\\Src\\stm32f4xx_hal_pwr_ex.c 0x00000000   Number         0  stm32f4xx_hal_pwr_ex.o ABSOLUTE
    ..\\libraries\\STM32F4xx_HAL\\STM32F4xx_HAL_Driver\\Src\\stm32f4xx_hal_qspi.c 0x00000000   Number         0  stm32f4xx_hal_qspi.o ABSOLUTE
    ..\\libraries\\STM32F4xx_HAL\\STM32F4xx_HAL_Driver\\Src\\stm32f4xx_hal_rcc.c 0x00000000   Number         0  stm32f4xx_hal_rcc.o ABSOLUTE
    ..\\libraries\\STM32F4xx_HAL\\STM32F4xx_HAL_Driver\\Src\\stm32f4xx_hal_rcc_ex.c 0x00000000   Number         0  stm32f4xx_hal_rcc_ex.o ABSOLUTE
    ..\\libraries\\STM32F4xx_HAL\\STM32F4xx_HAL_Driver\\Src\\stm32f4xx_hal_rng.c 0x00000000   Number         0  stm32f4xx_hal_rng.o ABSOLUTE
    ..\\libraries\\STM32F4xx_HAL\\STM32F4xx_HAL_Driver\\Src\\stm32f4xx_hal_spi.c 0x00000000   Number         0  stm32f4xx_hal_spi.o ABSOLUTE
    ..\\libraries\\STM32F4xx_HAL\\STM32F4xx_HAL_Driver\\Src\\stm32f4xx_hal_uart.c 0x00000000   Number         0  stm32f4xx_hal_uart.o ABSOLUTE
    ..\\libraries\\STM32F4xx_HAL\\STM32F4xx_HAL_Driver\\Src\\stm32f4xx_hal_usart.c 0x00000000   Number         0  stm32f4xx_hal_usart.o ABSOLUTE
    ..\libraries\HAL_Drivers\drv_common.c    0x00000000   Number         0  drv_common.o ABSOLUTE
    ..\libraries\HAL_Drivers\drv_gpio.c      0x00000000   Number         0  drv_gpio.o ABSOLUTE
    ..\libraries\HAL_Drivers\drv_soft_i2c.c  0x00000000   Number         0  drv_soft_i2c.o ABSOLUTE
    ..\libraries\HAL_Drivers\drv_spi.c       0x00000000   Number         0  drv_spi.o ABSOLUTE
    ..\libraries\HAL_Drivers\drv_usart.c     0x00000000   Number         0  drv_usart.o ABSOLUTE
    ..\libraries\STM32F4xx_HAL\CMSIS\Device\ST\STM32F4xx\Source\Templates\arm\startup_stm32f405xx.s 0x00000000   Number         0  startup_stm32f405xx.o ABSOLUTE
    ..\libraries\STM32F4xx_HAL\CMSIS\Device\ST\STM32F4xx\Source\Templates\system_stm32f4xx.c 0x00000000   Number         0  system_stm32f4xx.o ABSOLUTE
    ..\libraries\STM32F4xx_HAL\STM32F4xx_HAL_Driver\Src\stm32f4xx_hal.c 0x00000000   Number         0  stm32f4xx_hal.o ABSOLUTE
    ..\libraries\STM32F4xx_HAL\STM32F4xx_HAL_Driver\Src\stm32f4xx_hal_cec.c 0x00000000   Number         0  stm32f4xx_hal_cec.o ABSOLUTE
    ..\libraries\STM32F4xx_HAL\STM32F4xx_HAL_Driver\Src\stm32f4xx_hal_cortex.c 0x00000000   Number         0  stm32f4xx_hal_cortex.o ABSOLUTE
    ..\libraries\STM32F4xx_HAL\STM32F4xx_HAL_Driver\Src\stm32f4xx_hal_crc.c 0x00000000   Number         0  stm32f4xx_hal_crc.o ABSOLUTE
    ..\libraries\STM32F4xx_HAL\STM32F4xx_HAL_Driver\Src\stm32f4xx_hal_cryp.c 0x00000000   Number         0  stm32f4xx_hal_cryp.o ABSOLUTE
    ..\libraries\STM32F4xx_HAL\STM32F4xx_HAL_Driver\Src\stm32f4xx_hal_cryp_ex.c 0x00000000   Number         0  stm32f4xx_hal_cryp_ex.o ABSOLUTE
    ..\libraries\STM32F4xx_HAL\STM32F4xx_HAL_Driver\Src\stm32f4xx_hal_dma.c 0x00000000   Number         0  stm32f4xx_hal_dma.o ABSOLUTE
    ..\libraries\STM32F4xx_HAL\STM32F4xx_HAL_Driver\Src\stm32f4xx_hal_dma_ex.c 0x00000000   Number         0  stm32f4xx_hal_dma_ex.o ABSOLUTE
    ..\libraries\STM32F4xx_HAL\STM32F4xx_HAL_Driver\Src\stm32f4xx_hal_gpio.c 0x00000000   Number         0  stm32f4xx_hal_gpio.o ABSOLUTE
    ..\libraries\STM32F4xx_HAL\STM32F4xx_HAL_Driver\Src\stm32f4xx_hal_i2c.c 0x00000000   Number         0  stm32f4xx_hal_i2c.o ABSOLUTE
    ..\libraries\STM32F4xx_HAL\STM32F4xx_HAL_Driver\Src\stm32f4xx_hal_i2c_ex.c 0x00000000   Number         0  stm32f4xx_hal_i2c_ex.o ABSOLUTE
    ..\libraries\STM32F4xx_HAL\STM32F4xx_HAL_Driver\Src\stm32f4xx_hal_pwr.c 0x00000000   Number         0  stm32f4xx_hal_pwr.o ABSOLUTE
    ..\libraries\STM32F4xx_HAL\STM32F4xx_HAL_Driver\Src\stm32f4xx_hal_pwr_ex.c 0x00000000   Number         0  stm32f4xx_hal_pwr_ex.o ABSOLUTE
    ..\libraries\STM32F4xx_HAL\STM32F4xx_HAL_Driver\Src\stm32f4xx_hal_qspi.c 0x00000000   Number         0  stm32f4xx_hal_qspi.o ABSOLUTE
    ..\libraries\STM32F4xx_HAL\STM32F4xx_HAL_Driver\Src\stm32f4xx_hal_rcc.c 0x00000000   Number         0  stm32f4xx_hal_rcc.o ABSOLUTE
    ..\libraries\STM32F4xx_HAL\STM32F4xx_HAL_Driver\Src\stm32f4xx_hal_rcc_ex.c 0x00000000   Number         0  stm32f4xx_hal_rcc_ex.o ABSOLUTE
    ..\libraries\STM32F4xx_HAL\STM32F4xx_HAL_Driver\Src\stm32f4xx_hal_rng.c 0x00000000   Number         0  stm32f4xx_hal_rng.o ABSOLUTE
    ..\libraries\STM32F4xx_HAL\STM32F4xx_HAL_Driver\Src\stm32f4xx_hal_spi.c 0x00000000   Number         0  stm32f4xx_hal_spi.o ABSOLUTE
    ..\libraries\STM32F4xx_HAL\STM32F4xx_HAL_Driver\Src\stm32f4xx_hal_uart.c 0x00000000   Number         0  stm32f4xx_hal_uart.o ABSOLUTE
    ..\libraries\STM32F4xx_HAL\STM32F4xx_HAL_Driver\Src\stm32f4xx_hal_usart.c 0x00000000   Number         0  stm32f4xx_hal_usart.o ABSOLUTE
    F:\HEROProject_WX\Gitee\RttOs_ModuleLib\Math\Math_Cul.c 0x00000000   Number         0  math_cul.o ABSOLUTE
    F:\HEROProject_WX\Gitee\RttOs_ModuleLib\Math\Math_Kalman.c 0x00000000   Number         0  math_kalman.o ABSOLUTE
    F:\HEROProject_WX\Gitee\RttOs_ModuleLib\Module\Module_AS5048.c 0x00000000   Number         0  module_as5048.o ABSOLUTE
    F:\HEROProject_WX\Gitee\RttOs_ModuleLib\Module\Module_FILE.c 0x00000000   Number         0  module_file.o ABSOLUTE
    F:\HEROProject_WX\Gitee\RttOs_ModuleLib\Module\Module_LED.c 0x00000000   Number         0  module_led.o ABSOLUTE
    F:\HEROProject_WX\Gitee\RttOs_ModuleLib\Module\Module_MPU9250.c 0x00000000   Number         0  module_mpu9250.o ABSOLUTE
    F:\HEROProject_WX\Gitee\RttOs_ModuleLib\Module\Module_UartCom.c 0x00000000   Number         0  module_uartcom.o ABSOLUTE
    F:\\HEROProject_WX\\Gitee\\RttOs_ModuleLib\\Math\\Math_Kalman.c 0x00000000   Number         0  math_kalman.o ABSOLUTE
    F:\\HEROProject_WX\\Gitee\\RttOs_ModuleLib\\Module\\Module_AS5048.c 0x00000000   Number         0  module_as5048.o ABSOLUTE
    F:\\HEROProject_WX\\Gitee\\RttOs_ModuleLib\\Module\\Module_FILE.c 0x00000000   Number         0  module_file.o ABSOLUTE
    F:\\HEROProject_WX\\Gitee\\RttOs_ModuleLib\\Module\\Module_LED.c 0x00000000   Number         0  module_led.o ABSOLUTE
    F:\\HEROProject_WX\\Gitee\\RttOs_ModuleLib\\Module\\Module_MPU9250.c 0x00000000   Number         0  module_mpu9250.o ABSOLUTE
    F:\\HEROProject_WX\\Gitee\\RttOs_ModuleLib\\Module\\Module_UartCom.c 0x00000000   Number         0  module_uartcom.o ABSOLUTE
    applications\App_GlobalPos.c             0x00000000   Number         0  app_globalpos.o ABSOLUTE
    applications\\App_GlobalPos.c            0x00000000   Number         0  app_globalpos.o ABSOLUTE
    applications\\main.c                     0x00000000   Number         0  main.o ABSOLUTE
    applications\main.c                      0x00000000   Number         0  main.o ABSOLUTE
    board\CubeMX_Config\Src\stm32f4xx_hal_msp.c 0x00000000   Number         0  stm32f4xx_hal_msp.o ABSOLUTE
    board\\CubeMX_Config\\Src\\stm32f4xx_hal_msp.c 0x00000000   Number         0  stm32f4xx_hal_msp.o ABSOLUTE
    board\\board.c                           0x00000000   Number         0  board.o ABSOLUTE
    board\board.c                            0x00000000   Number         0  board.o ABSOLUTE
    dc.s                                     0x00000000   Number         0  dc.o ABSOLUTE
    RESET                                    0x08000000   Section      392  startup_stm32f405xx.o(RESET)
    !!!main                                  0x08000188   Section        8  __main.o(!!!main)
    !!!scatter                               0x08000190   Section       52  __scatter.o(!!!scatter)
    !!dczerorl2                              0x080001c4   Section       90  __dczerorl2.o(!!dczerorl2)
    !!handler_zi                             0x08000220   Section       28  __scatter_zi.o(!!handler_zi)
    .ARM.Collect$$_printf_percent$$00000000  0x0800023c   Section        0  _printf_percent.o(.ARM.Collect$$_printf_percent$$00000000)
    .ARM.Collect$$_printf_percent$$00000003  0x0800023c   Section        6  _printf_f.o(.ARM.Collect$$_printf_percent$$00000003)
    .ARM.Collect$$_printf_percent$$00000017  0x08000242   Section        4  _printf_percent_end.o(.ARM.Collect$$_printf_percent$$00000017)
    .ARM.Collect$$libinit$$00000000          0x08000246   Section        2  libinit.o(.ARM.Collect$$libinit$$00000000)
    .ARM.Collect$$libinit$$00000001          0x08000248   Section        4  libinit2.o(.ARM.Collect$$libinit$$00000001)
    .ARM.Collect$$libinit$$00000004          0x0800024c   Section        0  libinit2.o(.ARM.Collect$$libinit$$00000004)
    .ARM.Collect$$libinit$$0000000A          0x0800024c   Section        0  libinit2.o(.ARM.Collect$$libinit$$0000000A)
    .ARM.Collect$$libinit$$0000000C          0x0800024c   Section        0  libinit2.o(.ARM.Collect$$libinit$$0000000C)
    .ARM.Collect$$libinit$$0000000E          0x0800024c   Section        0  libinit2.o(.ARM.Collect$$libinit$$0000000E)
    .ARM.Collect$$libinit$$0000000F          0x0800024c   Section        6  libinit2.o(.ARM.Collect$$libinit$$0000000F)
    .ARM.Collect$$libinit$$00000011          0x08000252   Section        0  libinit2.o(.ARM.Collect$$libinit$$00000011)
    .ARM.Collect$$libinit$$00000012          0x08000252   Section       12  libinit2.o(.ARM.Collect$$libinit$$00000012)
    .ARM.Collect$$libinit$$00000013          0x0800025e   Section        0  libinit2.o(.ARM.Collect$$libinit$$00000013)
    .ARM.Collect$$libinit$$00000015          0x0800025e   Section        0  libinit2.o(.ARM.Collect$$libinit$$00000015)
    .ARM.Collect$$libinit$$00000016          0x0800025e   Section       10  libinit2.o(.ARM.Collect$$libinit$$00000016)
    .ARM.Collect$$libinit$$00000017          0x08000268   Section        0  libinit2.o(.ARM.Collect$$libinit$$00000017)
    .ARM.Collect$$libinit$$00000019          0x08000268   Section        0  libinit2.o(.ARM.Collect$$libinit$$00000019)
    .ARM.Collect$$libinit$$0000001B          0x08000268   Section        0  libinit2.o(.ARM.Collect$$libinit$$0000001B)
    .ARM.Collect$$libinit$$0000001D          0x08000268   Section        0  libinit2.o(.ARM.Collect$$libinit$$0000001D)
    .ARM.Collect$$libinit$$0000001F          0x08000268   Section        0  libinit2.o(.ARM.Collect$$libinit$$0000001F)
    .ARM.Collect$$libinit$$00000021          0x08000268   Section        0  libinit2.o(.ARM.Collect$$libinit$$00000021)
    .ARM.Collect$$libinit$$00000023          0x08000268   Section        0  libinit2.o(.ARM.Collect$$libinit$$00000023)
    .ARM.Collect$$libinit$$00000025          0x08000268   Section        0  libinit2.o(.ARM.Collect$$libinit$$00000025)
    .ARM.Collect$$libinit$$0000002C          0x08000268   Section        0  libinit2.o(.ARM.Collect$$libinit$$0000002C)
    .ARM.Collect$$libinit$$0000002E          0x08000268   Section        0  libinit2.o(.ARM.Collect$$libinit$$0000002E)
    .ARM.Collect$$libinit$$00000030          0x08000268   Section        0  libinit2.o(.ARM.Collect$$libinit$$00000030)
    .ARM.Collect$$libinit$$00000032          0x08000268   Section        0  libinit2.o(.ARM.Collect$$libinit$$00000032)
    .ARM.Collect$$libinit$$00000033          0x08000268   Section        2  libinit2.o(.ARM.Collect$$libinit$$00000033)
    .ARM.Collect$$libshutdown$$00000000      0x0800026a   Section        2  libshutdown.o(.ARM.Collect$$libshutdown$$00000000)
    .ARM.Collect$$libshutdown$$00000002      0x0800026c   Section        0  libshutdown2.o(.ARM.Collect$$libshutdown$$00000002)
    .ARM.Collect$$libshutdown$$00000004      0x0800026c   Section        0  libshutdown2.o(.ARM.Collect$$libshutdown$$00000004)
    .ARM.Collect$$libshutdown$$00000007      0x0800026c   Section        0  libshutdown2.o(.ARM.Collect$$libshutdown$$00000007)
    .ARM.Collect$$libshutdown$$0000000A      0x0800026c   Section        0  libshutdown2.o(.ARM.Collect$$libshutdown$$0000000A)
    .ARM.Collect$$libshutdown$$0000000C      0x0800026c   Section        0  libshutdown2.o(.ARM.Collect$$libshutdown$$0000000C)
    .ARM.Collect$$libshutdown$$0000000F      0x0800026c   Section        0  libshutdown2.o(.ARM.Collect$$libshutdown$$0000000F)
    .ARM.Collect$$libshutdown$$00000010      0x0800026c   Section        2  libshutdown2.o(.ARM.Collect$$libshutdown$$00000010)
    .ARM.Collect$$rtentry$$00000000          0x0800026e   Section        0  __rtentry.o(.ARM.Collect$$rtentry$$00000000)
    .ARM.Collect$$rtentry$$00000002          0x0800026e   Section        0  __rtentry2.o(.ARM.Collect$$rtentry$$00000002)
    .ARM.Collect$$rtentry$$00000004          0x0800026e   Section        6  __rtentry4.o(.ARM.Collect$$rtentry$$00000004)
    .ARM.Collect$$rtentry$$00000009          0x08000274   Section        0  __rtentry2.o(.ARM.Collect$$rtentry$$00000009)
    .ARM.Collect$$rtentry$$0000000A          0x08000274   Section        4  __rtentry2.o(.ARM.Collect$$rtentry$$0000000A)
    .ARM.Collect$$rtentry$$0000000C          0x08000278   Section        0  __rtentry2.o(.ARM.Collect$$rtentry$$0000000C)
    .ARM.Collect$$rtentry$$0000000D          0x08000278   Section        8  __rtentry2.o(.ARM.Collect$$rtentry$$0000000D)
    .ARM.Collect$$rtexit$$00000000           0x08000280   Section        2  rtexit.o(.ARM.Collect$$rtexit$$00000000)
    .ARM.Collect$$rtexit$$00000002           0x08000282   Section        0  rtexit2.o(.ARM.Collect$$rtexit$$00000002)
    .ARM.Collect$$rtexit$$00000003           0x08000282   Section        4  rtexit2.o(.ARM.Collect$$rtexit$$00000003)
    .ARM.Collect$$rtexit$$00000004           0x08000286   Section        6  rtexit2.o(.ARM.Collect$$rtexit$$00000004)
    .emb_text                                0x0800028c   Section       16  cpuport.o(.emb_text)
    $v0                                      0x0800028c   Number         0  cpuport.o(.emb_text)
    .text                                    0x0800029c   Section      308  context_rvds.o(.text)
    $v0                                      0x0800029c   Number         0  context_rvds.o(.text)
    .text                                    0x080003d0   Section       64  startup_stm32f405xx.o(.text)
    $v0                                      0x080003d0   Number         0  startup_stm32f405xx.o(.text)
    .text                                    0x08000410   Section      238  lludivv7m.o(.text)
    .text                                    0x080004fe   Section       72  llsdiv.o(.text)
    .text                                    0x08000548   Section        0  noretval__2sprintf.o(.text)
    .text                                    0x08000570   Section        0  __printf_ss.o(.text)
    .text                                    0x08000628   Section        0  atoi.o(.text)
    .text                                    0x08000642   Section        0  strtol.o(.text)
    .text                                    0x080006b2   Section        0  strstr.o(.text)
    .text                                    0x080006d6   Section        0  memcmp.o(.text)
    .text                                    0x0800072e   Section        0  strcpy.o(.text)
    .text                                    0x08000776   Section        0  strrchr.o(.text)
    .text                                    0x0800078c   Section        0  strlen.o(.text)
    .text                                    0x080007ca   Section        0  strncmp.o(.text)
    .text                                    0x08000860   Section        0  strcat.o(.text)
    .text                                    0x08000878   Section      138  rt_memcpy_v6.o(.text)
    .text                                    0x08000902   Section      100  rt_memcpy_w.o(.text)
    .text                                    0x08000966   Section       16  aeabi_memset.o(.text)
    .text                                    0x08000976   Section       68  rt_memclr.o(.text)
    .text                                    0x080009ba   Section       78  rt_memclr_w.o(.text)
    .text                                    0x08000a08   Section       86  strncpy.o(.text)
    .text                                    0x08000a60   Section      128  strcmpv7m.o(.text)
    .text                                    0x08000ae0   Section        0  heapauxi.o(.text)
    .text                                    0x08000ae8   Section       16  rt_ctype_table.o(.text)
    .text                                    0x08000af8   Section        8  rt_errno_addr_intlibspace.o(.text)
    .text                                    0x08000b00   Section        0  _rserrno.o(.text)
    .text                                    0x08000b16   Section        0  _printf_fp_dec.o(.text)
    _fp_digits                               0x08000b19   Thumb Code   432  _printf_fp_dec.o(.text)
    .text                                    0x08000f34   Section        0  _printf_char_common.o(.text)
    _printf_input_char                       0x08000f35   Thumb Code    10  _printf_char_common.o(.text)
    .text                                    0x08000f64   Section        0  _sputc.o(.text)
    .text                                    0x08000f6e   Section        0  _strtoul.o(.text)
    .text                                    0x0800100c   Section        8  libspace.o(.text)
    .text                                    0x08001014   Section        8  rt_locale_intlibspace.o(.text)
    .text                                    0x0800101c   Section      138  lludiv10.o(.text)
    .text                                    0x080010a8   Section        0  _printf_fp_infnan.o(.text)
    .text                                    0x08001128   Section        0  _chval.o(.text)
    .text                                    0x08001144   Section        0  bigflt0.o(.text)
    .text                                    0x08001228   Section       74  sys_stackheap_outer.o(.text)
    .text                                    0x08001272   Section        0  exit.o(.text)
    .text                                    0x08001284   Section        0  sys_exit.o(.text)
    .text                                    0x08001290   Section        2  use_no_semi.o(.text)
    .text                                    0x08001292   Section        0  indicate_semi.o(.text)
    CL$$btod_d2e                             0x08001292   Section       62  btod.o(CL$$btod_d2e)
    CL$$btod_d2e_denorm_low                  0x080012d0   Section       70  btod.o(CL$$btod_d2e_denorm_low)
    CL$$btod_d2e_norm_op1                    0x08001316   Section       96  btod.o(CL$$btod_d2e_norm_op1)
    CL$$btod_div_common                      0x08001376   Section      824  btod.o(CL$$btod_div_common)
    CL$$btod_e2e                             0x080016ae   Section      220  btod.o(CL$$btod_e2e)
    CL$$btod_ediv                            0x0800178a   Section       42  btod.o(CL$$btod_ediv)
    CL$$btod_emul                            0x080017b4   Section       42  btod.o(CL$$btod_emul)
    CL$$btod_mult_common                     0x080017de   Section      580  btod.o(CL$$btod_mult_common)
    i.$Sub$$main                             0x08001a22   Section        0  components.o(i.$Sub$$main)
    i.APP_GlobalPosInit                      0x08001a2c   Section        0  app_globalpos.o(i.APP_GlobalPosInit)
    APP_GlobalPosInit                        0x08001a2d   Thumb Code   192  app_globalpos.o(i.APP_GlobalPosInit)
    i.APP_GlobalPosRun                       0x08001b44   Section        0  app_globalpos.o(i.APP_GlobalPosRun)
    APP_GlobalPosRun                         0x08001b45   Thumb Code   202  app_globalpos.o(i.APP_GlobalPosRun)
    i.APP_GlobalPos_Config                   0x08001c68   Section        0  app_globalpos.o(i.APP_GlobalPos_Config)
    i.AS5Test                                0x08001cf8   Section        0  module_as5048.o(i.AS5Test)
    i.DMA1_Stream1_IRQHandler                0x08001e08   Section        0  drv_usart.o(i.DMA1_Stream1_IRQHandler)
    i.DMA1_Stream2_IRQHandler                0x08001e20   Section        0  drv_usart.o(i.DMA1_Stream2_IRQHandler)
    i.DMA1_Stream5_IRQHandler                0x08001e38   Section        0  drv_usart.o(i.DMA1_Stream5_IRQHandler)
    i.DMA_CalcBaseAndBitshift                0x08001e50   Section        0  stm32f4xx_hal_dma.o(i.DMA_CalcBaseAndBitshift)
    DMA_CalcBaseAndBitshift                  0x08001e51   Thumb Code    46  stm32f4xx_hal_dma.o(i.DMA_CalcBaseAndBitshift)
    i.DMA_CheckFifoParam                     0x08001e84   Section        0  stm32f4xx_hal_dma.o(i.DMA_CheckFifoParam)
    DMA_CheckFifoParam                       0x08001e85   Thumb Code   170  stm32f4xx_hal_dma.o(i.DMA_CheckFifoParam)
    i.DMA_SetConfig                          0x08001f2e   Section        0  stm32f4xx_hal_dma.o(i.DMA_SetConfig)
    DMA_SetConfig                            0x08001f2f   Thumb Code    44  stm32f4xx_hal_dma.o(i.DMA_SetConfig)
    i.EXTI0_IRQHandler                       0x08001f5a   Section        0  drv_gpio.o(i.EXTI0_IRQHandler)
    i.EXTI15_10_IRQHandler                   0x08001f6c   Section        0  drv_gpio.o(i.EXTI15_10_IRQHandler)
    i.EXTI1_IRQHandler                       0x08001fa8   Section        0  drv_gpio.o(i.EXTI1_IRQHandler)
    i.EXTI2_IRQHandler                       0x08001fba   Section        0  drv_gpio.o(i.EXTI2_IRQHandler)
    i.EXTI3_IRQHandler                       0x08001fcc   Section        0  drv_gpio.o(i.EXTI3_IRQHandler)
    i.EXTI4_IRQHandler                       0x08001fde   Section        0  drv_gpio.o(i.EXTI4_IRQHandler)
    i.EXTI9_5_IRQHandler                     0x08001ff0   Section        0  drv_gpio.o(i.EXTI9_5_IRQHandler)
    i.GlobalPosDeal_entry                    0x08002020   Section        0  app_globalpos.o(i.GlobalPosDeal_entry)
    GlobalPosDeal_entry                      0x08002021   Thumb Code    86  app_globalpos.o(i.GlobalPosDeal_entry)
    i.GlobalPosFuse_entry                    0x0800207c   Section        0  app_globalpos.o(i.GlobalPosFuse_entry)
    GlobalPosFuse_entry                      0x0800207d   Thumb Code   424  app_globalpos.o(i.GlobalPosFuse_entry)
    i.GlobalPosLed_entry                     0x08002240   Section        0  app_globalpos.o(i.GlobalPosLed_entry)
    GlobalPosLed_entry                       0x08002241   Thumb Code    20  app_globalpos.o(i.GlobalPosLed_entry)
    i.GlobalPosOffset_entry                  0x08002254   Section        0  app_globalpos.o(i.GlobalPosOffset_entry)
    GlobalPosOffset_entry                    0x08002255   Thumb Code    50  app_globalpos.o(i.GlobalPosOffset_entry)
    i.GlobalPosUpdate_entry                  0x0800228c   Section        0  app_globalpos.o(i.GlobalPosUpdate_entry)
    GlobalPosUpdate_entry                    0x0800228d   Thumb Code    84  app_globalpos.o(i.GlobalPosUpdate_entry)
    i.HAL_DMA_Abort_IT                       0x080022e0   Section        0  stm32f4xx_hal_dma.o(i.HAL_DMA_Abort_IT)
    i.HAL_DMA_DeInit                         0x08002308   Section        0  stm32f4xx_hal_dma.o(i.HAL_DMA_DeInit)
    i.HAL_DMA_IRQHandler                     0x08002378   Section        0  stm32f4xx_hal_dma.o(i.HAL_DMA_IRQHandler)
    i.HAL_DMA_Init                           0x080025b8   Section        0  stm32f4xx_hal_dma.o(i.HAL_DMA_Init)
    i.HAL_DMA_Start_IT                       0x080026a4   Section        0  stm32f4xx_hal_dma.o(i.HAL_DMA_Start_IT)
    i.HAL_GPIO_DeInit                        0x08002744   Section        0  stm32f4xx_hal_gpio.o(i.HAL_GPIO_DeInit)
    i.HAL_GPIO_EXTI_Callback                 0x080028a8   Section        0  drv_gpio.o(i.HAL_GPIO_EXTI_Callback)
    i.HAL_GPIO_EXTI_IRQHandler               0x080028e4   Section        0  stm32f4xx_hal_gpio.o(i.HAL_GPIO_EXTI_IRQHandler)
    i.HAL_GPIO_Init                          0x08002900   Section        0  stm32f4xx_hal_gpio.o(i.HAL_GPIO_Init)
    i.HAL_GPIO_ReadPin                       0x08002b00   Section        0  stm32f4xx_hal_gpio.o(i.HAL_GPIO_ReadPin)
    i.HAL_GPIO_WritePin                      0x08002b10   Section        0  stm32f4xx_hal_gpio.o(i.HAL_GPIO_WritePin)
    i.HAL_GetTick                            0x08002b1c   Section        0  drv_common.o(i.HAL_GetTick)
    i.HAL_IncTick                            0x08002b30   Section        0  stm32f4xx_hal.o(i.HAL_IncTick)
    i.HAL_Init                               0x08002b48   Section        0  stm32f4xx_hal.o(i.HAL_Init)
    i.HAL_InitTick                           0x08002b84   Section        0  drv_common.o(i.HAL_InitTick)
    i.HAL_MspInit                            0x08002b8c   Section        0  stm32f4xx_hal_msp.o(i.HAL_MspInit)
    i.HAL_NVIC_DisableIRQ                    0x08002bd4   Section        0  stm32f4xx_hal_cortex.o(i.HAL_NVIC_DisableIRQ)
    i.HAL_NVIC_EnableIRQ                     0x08002c18   Section        0  stm32f4xx_hal_cortex.o(i.HAL_NVIC_EnableIRQ)
    i.HAL_NVIC_SetPriority                   0x08002c38   Section        0  stm32f4xx_hal_cortex.o(i.HAL_NVIC_SetPriority)
    i.HAL_NVIC_SetPriorityGrouping           0x08002cb4   Section        0  stm32f4xx_hal_cortex.o(i.HAL_NVIC_SetPriorityGrouping)
    i.HAL_RCC_ClockConfig                    0x08002cdc   Section        0  stm32f4xx_hal_rcc.o(i.HAL_RCC_ClockConfig)
    i.HAL_RCC_GetHCLKFreq                    0x08002e5c   Section        0  stm32f4xx_hal_rcc.o(i.HAL_RCC_GetHCLKFreq)
    i.HAL_RCC_GetPCLK1Freq                   0x08002e68   Section        0  stm32f4xx_hal_rcc.o(i.HAL_RCC_GetPCLK1Freq)
    i.HAL_RCC_GetPCLK2Freq                   0x08002e88   Section        0  stm32f4xx_hal_rcc.o(i.HAL_RCC_GetPCLK2Freq)
    i.HAL_RCC_GetSysClockFreq                0x08002ea8   Section        0  stm32f4xx_hal_rcc.o(i.HAL_RCC_GetSysClockFreq)
    i.HAL_RCC_OscConfig                      0x08002f58   Section        0  stm32f4xx_hal_rcc.o(i.HAL_RCC_OscConfig)
    i.HAL_SPI_ErrorCallback                  0x080033a0   Section        0  stm32f4xx_hal_spi.o(i.HAL_SPI_ErrorCallback)
    i.HAL_SPI_GetState                       0x080033a2   Section        0  stm32f4xx_hal_spi.o(i.HAL_SPI_GetState)
    i.HAL_SPI_Init                           0x080033aa   Section        0  stm32f4xx_hal_spi.o(i.HAL_SPI_Init)
    i.HAL_SPI_MspInit                        0x08003438   Section        0  stm32f4xx_hal_msp.o(i.HAL_SPI_MspInit)
    i.HAL_SPI_Receive                        0x08003538   Section        0  stm32f4xx_hal_spi.o(i.HAL_SPI_Receive)
    i.HAL_SPI_Receive_DMA                    0x0800369c   Section        0  stm32f4xx_hal_spi.o(i.HAL_SPI_Receive_DMA)
    i.HAL_SPI_RxCpltCallback                 0x080037ac   Section        0  stm32f4xx_hal_spi.o(i.HAL_SPI_RxCpltCallback)
    i.HAL_SPI_RxHalfCpltCallback             0x080037ae   Section        0  stm32f4xx_hal_spi.o(i.HAL_SPI_RxHalfCpltCallback)
    i.HAL_SPI_Transmit                       0x080037b0   Section        0  stm32f4xx_hal_spi.o(i.HAL_SPI_Transmit)
    i.HAL_SPI_TransmitReceive                0x08003952   Section        0  stm32f4xx_hal_spi.o(i.HAL_SPI_TransmitReceive)
    i.HAL_SPI_TransmitReceive_DMA            0x08003b7c   Section        0  stm32f4xx_hal_spi.o(i.HAL_SPI_TransmitReceive_DMA)
    i.HAL_SPI_Transmit_DMA                   0x08003ce8   Section        0  stm32f4xx_hal_spi.o(i.HAL_SPI_Transmit_DMA)
    i.HAL_SPI_TxCpltCallback                 0x08003dd8   Section        0  stm32f4xx_hal_spi.o(i.HAL_SPI_TxCpltCallback)
    i.HAL_SPI_TxHalfCpltCallback             0x08003dda   Section        0  stm32f4xx_hal_spi.o(i.HAL_SPI_TxHalfCpltCallback)
    i.HAL_SPI_TxRxCpltCallback               0x08003ddc   Section        0  stm32f4xx_hal_spi.o(i.HAL_SPI_TxRxCpltCallback)
    i.HAL_SPI_TxRxHalfCpltCallback           0x08003dde   Section        0  stm32f4xx_hal_spi.o(i.HAL_SPI_TxRxHalfCpltCallback)
    i.HAL_SYSTICK_CLKSourceConfig            0x08003de0   Section        0  stm32f4xx_hal_cortex.o(i.HAL_SYSTICK_CLKSourceConfig)
    i.HAL_SYSTICK_Config                     0x08003e08   Section        0  stm32f4xx_hal_cortex.o(i.HAL_SYSTICK_Config)
    i.HAL_UART_ErrorCallback                 0x08003e3c   Section        0  drv_usart.o(i.HAL_UART_ErrorCallback)
    i.HAL_UART_IRQHandler                    0x08003e40   Section        0  stm32f4xx_hal_uart.o(i.HAL_UART_IRQHandler)
    i.HAL_UART_Init                          0x08003f8c   Section        0  stm32f4xx_hal_uart.o(i.HAL_UART_Init)
    i.HAL_UART_MspInit                       0x08004000   Section        0  stm32f4xx_hal_msp.o(i.HAL_UART_MspInit)
    i.HAL_UART_Receive_DMA                   0x08004168   Section        0  stm32f4xx_hal_uart.o(i.HAL_UART_Receive_DMA)
    i.HAL_UART_RxCpltCallback                0x0800422c   Section        0  drv_usart.o(i.HAL_UART_RxCpltCallback)
    i.HAL_UART_RxHalfCpltCallback            0x0800423c   Section        0  drv_usart.o(i.HAL_UART_RxHalfCpltCallback)
    i.HAL_UART_Transmit_DMA                  0x0800424c   Section        0  stm32f4xx_hal_uart.o(i.HAL_UART_Transmit_DMA)
    i.HAL_UART_TxCpltCallback                0x080042e8   Section        0  drv_usart.o(i.HAL_UART_TxCpltCallback)
    i.HAL_UART_TxHalfCpltCallback            0x080042fa   Section        0  stm32f4xx_hal_uart.o(i.HAL_UART_TxHalfCpltCallback)
    i.MPU9250                                0x080042fc   Section        0  main.o(i.MPU9250)
    i.MPU_Read_Byte                          0x08004408   Section        0  module_mpu9250.o(i.MPU_Read_Byte)
    MPU_Read_Byte                            0x08004409   Thumb Code    48  module_mpu9250.o(i.MPU_Read_Byte)
    i.MPU_Read_Len                           0x08004438   Section        0  module_mpu9250.o(i.MPU_Read_Len)
    MPU_Read_Len                             0x08004439   Thumb Code    46  module_mpu9250.o(i.MPU_Read_Len)
    i.MPU_Set_Accel_Fsr                      0x08004466   Section        0  module_mpu9250.o(i.MPU_Set_Accel_Fsr)
    MPU_Set_Accel_Fsr                        0x08004467   Thumb Code    22  module_mpu9250.o(i.MPU_Set_Accel_Fsr)
    i.MPU_Set_Gyro_Fsr                       0x0800447c   Section        0  module_mpu9250.o(i.MPU_Set_Gyro_Fsr)
    MPU_Set_Gyro_Fsr                         0x0800447d   Thumb Code    22  module_mpu9250.o(i.MPU_Set_Gyro_Fsr)
    i.MPU_Set_LPF                            0x08004492   Section        0  module_mpu9250.o(i.MPU_Set_LPF)
    MPU_Set_LPF                              0x08004493   Thumb Code    64  module_mpu9250.o(i.MPU_Set_LPF)
    i.MPU_Set_Rate                           0x080044d2   Section        0  module_mpu9250.o(i.MPU_Set_Rate)
    MPU_Set_Rate                             0x080044d3   Thumb Code    68  module_mpu9250.o(i.MPU_Set_Rate)
    i.MPU_Write_Byte                         0x08004516   Section        0  module_mpu9250.o(i.MPU_Write_Byte)
    MPU_Write_Byte                           0x08004517   Thumb Code    40  module_mpu9250.o(i.MPU_Write_Byte)
    i.Module_AS5048Init                      0x08004540   Section        0  module_as5048.o(i.Module_AS5048Init)
    Module_AS5048Init                        0x08004541   Thumb Code    82  module_as5048.o(i.Module_AS5048Init)
    i.Module_AS5048_Config                   0x080045dc   Section        0  module_as5048.o(i.Module_AS5048_Config)
    i.Module_FILEInit                        0x08004654   Section        0  module_file.o(i.Module_FILEInit)
    Module_FILEInit                          0x08004655   Thumb Code   210  module_file.o(i.Module_FILEInit)
    i.Module_File_Config                     0x080047e0   Section        0  module_file.o(i.Module_File_Config)
    i.Module_GetAngleGyro                    0x08004860   Section        0  module_mpu9250.o(i.Module_GetAngleGyro)
    Module_GetAngleGyro                      0x08004861   Thumb Code   258  module_mpu9250.o(i.Module_GetAngleGyro)
    i.Module_GetDistance                     0x08004998   Section        0  module_as5048.o(i.Module_GetDistance)
    Module_GetDistance                       0x08004999   Thumb Code   178  module_as5048.o(i.Module_GetDistance)
    i.Module_GetOffsetData                   0x08004a78   Section        0  module_as5048.o(i.Module_GetOffsetData)
    Module_GetOffsetData                     0x08004a79   Thumb Code    58  module_as5048.o(i.Module_GetOffsetData)
    i.Module_GetOffsetGyro                   0x08004ab4   Section        0  module_mpu9250.o(i.Module_GetOffsetGyro)
    Module_GetOffsetGyro                     0x08004ab5   Thumb Code   100  module_mpu9250.o(i.Module_GetOffsetGyro)
    i.Module_GetOringalAccel                 0x08004b1c   Section        0  module_mpu9250.o(i.Module_GetOringalAccel)
    Module_GetOringalAccel                   0x08004b1d   Thumb Code    68  module_mpu9250.o(i.Module_GetOringalAccel)
    i.Module_GetOringalGyro                  0x08004b60   Section        0  module_mpu9250.o(i.Module_GetOringalGyro)
    Module_GetOringalGyro                    0x08004b61   Thumb Code    68  module_mpu9250.o(i.Module_GetOringalGyro)
    i.Module_GetOringalMag                   0x08004ba4   Section        0  module_mpu9250.o(i.Module_GetOringalMag)
    Module_GetOringalMag                     0x08004ba5   Thumb Code    80  module_mpu9250.o(i.Module_GetOringalMag)
    i.Module_GetOringeData                   0x08004bf4   Section        0  module_as5048.o(i.Module_GetOringeData)
    Module_GetOringeData                     0x08004bf5   Thumb Code   142  module_as5048.o(i.Module_GetOringeData)
    i.Module_GetTemperature                  0x08004ca4   Section        0  module_mpu9250.o(i.Module_GetTemperature)
    Module_GetTemperature                    0x08004ca5   Thumb Code    96  module_mpu9250.o(i.Module_GetTemperature)
    i.Module_KalmanFilter_Config             0x08004d14   Section        0  math_kalman.o(i.Module_KalmanFilter_Config)
    i.Module_KalmanInit                      0x08004d70   Section        0  math_kalman.o(i.Module_KalmanInit)
    Module_KalmanInit                        0x08004d71   Thumb Code    26  math_kalman.o(i.Module_KalmanInit)
    i.Module_KalmanUpdate                    0x08004d90   Section        0  math_kalman.o(i.Module_KalmanUpdate)
    Module_KalmanUpdate                      0x08004d91   Thumb Code    98  math_kalman.o(i.Module_KalmanUpdate)
    i.Module_LedHandle                       0x08004df2   Section        0  module_led.o(i.Module_LedHandle)
    Module_LedHandle                         0x08004df3   Thumb Code   116  module_led.o(i.Module_LedHandle)
    i.Module_LedInit                         0x08004e66   Section        0  module_led.o(i.Module_LedInit)
    Module_LedInit                           0x08004e67   Thumb Code    36  module_led.o(i.Module_LedInit)
    i.Module_LedSet                          0x08004e8a   Section        0  module_led.o(i.Module_LedSet)
    Module_LedSet                            0x08004e8b   Thumb Code    30  module_led.o(i.Module_LedSet)
    i.Module_Led_Config                      0x08004ea8   Section        0  module_led.o(i.Module_Led_Config)
    i.Module_MPU9250Init                     0x08004f10   Section        0  module_mpu9250.o(i.Module_MPU9250Init)
    Module_MPU9250Init                       0x08004f11   Thumb Code   240  module_mpu9250.o(i.Module_MPU9250Init)
    i.Module_MPU9250_Config                  0x08005080   Section        0  module_mpu9250.o(i.Module_MPU9250_Config)
    i.Module_UartComFeed                     0x08005164   Section        0  module_uartcom.o(i.Module_UartComFeed)
    Module_UartComFeed                       0x08005165   Thumb Code   104  module_uartcom.o(i.Module_UartComFeed)
    i.Module_UartComHandle                   0x080051d0   Section        0  module_uartcom.o(i.Module_UartComHandle)
    Module_UartComHandle                     0x080051d1   Thumb Code    16  module_uartcom.o(i.Module_UartComHandle)
    i.Module_UartComInit                     0x080051e4   Section        0  module_uartcom.o(i.Module_UartComInit)
    Module_UartComInit                       0x080051e5   Thumb Code   166  module_uartcom.o(i.Module_UartComInit)
    i.Module_UartComJC24BConfig              0x080052b8   Section        0  module_uartcom.o(i.Module_UartComJC24BConfig)
    Module_UartComJC24BConfig                0x080052b9   Thumb Code   186  module_uartcom.o(i.Module_UartComJC24BConfig)
    i.Module_UartComSend                     0x08005372   Section        0  module_uartcom.o(i.Module_UartComSend)
    Module_UartComSend                       0x08005373   Thumb Code    34  module_uartcom.o(i.Module_UartComSend)
    i.Module_UartCom_Config                  0x08005394   Section        0  module_uartcom.o(i.Module_UartCom_Config)
    i.OP_add_byte                            0x08005418   Section        0  finsh_ops.o(i.OP_add_byte)
    i.OP_add_dword                           0x08005448   Section        0  finsh_ops.o(i.OP_add_dword)
    i.OP_add_word                            0x08005478   Section        0  finsh_ops.o(i.OP_add_word)
    i.OP_and_byte                            0x080054a8   Section        0  finsh_ops.o(i.OP_and_byte)
    i.OP_and_dword                           0x080054d8   Section        0  finsh_ops.o(i.OP_and_dword)
    i.OP_and_word                            0x08005508   Section        0  finsh_ops.o(i.OP_and_word)
    i.OP_bw_byte                             0x08005538   Section        0  finsh_ops.o(i.OP_bw_byte)
    i.OP_bw_dword                            0x08005550   Section        0  finsh_ops.o(i.OP_bw_dword)
    i.OP_bw_word                             0x08005568   Section        0  finsh_ops.o(i.OP_bw_word)
    i.OP_call                                0x08005580   Section        0  finsh_ops.o(i.OP_call)
    i.OP_div_byte                            0x0800590c   Section        0  finsh_ops.o(i.OP_div_byte)
    i.OP_div_dword                           0x0800593c   Section        0  finsh_ops.o(i.OP_div_dword)
    i.OP_div_word                            0x0800596c   Section        0  finsh_ops.o(i.OP_div_word)
    i.OP_ld_byte                             0x080059a0   Section        0  finsh_ops.o(i.OP_ld_byte)
    i.OP_ld_dword                            0x080059cc   Section        0  finsh_ops.o(i.OP_ld_dword)
    i.OP_ld_value_byte                       0x08005a14   Section        0  finsh_ops.o(i.OP_ld_value_byte)
    i.OP_ld_value_byte_stack                 0x08005a60   Section        0  finsh_ops.o(i.OP_ld_value_byte_stack)
    i.OP_ld_value_dword                      0x08005a78   Section        0  finsh_ops.o(i.OP_ld_value_dword)
    i.OP_ld_value_dword_stack                0x08005ac4   Section        0  finsh_ops.o(i.OP_ld_value_dword_stack)
    i.OP_ld_value_word                       0x08005adc   Section        0  finsh_ops.o(i.OP_ld_value_word)
    i.OP_ld_value_word_stack                 0x08005b28   Section        0  finsh_ops.o(i.OP_ld_value_word_stack)
    i.OP_ld_word                             0x08005b40   Section        0  finsh_ops.o(i.OP_ld_word)
    i.OP_mod_byte                            0x08005b78   Section        0  finsh_ops.o(i.OP_mod_byte)
    i.OP_mod_dword                           0x08005bac   Section        0  finsh_ops.o(i.OP_mod_dword)
    i.OP_mod_word                            0x08005be0   Section        0  finsh_ops.o(i.OP_mod_word)
    i.OP_mul_byte                            0x08005c14   Section        0  finsh_ops.o(i.OP_mul_byte)
    i.OP_mul_dword                           0x08005c44   Section        0  finsh_ops.o(i.OP_mul_dword)
    i.OP_mul_word                            0x08005c74   Section        0  finsh_ops.o(i.OP_mul_word)
    i.OP_no_op                               0x08005ca8   Section        0  finsh_ops.o(i.OP_no_op)
    i.OP_or_byte                             0x08005cac   Section        0  finsh_ops.o(i.OP_or_byte)
    i.OP_or_dword                            0x08005cdc   Section        0  finsh_ops.o(i.OP_or_dword)
    i.OP_or_word                             0x08005d0c   Section        0  finsh_ops.o(i.OP_or_word)
    i.OP_pop                                 0x08005d3c   Section        0  finsh_ops.o(i.OP_pop)
    i.OP_shl_byte                            0x08005d4c   Section        0  finsh_ops.o(i.OP_shl_byte)
    i.OP_shl_dword                           0x08005d7c   Section        0  finsh_ops.o(i.OP_shl_dword)
    i.OP_shl_word                            0x08005dac   Section        0  finsh_ops.o(i.OP_shl_word)
    i.OP_shr_byte                            0x08005ddc   Section        0  finsh_ops.o(i.OP_shr_byte)
    i.OP_shr_dword                           0x08005e0c   Section        0  finsh_ops.o(i.OP_shr_dword)
    i.OP_shr_word                            0x08005e3c   Section        0  finsh_ops.o(i.OP_shr_word)
    i.OP_st_byte                             0x08005e6c   Section        0  finsh_ops.o(i.OP_st_byte)
    i.OP_st_dword                            0x08005e90   Section        0  finsh_ops.o(i.OP_st_dword)
    i.OP_st_word                             0x08005eb4   Section        0  finsh_ops.o(i.OP_st_word)
    i.OP_sub_byte                            0x08005ed8   Section        0  finsh_ops.o(i.OP_sub_byte)
    i.OP_sub_dword                           0x08005f08   Section        0  finsh_ops.o(i.OP_sub_dword)
    i.OP_sub_word                            0x08005f38   Section        0  finsh_ops.o(i.OP_sub_word)
    i.OP_xor_byte                            0x08005f68   Section        0  finsh_ops.o(i.OP_xor_byte)
    i.OP_xor_dword                           0x08005f98   Section        0  finsh_ops.o(i.OP_xor_dword)
    i.OP_xor_word                            0x08005fc8   Section        0  finsh_ops.o(i.OP_xor_word)
    i.SCL_H                                  0x08005ff8   Section        0  i2c-bit-ops.o(i.SCL_H)
    SCL_H                                    0x08005ff9   Thumb Code    76  i2c-bit-ops.o(i.SCL_H)
    i.SPI_DMAError                           0x08006044   Section        0  stm32f4xx_hal_spi.o(i.SPI_DMAError)
    SPI_DMAError                             0x08006045   Thumb Code    40  stm32f4xx_hal_spi.o(i.SPI_DMAError)
    i.SPI_DMAHalfReceiveCplt                 0x0800606c   Section        0  stm32f4xx_hal_spi.o(i.SPI_DMAHalfReceiveCplt)
    SPI_DMAHalfReceiveCplt                   0x0800606d   Thumb Code    14  stm32f4xx_hal_spi.o(i.SPI_DMAHalfReceiveCplt)
    i.SPI_DMAHalfTransmitCplt                0x0800607a   Section        0  stm32f4xx_hal_spi.o(i.SPI_DMAHalfTransmitCplt)
    SPI_DMAHalfTransmitCplt                  0x0800607b   Thumb Code    14  stm32f4xx_hal_spi.o(i.SPI_DMAHalfTransmitCplt)
    i.SPI_DMAHalfTransmitReceiveCplt         0x08006088   Section        0  stm32f4xx_hal_spi.o(i.SPI_DMAHalfTransmitReceiveCplt)
    SPI_DMAHalfTransmitReceiveCplt           0x08006089   Thumb Code    14  stm32f4xx_hal_spi.o(i.SPI_DMAHalfTransmitReceiveCplt)
    i.SPI_DMAReceiveCplt                     0x08006096   Section        0  stm32f4xx_hal_spi.o(i.SPI_DMAReceiveCplt)
    SPI_DMAReceiveCplt                       0x08006097   Thumb Code    98  stm32f4xx_hal_spi.o(i.SPI_DMAReceiveCplt)
    i.SPI_DMATransmitCplt                    0x080060f8   Section        0  stm32f4xx_hal_spi.o(i.SPI_DMATransmitCplt)
    SPI_DMATransmitCplt                      0x080060f9   Thumb Code   128  stm32f4xx_hal_spi.o(i.SPI_DMATransmitCplt)
    i.SPI_DMATransmitReceiveCplt             0x08006178   Section        0  stm32f4xx_hal_spi.o(i.SPI_DMATransmitReceiveCplt)
    SPI_DMATransmitReceiveCplt               0x08006179   Thumb Code   104  stm32f4xx_hal_spi.o(i.SPI_DMATransmitReceiveCplt)
    i.SPI_EndRxTransaction                   0x080061e0   Section        0  stm32f4xx_hal_spi.o(i.SPI_EndRxTransaction)
    SPI_EndRxTransaction                     0x080061e1   Thumb Code   148  stm32f4xx_hal_spi.o(i.SPI_EndRxTransaction)
    i.SPI_EndRxTxTransaction                 0x08006274   Section        0  stm32f4xx_hal_spi.o(i.SPI_EndRxTxTransaction)
    SPI_EndRxTxTransaction                   0x08006275   Thumb Code   100  stm32f4xx_hal_spi.o(i.SPI_EndRxTxTransaction)
    i.SPI_WaitFlagStateUntilTimeout          0x080062e0   Section        0  stm32f4xx_hal_spi.o(i.SPI_WaitFlagStateUntilTimeout)
    SPI_WaitFlagStateUntilTimeout            0x080062e1   Thumb Code   168  stm32f4xx_hal_spi.o(i.SPI_WaitFlagStateUntilTimeout)
    i.SysTick_Handler                        0x08006388   Section        0  drv_common.o(i.SysTick_Handler)
    i.SystemClock_Config                     0x0800639c   Section        0  board.o(i.SystemClock_Config)
    i.SystemInit                             0x08006468   Section        0  system_stm32f4xx.o(i.SystemInit)
    i.UART4_IRQHandler                       0x080064cc   Section        0  drv_usart.o(i.UART4_IRQHandler)
    i.UART_DMAAbortOnError                   0x080064e4   Section        0  stm32f4xx_hal_uart.o(i.UART_DMAAbortOnError)
    UART_DMAAbortOnError                     0x080064e5   Thumb Code    20  stm32f4xx_hal_uart.o(i.UART_DMAAbortOnError)
    i.UART_DMAError                          0x080064f8   Section        0  stm32f4xx_hal_uart.o(i.UART_DMAError)
    UART_DMAError                            0x080064f9   Thumb Code    80  stm32f4xx_hal_uart.o(i.UART_DMAError)
    i.UART_DMAReceiveCplt                    0x08006548   Section        0  stm32f4xx_hal_uart.o(i.UART_DMAReceiveCplt)
    UART_DMAReceiveCplt                      0x08006549   Thumb Code    70  stm32f4xx_hal_uart.o(i.UART_DMAReceiveCplt)
    i.UART_DMARxHalfCplt                     0x0800658e   Section        0  stm32f4xx_hal_uart.o(i.UART_DMARxHalfCplt)
    UART_DMARxHalfCplt                       0x0800658f   Thumb Code    14  stm32f4xx_hal_uart.o(i.UART_DMARxHalfCplt)
    i.UART_DMATransmitCplt                   0x0800659c   Section        0  stm32f4xx_hal_uart.o(i.UART_DMATransmitCplt)
    UART_DMATransmitCplt                     0x0800659d   Thumb Code    54  stm32f4xx_hal_uart.o(i.UART_DMATransmitCplt)
    i.UART_DMATxHalfCplt                     0x080065d2   Section        0  stm32f4xx_hal_uart.o(i.UART_DMATxHalfCplt)
    UART_DMATxHalfCplt                       0x080065d3   Thumb Code    14  stm32f4xx_hal_uart.o(i.UART_DMATxHalfCplt)
    i.UART_EndRxTransfer                     0x080065e0   Section        0  stm32f4xx_hal_uart.o(i.UART_EndRxTransfer)
    UART_EndRxTransfer                       0x080065e1   Thumb Code    32  stm32f4xx_hal_uart.o(i.UART_EndRxTransfer)
    i.UART_EndTransmit_IT                    0x08006600   Section        0  stm32f4xx_hal_uart.o(i.UART_EndTransmit_IT)
    UART_EndTransmit_IT                      0x08006601   Thumb Code    32  stm32f4xx_hal_uart.o(i.UART_EndTransmit_IT)
    i.UART_EndTxTransfer                     0x08006620   Section        0  stm32f4xx_hal_uart.o(i.UART_EndTxTransfer)
    UART_EndTxTransfer                       0x08006621   Thumb Code    20  stm32f4xx_hal_uart.o(i.UART_EndTxTransfer)
    i.UART_Receive_IT                        0x08006634   Section        0  stm32f4xx_hal_uart.o(i.UART_Receive_IT)
    UART_Receive_IT                          0x08006635   Thumb Code   166  stm32f4xx_hal_uart.o(i.UART_Receive_IT)
    i.UART_SetConfig                         0x080066dc   Section        0  stm32f4xx_hal_uart.o(i.UART_SetConfig)
    UART_SetConfig                           0x080066dd   Thumb Code   864  stm32f4xx_hal_uart.o(i.UART_SetConfig)
    i.UART_Transmit_IT                       0x08006a44   Section        0  stm32f4xx_hal_uart.o(i.UART_Transmit_IT)
    UART_Transmit_IT                         0x08006a45   Thumb Code   104  stm32f4xx_hal_uart.o(i.UART_Transmit_IT)
    i.USART2_IRQHandler                      0x08006aac   Section        0  drv_usart.o(i.USART2_IRQHandler)
    i.USART3_IRQHandler                      0x08006ac4   Section        0  drv_usart.o(i.USART3_IRQHandler)
    i.UartComDecode                          0x08006adc   Section        0  module_uartcom.o(i.UartComDecode)
    UartComDecode                            0x08006add   Thumb Code   132  module_uartcom.o(i.UartComDecode)
    i.UartComEncode                          0x08006b60   Section        0  module_uartcom.o(i.UartComEncode)
    UartComEncode                            0x08006b61   Thumb Code    70  module_uartcom.o(i.UartComEncode)
    i._Error_Handler                         0x08006ba6   Section        0  drv_common.o(i._Error_Handler)
    i.__ARM_fpclassify                       0x08006baa   Section        0  fpclassify.o(i.__ARM_fpclassify)
    i.__NVIC_GetPriorityGrouping             0x08006bdc   Section        0  stm32f4xx_hal_cortex.o(i.__NVIC_GetPriorityGrouping)
    __NVIC_GetPriorityGrouping               0x08006bdd   Thumb Code    10  stm32f4xx_hal_cortex.o(i.__NVIC_GetPriorityGrouping)
    i.__NVIC_SetPriority                     0x08006bec   Section        0  stm32f4xx_hal_cortex.o(i.__NVIC_SetPriority)
    __NVIC_SetPriority                       0x08006bed   Thumb Code    32  stm32f4xx_hal_cortex.o(i.__NVIC_SetPriority)
    i.__hardfp_cos                           0x08006c18   Section        0  cos.o(i.__hardfp_cos)
    i.__hardfp_fmod                          0x08006ce0   Section        0  fmod.o(i.__hardfp_fmod)
    i.__hardfp_sin                           0x08006de8   Section        0  sin.o(i.__hardfp_sin)
    i.__ieee754_rem_pio2                     0x08006eb0   Section        0  rred.o(i.__ieee754_rem_pio2)
    i.__isleap                               0x080072e8   Section        0  time.o(i.__isleap)
    i.__kernel_cos                           0x08007320   Section        0  cos_i.o(i.__kernel_cos)
    i.__kernel_poly                          0x08007490   Section        0  poly.o(i.__kernel_poly)
    i.__kernel_sin                           0x08007588   Section        0  sin_i.o(i.__kernel_sin)
    i.__mathlib_dbl_infnan                   0x080076b8   Section        0  dunder.o(i.__mathlib_dbl_infnan)
    i.__mathlib_dbl_invalid                  0x080076d0   Section        0  dunder.o(i.__mathlib_dbl_invalid)
    i.__mathlib_dbl_underflow                0x080076f0   Section        0  dunder.o(i.__mathlib_dbl_underflow)
    i._get_highest_priority_thread           0x08007710   Section        0  scheduler.o(i._get_highest_priority_thread)
    _get_highest_priority_thread             0x08007711   Thumb Code    30  scheduler.o(i._get_highest_priority_thread)
    i._get_path_lastname                     0x08007738   Section        0  dfs_file.o(i._get_path_lastname)
    _get_path_lastname                       0x08007739   Thumb Code    26  dfs_file.o(i._get_path_lastname)
    i._has_defunct_thread                    0x08007754   Section        0  idle.o(i._has_defunct_thread)
    _has_defunct_thread                      0x08007755   Thumb Code    16  idle.o(i._has_defunct_thread)
    i._msh_exec_cmd                          0x08007768   Section        0  msh.o(i._msh_exec_cmd)
    _msh_exec_cmd                            0x08007769   Thumb Code   106  msh.o(i._msh_exec_cmd)
    i._pin_control                           0x080077d2   Section        0  pin.o(i._pin_control)
    _pin_control                             0x080077d3   Thumb Code    40  pin.o(i._pin_control)
    i._pin_read                              0x080077fa   Section        0  pin.o(i._pin_read)
    _pin_read                                0x080077fb   Thumb Code    46  pin.o(i._pin_read)
    i._pin_write                             0x08007828   Section        0  pin.o(i._pin_write)
    _pin_write                               0x08007829   Thumb Code    46  pin.o(i._pin_write)
    i._rt_scheduler_stack_check              0x08007858   Section        0  scheduler.o(i._rt_scheduler_stack_check)
    _rt_scheduler_stack_check                0x08007859   Thumb Code    78  scheduler.o(i._rt_scheduler_stack_check)
    i._rt_thread_init                        0x080078fc   Section        0  thread.o(i._rt_thread_init)
    _rt_thread_init                          0x080078fd   Thumb Code   142  thread.o(i._rt_thread_init)
    i._rt_timer_init                         0x08007998   Section        0  timer.o(i._rt_timer_init)
    _rt_timer_init                           0x08007999   Thumb Code    66  timer.o(i._rt_timer_init)
    i._rt_timer_remove                       0x080079da   Section        0  timer.o(i._rt_timer_remove)
    _rt_timer_remove                         0x080079db   Thumb Code    46  timer.o(i._rt_timer_remove)
    i._serial_check_buffer_size              0x08007a08   Section        0  serial.o(i._serial_check_buffer_size)
    _serial_check_buffer_size                0x08007a09   Thumb Code    14  serial.o(i._serial_check_buffer_size)
    i._serial_dma_rx                         0x08007a1c   Section        0  serial.o(i._serial_dma_rx)
    _serial_dma_rx                           0x08007a1d   Thumb Code   212  serial.o(i._serial_dma_rx)
    i._serial_dma_tx                         0x08007af0   Section        0  serial.o(i._serial_dma_tx)
    _serial_dma_tx                           0x08007af1   Thumb Code    92  serial.o(i._serial_dma_tx)
    i._serial_fifo_calc_recved_len           0x08007b4c   Section        0  serial.o(i._serial_fifo_calc_recved_len)
    _serial_fifo_calc_recved_len             0x08007b4d   Thumb Code    60  serial.o(i._serial_fifo_calc_recved_len)
    i._serial_int_rx                         0x08007b88   Section        0  serial.o(i._serial_int_rx)
    _serial_int_rx                           0x08007b89   Thumb Code   112  serial.o(i._serial_int_rx)
    i._spi_bus_device_control                0x08007bf8   Section        0  spi_dev.o(i._spi_bus_device_control)
    _spi_bus_device_control                  0x08007bf9   Thumb Code    20  spi_dev.o(i._spi_bus_device_control)
    i._spi_bus_device_read                   0x08007c0c   Section        0  spi_dev.o(i._spi_bus_device_read)
    _spi_bus_device_read                     0x08007c0d   Thumb Code    30  spi_dev.o(i._spi_bus_device_read)
    i._spi_bus_device_write                  0x08007c2a   Section        0  spi_dev.o(i._spi_bus_device_write)
    _spi_bus_device_write                    0x08007c2b   Thumb Code    30  spi_dev.o(i._spi_bus_device_write)
    i._spidev_device_control                 0x08007c48   Section        0  spi_dev.o(i._spidev_device_control)
    _spidev_device_control                   0x08007c49   Thumb Code    20  spi_dev.o(i._spidev_device_control)
    i._spidev_device_read                    0x08007c5c   Section        0  spi_dev.o(i._spidev_device_read)
    _spidev_device_read                      0x08007c5d   Thumb Code    30  spi_dev.o(i._spidev_device_read)
    i._spidev_device_write                   0x08007c7a   Section        0  spi_dev.o(i._spidev_device_write)
    _spidev_device_write                     0x08007c7b   Thumb Code    30  spi_dev.o(i._spidev_device_write)
    i.aai_write                              0x08007c98   Section        0  sfud.o(i.aai_write)
    aai_write                                0x08007c99   Thumb Code   288  sfud.o(i.aai_write)
    i.bit2bitno                              0x08007db8   Section        0  drv_gpio.o(i.bit2bitno)
    bit2bitno                                0x08007db9   Thumb Code    30  drv_gpio.o(i.bit2bitno)
    i.bus_fault_track                        0x08007dd8   Section        0  cpuport.o(i.bus_fault_track)
    bus_fault_track                          0x08007dd9   Thumb Code   130  cpuport.o(i.bus_fault_track)
    i.cat                                    0x08007ed4   Section        0  dfs_file.o(i.cat)
    i.chdir                                  0x08007f3c   Section        0  dfs_posix.o(i.chdir)
    i.check_fs                               0x08007fd0   Section        0  ff.o(i.check_fs)
    check_fs                                 0x08007fd1   Thumb Code   116  ff.o(i.check_fs)
    i.chk_chr                                0x0800804c   Section        0  ff.o(i.chk_chr)
    chk_chr                                  0x0800804d   Thumb Code    20  ff.o(i.chk_chr)
    i.clear                                  0x08008060   Section        0  cmd.o(i.clear)
    clear                                    0x08008061   Thumb Code    12  cmd.o(i.clear)
    i.clmt_clust                             0x08008074   Section        0  ff.o(i.clmt_clust)
    clmt_clust                               0x08008075   Thumb Code    54  ff.o(i.clmt_clust)
    i.close                                  0x080080aa   Section        0  dfs_posix.o(i.close)
    i.closedir                               0x080080ee   Section        0  dfs_posix.o(i.closedir)
    i.clust2sect                             0x08008138   Section        0  ff.o(i.clust2sect)
    clust2sect                               0x08008139   Thumb Code    26  ff.o(i.clust2sect)
    i.cmd_cat                                0x08008154   Section        0  msh_file.o(i.cmd_cat)
    i.cmd_cd                                 0x080081b4   Section        0  msh_file.o(i.cmd_cd)
    i.cmd_cp                                 0x08008200   Section        0  msh_file.o(i.cmd_cp)
    i.cmd_df                                 0x08008254   Section        0  msh_file.o(i.cmd_df)
    i.cmd_echo                               0x080082a8   Section        0  msh_file.o(i.cmd_echo)
    i.cmd_free                               0x08008344   Section        0  msh.o(i.cmd_free)
    i.cmd_ls                                 0x08008354   Section        0  msh_file.o(i.cmd_ls)
    i.cmd_mkdir                              0x08008374   Section        0  msh_file.o(i.cmd_mkdir)
    i.cmd_mkfs                               0x080083f4   Section        0  msh_file.o(i.cmd_mkfs)
    i.cmd_mv                                 0x08008488   Section        0  msh_file.o(i.cmd_mv)
    i.cmd_ps                                 0x080085c0   Section        0  msh.o(i.cmd_ps)
    i.cmd_pwd                                0x080085d0   Section        0  msh_file.o(i.cmd_pwd)
    i.cmd_rm                                 0x080085ec   Section        0  msh_file.o(i.cmd_rm)
    i.cmp_lfn                                0x08008650   Section        0  ff.o(i.cmp_lfn)
    cmp_lfn                                  0x08008651   Thumb Code   148  ff.o(i.cmp_lfn)
    i.copy                                   0x080086e8   Section        0  dfs_file.o(i.copy)
    i.copydir                                0x08008854   Section        0  dfs_file.o(i.copydir)
    copydir                                  0x08008855   Thumb Code   246  dfs_file.o(i.copydir)
    i.copyfile                               0x0800898c   Section        0  dfs_file.o(i.copyfile)
    copyfile                                 0x0800898d   Thumb Code   176  dfs_file.o(i.copyfile)
    i.create_chain                           0x08008a98   Section        0  ff.o(i.create_chain)
    create_chain                             0x08008a99   Thumb Code   224  ff.o(i.create_chain)
    i.create_name                            0x08008b78   Section        0  ff.o(i.create_name)
    create_name                              0x08008b79   Thumb Code   534  ff.o(i.create_name)
    i.devfs_init                             0x08008da8   Section        0  devfs.o(i.devfs_init)
    i.df                                     0x08008db8   Section        0  dfs_fs.o(i.df)
    i.dfs_device_fs_close                    0x08008edc   Section        0  devfs.o(i.dfs_device_fs_close)
    i.dfs_device_fs_getdents                 0x08008f0e   Section        0  devfs.o(i.dfs_device_fs_getdents)
    i.dfs_device_fs_ioctl                    0x08008f7a   Section        0  devfs.o(i.dfs_device_fs_ioctl)
    i.dfs_device_fs_mount                    0x08008fa0   Section        0  devfs.o(i.dfs_device_fs_mount)
    i.dfs_device_fs_open                     0x08008fa6   Section        0  devfs.o(i.dfs_device_fs_open)
    i.dfs_device_fs_poll                     0x08009068   Section        0  devfs.o(i.dfs_device_fs_poll)
    dfs_device_fs_poll                       0x08009069   Thumb Code     6  devfs.o(i.dfs_device_fs_poll)
    i.dfs_device_fs_read                     0x0800906e   Section        0  devfs.o(i.dfs_device_fs_read)
    i.dfs_device_fs_stat                     0x08009096   Section        0  devfs.o(i.dfs_device_fs_stat)
    i.dfs_device_fs_write                    0x0800912a   Section        0  devfs.o(i.dfs_device_fs_write)
    i.dfs_elm_close                          0x08009152   Section        0  dfs_elm.o(i.dfs_elm_close)
    i.dfs_elm_flush                          0x08009188   Section        0  dfs_elm.o(i.dfs_elm_flush)
    i.dfs_elm_getdents                       0x0800919e   Section        0  dfs_elm.o(i.dfs_elm_getdents)
    i.dfs_elm_ioctl                          0x0800926c   Section        0  dfs_elm.o(i.dfs_elm_ioctl)
    i.dfs_elm_lseek                          0x080092c0   Section        0  dfs_elm.o(i.dfs_elm_lseek)
    i.dfs_elm_mkfs                           0x08009314   Section        0  dfs_elm.o(i.dfs_elm_mkfs)
    i.dfs_elm_mount                          0x08009458   Section        0  dfs_elm.o(i.dfs_elm_mount)
    i.dfs_elm_open                           0x08009564   Section        0  dfs_elm.o(i.dfs_elm_open)
    i.dfs_elm_read                           0x0800965c   Section        0  dfs_elm.o(i.dfs_elm_read)
    i.dfs_elm_rename                         0x08009696   Section        0  dfs_elm.o(i.dfs_elm_rename)
    i.dfs_elm_stat                           0x080096b8   Section        0  dfs_elm.o(i.dfs_elm_stat)
    i.dfs_elm_statfs                         0x08009778   Section        0  dfs_elm.o(i.dfs_elm_statfs)
    i.dfs_elm_unlink                         0x080097d8   Section        0  dfs_elm.o(i.dfs_elm_unlink)
    i.dfs_elm_unmount                        0x080097f4   Section        0  dfs_elm.o(i.dfs_elm_unmount)
    i.dfs_elm_write                          0x08009850   Section        0  dfs_elm.o(i.dfs_elm_write)
    i.dfs_fdtable_get                        0x08009890   Section        0  dfs.o(i.dfs_fdtable_get)
    i.dfs_file_close                         0x08009898   Section        0  dfs_file.o(i.dfs_file_close)
    i.dfs_file_getdents                      0x080098cc   Section        0  dfs_file.o(i.dfs_file_getdents)
    i.dfs_file_lseek                         0x080098fc   Section        0  dfs_file.o(i.dfs_file_lseek)
    i.dfs_file_open                          0x0800992c   Section        0  dfs_file.o(i.dfs_file_open)
    i.dfs_file_read                          0x08009a08   Section        0  dfs_file.o(i.dfs_file_read)
    i.dfs_file_rename                        0x08009a46   Section        0  dfs_file.o(i.dfs_file_rename)
    i.dfs_file_stat                          0x08009af0   Section        0  dfs_file.o(i.dfs_file_stat)
    i.dfs_file_unlink                        0x08009ba8   Section        0  dfs_file.o(i.dfs_file_unlink)
    i.dfs_file_write                         0x08009c44   Section        0  dfs_file.o(i.dfs_file_write)
    i.dfs_filesystem_lookup                  0x08009c70   Section        0  dfs_fs.o(i.dfs_filesystem_lookup)
    i.dfs_init                               0x08009cdc   Section        0  dfs.o(i.dfs_init)
    i.dfs_lock                               0x08009d80   Section        0  dfs.o(i.dfs_lock)
    i.dfs_mkfs                               0x08009da0   Section        0  dfs_fs.o(i.dfs_mkfs)
    i.dfs_mount                              0x08009e28   Section        0  dfs_fs.o(i.dfs_mount)
    i.dfs_normalize_path                     0x08009fd0   Section        0  dfs.o(i.dfs_normalize_path)
    i.dfs_register                           0x0800a120   Section        0  dfs_fs.o(i.dfs_register)
    i.dfs_statfs                             0x0800a188   Section        0  dfs_fs.o(i.dfs_statfs)
    i.dfs_subdir                             0x0800a1b0   Section        0  dfs.o(i.dfs_subdir)
    i.dfs_unlock                             0x0800a1e8   Section        0  dfs.o(i.dfs_unlock)
    i.dir_alloc                              0x0800a1f8   Section        0  ff.o(i.dir_alloc)
    dir_alloc                                0x0800a1f9   Thumb Code    96  ff.o(i.dir_alloc)
    i.dir_find                               0x0800a258   Section        0  ff.o(i.dir_find)
    dir_find                                 0x0800a259   Thumb Code   252  ff.o(i.dir_find)
    i.dir_next                               0x0800a354   Section        0  ff.o(i.dir_next)
    dir_next                                 0x0800a355   Thumb Code   282  ff.o(i.dir_next)
    i.dir_read                               0x0800a46e   Section        0  ff.o(i.dir_read)
    dir_read                                 0x0800a46f   Thumb Code   210  ff.o(i.dir_read)
    i.dir_register                           0x0800a540   Section        0  ff.o(i.dir_register)
    dir_register                             0x0800a541   Thumb Code   322  ff.o(i.dir_register)
    i.dir_remove                             0x0800a682   Section        0  ff.o(i.dir_remove)
    dir_remove                               0x0800a683   Thumb Code    96  ff.o(i.dir_remove)
    i.dir_sdi                                0x0800a6e2   Section        0  ff.o(i.dir_sdi)
    dir_sdi                                  0x0800a6e3   Thumb Code   166  ff.o(i.dir_sdi)
    i.disk_initialize                        0x0800a788   Section        0  dfs_elm.o(i.disk_initialize)
    i.disk_ioctl                             0x0800a790   Section        0  dfs_elm.o(i.disk_ioctl)
    i.disk_read                              0x0800a830   Section        0  dfs_elm.o(i.disk_read)
    i.disk_status                            0x0800a864   Section        0  dfs_elm.o(i.disk_status)
    i.disk_write                             0x0800a86c   Section        0  dfs_elm.o(i.disk_write)
    i.dma_isr                                0x0800a8a0   Section        0  drv_usart.o(i.dma_isr)
    dma_isr                                  0x0800a8a1   Thumb Code    98  drv_usart.o(i.dma_isr)
    i.elm_init                               0x0800a904   Section        0  dfs_elm.o(i.elm_init)
    i.elm_result_to_dfs                      0x0800a914   Section        0  dfs_elm.o(i.elm_result_to_dfs)
    elm_result_to_dfs                        0x0800a915   Thumb Code    88  dfs_elm.o(i.elm_result_to_dfs)
    i.f_close                                0x0800a96c   Section        0  ff.o(i.f_close)
    i.f_getfree                              0x0800a996   Section        0  ff.o(i.f_getfree)
    i.f_lseek                                0x0800aa9c   Section        0  ff.o(i.f_lseek)
    i.f_mkdir                                0x0800ae02   Section        0  ff.o(i.f_mkdir)
    i.f_mkfs                                 0x0800af98   Section        0  ff.o(i.f_mkfs)
    i.f_mount                                0x0800b674   Section        0  ff.o(i.f_mount)
    i.f_open                                 0x0800b6f4   Section        0  ff.o(i.f_open)
    i.f_opendir                              0x0800b928   Section        0  ff.o(i.f_opendir)
    i.f_read                                 0x0800b9c2   Section        0  ff.o(i.f_read)
    i.f_readdir                              0x0800bbf6   Section        0  ff.o(i.f_readdir)
    i.f_rename                               0x0800bc6e   Section        0  ff.o(i.f_rename)
    i.f_seekdir                              0x0800bdb0   Section        0  ff.o(i.f_seekdir)
    i.f_stat                                 0x0800bdee   Section        0  ff.o(i.f_stat)
    i.f_sync                                 0x0800be56   Section        0  ff.o(i.f_sync)
    i.f_truncate                             0x0800bf06   Section        0  ff.o(i.f_truncate)
    i.f_unlink                               0x0800bfd8   Section        0  ff.o(i.f_unlink)
    i.f_write                                0x0800c0ac   Section        0  ff.o(i.f_write)
    i.fabs                                   0x0800c324   Section        0  fabs.o(i.fabs)
    i.fd_alloc                               0x0800c33c   Section        0  dfs.o(i.fd_alloc)
    fd_alloc                                 0x0800c33d   Thumb Code   158  dfs.o(i.fd_alloc)
    i.fd_get                                 0x0800c3da   Section        0  dfs.o(i.fd_get)
    i.fd_is_open                             0x0800c420   Section        0  dfs.o(i.fd_is_open)
    i.fd_new                                 0x0800c4c6   Section        0  dfs.o(i.fd_new)
    i.fd_put                                 0x0800c502   Section        0  dfs.o(i.fd_put)
    i.ff_convert                             0x0800c54c   Section        0  ccsbcs.o(i.ff_convert)
    i.ff_cre_syncobj                         0x0800c598   Section        0  dfs_elm.o(i.ff_cre_syncobj)
    i.ff_del_syncobj                         0x0800c5c8   Section        0  dfs_elm.o(i.ff_del_syncobj)
    i.ff_memalloc                            0x0800c5d8   Section        0  dfs_elm.o(i.ff_memalloc)
    i.ff_memfree                             0x0800c5e4   Section        0  dfs_elm.o(i.ff_memfree)
    i.ff_rel_grant                           0x0800c5f0   Section        0  dfs_elm.o(i.ff_rel_grant)
    i.ff_req_grant                           0x0800c5fc   Section        0  dfs_elm.o(i.ff_req_grant)
    i.ff_wtoupper                            0x0800c614   Section        0  ccsbcs.o(i.ff_wtoupper)
    i.find_volume                            0x0800c6b8   Section        0  ff.o(i.find_volume)
    find_volume                              0x0800c6b9   Thumb Code   836  ff.o(i.find_volume)
    i.finsh_block_insert                     0x0800ca0c   Section        0  finsh_heap.o(i.finsh_block_insert)
    finsh_block_insert                       0x0800ca0d   Thumb Code    62  finsh_heap.o(i.finsh_block_insert)
    i.finsh_block_merge                      0x0800ca4a   Section        0  finsh_heap.o(i.finsh_block_merge)
    finsh_block_merge                        0x0800ca4b   Thumb Code   124  finsh_heap.o(i.finsh_block_merge)
    i.finsh_block_remove                     0x0800cac6   Section        0  finsh_heap.o(i.finsh_block_remove)
    finsh_block_remove                       0x0800cac7   Thumb Code    46  finsh_heap.o(i.finsh_block_remove)
    i.finsh_block_split                      0x0800caf4   Section        0  finsh_heap.o(i.finsh_block_split)
    finsh_block_split                        0x0800caf5   Thumb Code    24  finsh_heap.o(i.finsh_block_split)
    i.finsh_compile                          0x0800cb0c   Section        0  finsh_compiler.o(i.finsh_compile)
    finsh_compile                            0x0800cb0d   Thumb Code  5712  finsh_compiler.o(i.finsh_compile)
    i.finsh_compiler_run                     0x0800e160   Section        0  finsh_compiler.o(i.finsh_compiler_run)
    i.finsh_errno                            0x0800e1d0   Section        0  finsh_error.o(i.finsh_errno)
    i.finsh_error_init                       0x0800e1dc   Section        0  finsh_error.o(i.finsh_error_init)
    i.finsh_error_set                        0x0800e1e8   Section        0  finsh_error.o(i.finsh_error_set)
    i.finsh_error_string                     0x0800e1f8   Section        0  finsh_error.o(i.finsh_error_string)
    i.finsh_flush                            0x0800e208   Section        0  finsh_init.o(i.finsh_flush)
    i.finsh_get_prompt                       0x0800e220   Section        0  shell.o(i.finsh_get_prompt)
    i.finsh_getchar                          0x0800e2b0   Section        0  shell.o(i.finsh_getchar)
    finsh_getchar                            0x0800e2b1   Thumb Code    48  shell.o(i.finsh_getchar)
    i.finsh_heap_allocate                    0x0800e2e4   Section        0  finsh_heap.o(i.finsh_heap_allocate)
    i.finsh_heap_free                        0x0800e358   Section        0  finsh_heap.o(i.finsh_heap_free)
    i.finsh_heap_gc                          0x0800e384   Section        0  finsh_heap.o(i.finsh_heap_gc)
    finsh_heap_gc                            0x0800e385   Thumb Code    78  finsh_heap.o(i.finsh_heap_gc)
    i.finsh_heap_init                        0x0800e3dc   Section        0  finsh_heap.o(i.finsh_heap_init)
    i.finsh_init                             0x0800e40c   Section        0  finsh_init.o(i.finsh_init)
    i.finsh_node_allocate                    0x0800e42c   Section        0  finsh_node.o(i.finsh_node_allocate)
    i.finsh_node_init                        0x0800e468   Section        0  finsh_node.o(i.finsh_node_init)
    i.finsh_node_new_char                    0x0800e47c   Section        0  finsh_node.o(i.finsh_node_new_char)
    i.finsh_node_new_id                      0x0800e49a   Section        0  finsh_node.o(i.finsh_node_new_id)
    i.finsh_node_new_int                     0x0800e510   Section        0  finsh_node.o(i.finsh_node_new_int)
    i.finsh_node_new_long                    0x0800e52e   Section        0  finsh_node.o(i.finsh_node_new_long)
    i.finsh_node_new_ptr                     0x0800e54c   Section        0  finsh_node.o(i.finsh_node_new_ptr)
    i.finsh_node_new_string                  0x0800e56a   Section        0  finsh_node.o(i.finsh_node_new_string)
    i.finsh_parser_init                      0x0800e5b4   Section        0  finsh_parser.o(i.finsh_parser_init)
    i.finsh_parser_run                       0x0800e5c4   Section        0  finsh_parser.o(i.finsh_parser_run)
    i.finsh_run_line                         0x0800e6a0   Section        0  shell.o(i.finsh_run_line)
    i.finsh_rx_ind                           0x0800e774   Section        0  shell.o(i.finsh_rx_ind)
    finsh_rx_ind                             0x0800e775   Thumb Code    18  shell.o(i.finsh_rx_ind)
    i.finsh_set_device                       0x0800e78c   Section        0  shell.o(i.finsh_set_device)
    i.finsh_set_prompt_mode                  0x0800e840   Section        0  shell.o(i.finsh_set_prompt_mode)
    i.finsh_stack_bottom                     0x0800e85c   Section        0  finsh_init.o(i.finsh_stack_bottom)
    i.finsh_syscall_lookup                   0x0800e868   Section        0  finsh_vm.o(i.finsh_syscall_lookup)
    i.finsh_system_function_init             0x0800e8c4   Section        0  shell.o(i.finsh_system_function_init)
    i.finsh_system_init                      0x0800e8d8   Section        0  shell.o(i.finsh_system_init)
    i.finsh_system_var_init                  0x0800e984   Section        0  shell.o(i.finsh_system_var_init)
    i.finsh_sysvar_lookup                    0x0800e998   Section        0  finsh_var.o(i.finsh_sysvar_lookup)
    i.finsh_thread_entry                     0x0800e9f4   Section        0  shell.o(i.finsh_thread_entry)
    i.finsh_token_init                       0x0800ef4c   Section        0  finsh_token.o(i.finsh_token_init)
    i.finsh_token_token                      0x0800ef60   Section        0  finsh_token.o(i.finsh_token_token)
    i.finsh_type_check                       0x0800ef78   Section        0  finsh_compiler.o(i.finsh_type_check)
    finsh_type_check                         0x0800ef79   Thumb Code   350  finsh_compiler.o(i.finsh_type_check)
    i.finsh_var_init                         0x0800f0d8   Section        0  finsh_var.o(i.finsh_var_init)
    i.finsh_var_insert                       0x0800f0ec   Section        0  finsh_var.o(i.finsh_var_insert)
    i.finsh_var_lookup                       0x0800f164   Section        0  finsh_var.o(i.finsh_var_lookup)
    i.finsh_vm_run                           0x0800f1a4   Section        0  finsh_vm.o(i.finsh_vm_run)
    i.follow_path                            0x0800f1f8   Section        0  ff.o(i.follow_path)
    follow_path                              0x0800f1f9   Thumb Code   174  ff.o(i.follow_path)
    i.gen_numname                            0x0800f2a8   Section        0  ff.o(i.gen_numname)
    gen_numname                              0x0800f2a9   Thumb Code   176  ff.o(i.gen_numname)
    i.get_disk                               0x0800f35c   Section        0  dfs_elm.o(i.get_disk)
    get_disk                                 0x0800f35d   Thumb Code    32  dfs_elm.o(i.get_disk)
    i.get_fat                                0x0800f380   Section        0  ff.o(i.get_fat)
    get_fat                                  0x0800f381   Thumb Code   306  ff.o(i.get_fat)
    i.get_fattime                            0x0800f4b2   Section        0  dfs_elm.o(i.get_fattime)
    i.get_fileinfo                           0x0800f4b6   Section        0  ff.o(i.get_fileinfo)
    get_fileinfo                             0x0800f4b7   Thumb Code   322  ff.o(i.get_fileinfo)
    i.get_ldnumber                           0x0800f5f8   Section        0  ff.o(i.get_ldnumber)
    get_ldnumber                             0x0800f5f9   Thumb Code    72  ff.o(i.get_ldnumber)
    i.get_pin                                0x0800f640   Section        0  drv_gpio.o(i.get_pin)
    get_pin                                  0x0800f641   Thumb Code    30  drv_gpio.o(i.get_pin)
    i.getcwd                                 0x0800f664   Section        0  dfs_posix.o(i.getcwd)
    i.hard_fault_track                       0x0800f684   Section        0  cpuport.o(i.hard_fault_track)
    hard_fault_track                         0x0800f685   Thumb Code    82  cpuport.o(i.hard_fault_track)
    i.hardware_init                          0x0800f704   Section        0  sfud.o(i.hardware_init)
    hardware_init                            0x0800f705   Thumb Code   420  sfud.o(i.hardware_init)
    i.hello                                  0x0800f8b0   Section        0  cmd.o(i.hello)
    i.i2c_bit_send_address                   0x0800f8d0   Section        0  i2c-bit-ops.o(i.i2c_bit_send_address)
    i2c_bit_send_address                     0x0800f8d1   Thumb Code   190  i2c-bit-ops.o(i.i2c_bit_send_address)
    i.i2c_bit_xfer                           0x0800f98e   Section        0  i2c-bit-ops.o(i.i2c_bit_xfer)
    i2c_bit_xfer                             0x0800f98f   Thumb Code   156  i2c-bit-ops.o(i.i2c_bit_xfer)
    i.i2c_bus_device_control                 0x0800fa2a   Section        0  i2c_dev.o(i.i2c_bus_device_control)
    i2c_bus_device_control                   0x0800fa2b   Thumb Code   104  i2c_dev.o(i.i2c_bus_device_control)
    i.i2c_bus_device_read                    0x0800fa92   Section        0  i2c_dev.o(i.i2c_bus_device_read)
    i2c_bus_device_read                      0x0800fa93   Thumb Code    46  i2c_dev.o(i.i2c_bus_device_read)
    i.i2c_bus_device_write                   0x0800fac0   Section        0  i2c_dev.o(i.i2c_bus_device_write)
    i2c_bus_device_write                     0x0800fac1   Thumb Code    46  i2c_dev.o(i.i2c_bus_device_write)
    i.i2c_delay                              0x0800faee   Section        0  i2c-bit-ops.o(i.i2c_delay)
    i2c_delay                                0x0800faef   Thumb Code    16  i2c-bit-ops.o(i.i2c_delay)
    i.i2c_delay2                             0x0800fafe   Section        0  i2c-bit-ops.o(i.i2c_delay2)
    i2c_delay2                               0x0800faff   Thumb Code    12  i2c-bit-ops.o(i.i2c_delay2)
    i.i2c_readb                              0x0800fb0a   Section        0  i2c-bit-ops.o(i.i2c_readb)
    i2c_readb                                0x0800fb0b   Thumb Code    88  i2c-bit-ops.o(i.i2c_readb)
    i.i2c_recv_bytes                         0x0800fb62   Section        0  i2c-bit-ops.o(i.i2c_recv_bytes)
    i2c_recv_bytes                           0x0800fb63   Thumb Code    86  i2c-bit-ops.o(i.i2c_recv_bytes)
    i.i2c_restart                            0x0800fbb8   Section        0  i2c-bit-ops.o(i.i2c_restart)
    i2c_restart                              0x0800fbb9   Thumb Code    48  i2c-bit-ops.o(i.i2c_restart)
    i.i2c_send_ack_or_nack                   0x0800fbe8   Section        0  i2c-bit-ops.o(i.i2c_send_ack_or_nack)
    i2c_send_ack_or_nack                     0x0800fbe9   Thumb Code    52  i2c-bit-ops.o(i.i2c_send_ack_or_nack)
    i.i2c_send_address                       0x0800fc1c   Section        0  i2c-bit-ops.o(i.i2c_send_address)
    i2c_send_address                         0x0800fc1d   Thumb Code    72  i2c-bit-ops.o(i.i2c_send_address)
    i.i2c_send_bytes                         0x0800fc64   Section        0  i2c-bit-ops.o(i.i2c_send_bytes)
    i2c_send_bytes                           0x0800fc65   Thumb Code    78  i2c-bit-ops.o(i.i2c_send_bytes)
    i.i2c_start                              0x0800fcb2   Section        0  i2c-bit-ops.o(i.i2c_start)
    i2c_start                                0x0800fcb3   Thumb Code    28  i2c-bit-ops.o(i.i2c_start)
    i.i2c_stop                               0x0800fcce   Section        0  i2c-bit-ops.o(i.i2c_stop)
    i2c_stop                                 0x0800fccf   Thumb Code    46  i2c-bit-ops.o(i.i2c_stop)
    i.i2c_writeb                             0x0800fcfc   Section        0  i2c-bit-ops.o(i.i2c_writeb)
    i2c_writeb                               0x0800fcfd   Thumb Code   146  i2c-bit-ops.o(i.i2c_writeb)
    i.ld_clust                               0x0800fd8e   Section        0  ff.o(i.ld_clust)
    ld_clust                                 0x0800fd8f   Thumb Code    38  ff.o(i.ld_clust)
    i.ld_dword                               0x0800fdb4   Section        0  ff.o(i.ld_dword)
    ld_dword                                 0x0800fdb5   Thumb Code    24  ff.o(i.ld_dword)
    i.ld_word                                0x0800fdcc   Section        0  ff.o(i.ld_word)
    ld_word                                  0x0800fdcd   Thumb Code    12  ff.o(i.ld_word)
    i.list                                   0x0800fdd8   Section        0  cmd.o(i.list)
    i.list_device                            0x0800feb4   Section        0  cmd.o(i.list_device)
    i.list_event                             0x0800ffcc   Section        0  cmd.o(i.list_event)
    i.list_fd                                0x08010110   Section        0  dfs.o(i.list_fd)
    i.list_find_init                         0x08010258   Section        0  cmd.o(i.list_find_init)
    list_find_init                           0x08010259   Thumb Code    42  cmd.o(i.list_find_init)
    i.list_get_next                          0x08010282   Section        0  cmd.o(i.list_get_next)
    list_get_next                            0x08010283   Thumb Code   136  cmd.o(i.list_get_next)
    i.list_mailbox                           0x0801030c   Section        0  cmd.o(i.list_mailbox)
    i.list_mem                               0x08010468   Section        0  mem.o(i.list_mem)
    i.list_mempool                           0x080104e0   Section        0  cmd.o(i.list_mempool)
    i.list_msgqueue                          0x08010654   Section        0  cmd.o(i.list_msgqueue)
    i.list_mutex                             0x08010798   Section        0  cmd.o(i.list_mutex)
    i.list_prefix                            0x080108a4   Section        0  cmd.o(i.list_prefix)
    i.list_sem                               0x08010ab4   Section        0  cmd.o(i.list_sem)
    i.list_thread                            0x08010bec   Section        0  cmd.o(i.list_thread)
    i.list_timer                             0x08010dd0   Section        0  cmd.o(i.list_timer)
    i.lock_fs                                0x08010f30   Section        0  ff.o(i.lock_fs)
    lock_fs                                  0x08010f31   Thumb Code    12  ff.o(i.lock_fs)
    i.ls                                     0x08010f3c   Section        0  dfs_file.o(i.ls)
    i.main                                   0x0801106c   Section        0  main.o(i.main)
    i.main_thread_entry                      0x08011084   Section        0  components.o(i.main_thread_entry)
    i.make_adress_byte_array                 0x08011092   Section        0  sfud.o(i.make_adress_byte_array)
    make_adress_byte_array                   0x08011093   Thumb Code    44  sfud.o(i.make_adress_byte_array)
    i.make_sys_node                          0x080110be   Section        0  finsh_parser.o(i.make_sys_node)
    make_sys_node                            0x080110bf   Thumb Code    40  finsh_parser.o(i.make_sys_node)
    i.mem_cmp                                0x080110e6   Section        0  ff.o(i.mem_cmp)
    mem_cmp                                  0x080110e7   Thumb Code    36  ff.o(i.mem_cmp)
    i.mem_cpy                                0x0801110a   Section        0  ff.o(i.mem_cpy)
    mem_cpy                                  0x0801110b   Thumb Code    26  ff.o(i.mem_cpy)
    i.mem_manage_fault_track                 0x08011124   Section        0  cpuport.o(i.mem_manage_fault_track)
    mem_manage_fault_track                   0x08011125   Thumb Code   114  cpuport.o(i.mem_manage_fault_track)
    i.mem_set                                0x0801120c   Section        0  ff.o(i.mem_set)
    mem_set                                  0x0801120d   Thumb Code    18  ff.o(i.mem_set)
    i.mkdir                                  0x08011220   Section        0  dfs_posix.o(i.mkdir)
    i.mkfs                                   0x0801128c   Section        0  dfs_fs.o(i.mkfs)
    i.mktime                                 0x0801129c   Section        0  time.o(i.mktime)
    i.move_window                            0x08011410   Section        0  ff.o(i.move_window)
    move_window                              0x08011411   Thumb Code    52  ff.o(i.move_window)
    i.msh_auto_complete                      0x08011444   Section        0  msh.o(i.msh_auto_complete)
    i.msh_auto_complete_path                 0x0801150c   Section        0  msh.o(i.msh_auto_complete_path)
    i.msh_enter                              0x080116a4   Section        0  msh.o(i.msh_enter)
    msh_enter                                0x080116a5   Thumb Code    10  msh.o(i.msh_enter)
    i.msh_exec                               0x080116b4   Section        0  msh.o(i.msh_exec)
    i.msh_exec_script                        0x0801172c   Section        0  msh_file.o(i.msh_exec_script)
    i.msh_exit                               0x08011864   Section        0  msh.o(i.msh_exit)
    msh_exit                                 0x08011865   Thumb Code    10  msh.o(i.msh_exit)
    i.msh_get_cmd                            0x08011874   Section        0  msh.o(i.msh_get_cmd)
    msh_get_cmd                              0x08011875   Thumb Code    76  msh.o(i.msh_get_cmd)
    i.msh_help                               0x080118d0   Section        0  msh.o(i.msh_help)
    i.msh_is_used                            0x08011950   Section        0  msh.o(i.msh_is_used)
    i.msh_readline                           0x0801195c   Section        0  msh_file.o(i.msh_readline)
    msh_readline                             0x0801195d   Thumb Code   122  msh_file.o(i.msh_readline)
    i.msh_split                              0x080119d8   Section        0  msh.o(i.msh_split)
    msh_split                                0x080119d9   Thumb Code   202  msh.o(i.msh_split)
    i.object_split                           0x08011ac8   Section        0  cmd.o(i.object_split)
    object_split                             0x08011ac9   Thumb Code    22  cmd.o(i.object_split)
    i.open                                   0x08011ae4   Section        0  dfs_posix.o(i.open)
    i.opendir                                0x08011b40   Section        0  dfs_posix.o(i.opendir)
    i.page256_or_1_byte_write                0x08011bc0   Section        0  sfud.o(i.page256_or_1_byte_write)
    page256_or_1_byte_write                  0x08011bc1   Thumb Code   248  sfud.o(i.page256_or_1_byte_write)
    i.parity_even                            0x08011cbc   Section        0  module_as5048.o(i.parity_even)
    parity_even                              0x08011cbd   Thumb Code    30  module_as5048.o(i.parity_even)
    i.pick_lfn                               0x08011cdc   Section        0  ff.o(i.pick_lfn)
    pick_lfn                                 0x08011cdd   Thumb Code   130  ff.o(i.pick_lfn)
    i.plug_holes                             0x08011d64   Section        0  mem.o(i.plug_holes)
    plug_holes                               0x08011d65   Thumb Code   108  mem.o(i.plug_holes)
    i.print_number                           0x08011ddc   Section        0  kservice.o(i.print_number)
    print_number                             0x08011ddd   Thumb Code   400  kservice.o(i.print_number)
    i.proc_additive_expr                     0x08011f74   Section        0  finsh_parser.o(i.proc_additive_expr)
    proc_additive_expr                       0x08011f75   Thumb Code   114  finsh_parser.o(i.proc_additive_expr)
    i.proc_and_expr                          0x08011fe6   Section        0  finsh_parser.o(i.proc_and_expr)
    proc_and_expr                            0x08011fe7   Thumb Code    76  finsh_parser.o(i.proc_and_expr)
    i.proc_assign_expr                       0x08012032   Section        0  finsh_parser.o(i.proc_assign_expr)
    proc_assign_expr                         0x08012033   Thumb Code    56  finsh_parser.o(i.proc_assign_expr)
    i.proc_cast_expr                         0x0801206a   Section        0  finsh_parser.o(i.proc_cast_expr)
    proc_cast_expr                           0x0801206b   Thumb Code    78  finsh_parser.o(i.proc_cast_expr)
    i.proc_exclusive_or_expr                 0x080120b8   Section        0  finsh_parser.o(i.proc_exclusive_or_expr)
    proc_exclusive_or_expr                   0x080120b9   Thumb Code    76  finsh_parser.o(i.proc_exclusive_or_expr)
    i.proc_expr                              0x08012104   Section        0  finsh_parser.o(i.proc_expr)
    proc_expr                                0x08012105   Thumb Code    12  finsh_parser.o(i.proc_expr)
    i.proc_expr_statement                    0x08012110   Section        0  finsh_parser.o(i.proc_expr_statement)
    proc_expr_statement                      0x08012111   Thumb Code    56  finsh_parser.o(i.proc_expr_statement)
    i.proc_identifier                        0x08012148   Section        0  finsh_parser.o(i.proc_identifier)
    proc_identifier                          0x08012149   Thumb Code    44  finsh_parser.o(i.proc_identifier)
    i.proc_inclusive_or_expr                 0x08012174   Section        0  finsh_parser.o(i.proc_inclusive_or_expr)
    proc_inclusive_or_expr                   0x08012175   Thumb Code    76  finsh_parser.o(i.proc_inclusive_or_expr)
    i.proc_multiplicative_expr               0x080121c0   Section        0  finsh_parser.o(i.proc_multiplicative_expr)
    proc_multiplicative_expr                 0x080121c1   Thumb Code   138  finsh_parser.o(i.proc_multiplicative_expr)
    i.proc_param_list                        0x0801224a   Section        0  finsh_parser.o(i.proc_param_list)
    proc_param_list                          0x0801224b   Thumb Code    76  finsh_parser.o(i.proc_param_list)
    i.proc_postfix_expr                      0x08012296   Section        0  finsh_parser.o(i.proc_postfix_expr)
    proc_postfix_expr                        0x08012297   Thumb Code   162  finsh_parser.o(i.proc_postfix_expr)
    i.proc_primary_expr                      0x08012338   Section        0  finsh_parser.o(i.proc_primary_expr)
    proc_primary_expr                        0x08012339   Thumb Code   158  finsh_parser.o(i.proc_primary_expr)
    i.proc_shift_expr                        0x080123d6   Section        0  finsh_parser.o(i.proc_shift_expr)
    proc_shift_expr                          0x080123d7   Thumb Code   116  finsh_parser.o(i.proc_shift_expr)
    i.proc_type                              0x0801244a   Section        0  finsh_parser.o(i.proc_type)
    proc_type                                0x0801244b   Thumb Code   250  finsh_parser.o(i.proc_type)
    i.proc_unary_expr                        0x08012544   Section        0  finsh_parser.o(i.proc_unary_expr)
    proc_unary_expr                          0x08012545   Thumb Code   190  finsh_parser.o(i.proc_unary_expr)
    i.proc_variable_decl                     0x08012602   Section        0  finsh_parser.o(i.proc_variable_decl)
    proc_variable_decl                       0x08012603   Thumb Code   474  finsh_parser.o(i.proc_variable_decl)
    i.put_fat                                0x080127dc   Section        0  ff.o(i.put_fat)
    put_fat                                  0x080127dd   Thumb Code   400  ff.o(i.put_fat)
    i.put_lfn                                0x0801296c   Section        0  ff.o(i.put_lfn)
    put_lfn                                  0x0801296d   Thumb Code   124  ff.o(i.put_lfn)
    i.read                                   0x080129ec   Section        0  dfs_posix.o(i.read)
    i.read_basic_header                      0x08012a3c   Section        0  sfud_sfdp.o(i.read_basic_header)
    read_basic_header                        0x08012a3d   Thumb Code   102  sfud_sfdp.o(i.read_basic_header)
    i.read_basic_table                       0x08012aa2   Section        0  sfud_sfdp.o(i.read_basic_table)
    read_basic_table                         0x08012aa3   Thumb Code   526  sfud_sfdp.o(i.read_basic_table)
    i.read_jedec_id                          0x08012cb0   Section        0  sfud.o(i.read_jedec_id)
    read_jedec_id                            0x08012cb1   Thumb Code    56  sfud.o(i.read_jedec_id)
    i.read_sfdp_data                         0x08012ce8   Section        0  sfud_sfdp.o(i.read_sfdp_data)
    read_sfdp_data                           0x08012ce9   Thumb Code    56  sfud_sfdp.o(i.read_sfdp_data)
    i.read_sfdp_header                       0x08012d28   Section        0  sfud_sfdp.o(i.read_sfdp_header)
    read_sfdp_header                         0x08012d29   Thumb Code    98  sfud_sfdp.o(i.read_sfdp_header)
    i.readdir                                0x08012d8a   Section        0  dfs_posix.o(i.readdir)
    i.reboot                                 0x08012e0e   Section        0  drv_common.o(i.reboot)
    reboot                                   0x08012e0f   Thumb Code    12  drv_common.o(i.reboot)
    i.remove_chain                           0x08012e1a   Section        0  ff.o(i.remove_chain)
    remove_chain                             0x08012e1b   Thumb Code   154  ff.o(i.remove_chain)
    i.rename                                 0x08012eb4   Section        0  dfs_posix.o(i.rename)
    i.reset                                  0x08012ed8   Section        0  sfud.o(i.reset)
    reset                                    0x08012ed9   Thumb Code    94  sfud.o(i.reset)
    i.retry_delay_100us                      0x08012f36   Section        0  spi_flash_sfud.o(i.retry_delay_100us)
    retry_delay_100us                        0x08012f37   Thumb Code    10  spi_flash_sfud.o(i.retry_delay_100us)
    i.rewinddir                              0x08012f40   Section        0  dfs_posix.o(i.rewinddir)
    i.rm                                     0x08012f78   Section        0  dfs_file.o(i.rm)
    i.rt_application_init                    0x08012fa4   Section        0  components.o(i.rt_application_init)
    i.rt_calloc                              0x08012fd4   Section        0  mem.o(i.rt_calloc)
    i.rt_completion_done                     0x08012ff6   Section        0  completion.o(i.rt_completion_done)
    i.rt_completion_init                     0x0801303e   Section        0  completion.o(i.rt_completion_init)
    i.rt_completion_wait                     0x0801305c   Section        0  completion.o(i.rt_completion_wait)
    i.rt_components_board_init               0x080130dc   Section        0  components.o(i.rt_components_board_init)
    i.rt_components_init                     0x080130f8   Section        0  components.o(i.rt_components_init)
    i.rt_console_get_device                  0x08013114   Section        0  kservice.o(i.rt_console_get_device)
    i.rt_console_set_device                  0x08013120   Section        0  kservice.o(i.rt_console_set_device)
    i.rt_data_queue_deinit                   0x08013154   Section        0  dataqueue.o(i.rt_data_queue_deinit)
    i.rt_data_queue_init                     0x08013178   Section        0  dataqueue.o(i.rt_data_queue_init)
    i.rt_data_queue_peak                     0x080131c0   Section        0  dataqueue.o(i.rt_data_queue_peak)
    i.rt_data_queue_pop                      0x0801321a   Section        0  dataqueue.o(i.rt_data_queue_pop)
    i.rt_data_queue_push                     0x08013320   Section        0  dataqueue.o(i.rt_data_queue_push)
    i.rt_data_queue_reset                    0x08013406   Section        0  dataqueue.o(i.rt_data_queue_reset)
    i.rt_device_close                        0x08013470   Section        0  device.o(i.rt_device_close)
    i.rt_device_control                      0x080134a6   Section        0  device.o(i.rt_device_control)
    i.rt_device_find                         0x080134c4   Section        0  device.o(i.rt_device_find)
    i.rt_device_open                         0x08013518   Section        0  device.o(i.rt_device_open)
    i.rt_device_pin_register                 0x080135cc   Section        0  pin.o(i.rt_device_pin_register)
    i.rt_device_read                         0x08013614   Section        0  device.o(i.rt_device_read)
    i.rt_device_register                     0x08013652   Section        0  device.o(i.rt_device_register)
    i.rt_device_set_rx_indicate              0x08013686   Section        0  device.o(i.rt_device_set_rx_indicate)
    i.rt_device_unregister                   0x0801368e   Section        0  device.o(i.rt_device_unregister)
    i.rt_device_write                        0x0801369c   Section        0  device.o(i.rt_device_write)
    i.rt_dma_calc_recved_len                 0x080136da   Section        0  serial.o(i.rt_dma_calc_recved_len)
    rt_dma_calc_recved_len                   0x080136db   Thumb Code    12  serial.o(i.rt_dma_calc_recved_len)
    i.rt_dma_recv_update_get_index           0x080136e6   Section        0  serial.o(i.rt_dma_recv_update_get_index)
    rt_dma_recv_update_get_index             0x080136e7   Thumb Code    54  serial.o(i.rt_dma_recv_update_get_index)
    i.rt_dma_recv_update_put_index           0x0801371c   Section        0  serial.o(i.rt_dma_recv_update_put_index)
    rt_dma_recv_update_put_index             0x0801371d   Thumb Code   130  serial.o(i.rt_dma_recv_update_put_index)
    i.rt_enter_critical                      0x080137a0   Section        0  scheduler.o(i.rt_enter_critical)
    i.rt_exit_critical                       0x080137c0   Section        0  scheduler.o(i.rt_exit_critical)
    i.rt_free                                0x08013804   Section        0  mem.o(i.rt_free)
    i.rt_hw_board_init                       0x080138fc   Section        0  drv_common.o(i.rt_hw_board_init)
    i.rt_hw_console_output                   0x08013948   Section        0  kservice.o(i.rt_hw_console_output)
    i.rt_hw_cpu_reset                        0x0801394c   Section        0  cpuport.o(i.rt_hw_cpu_reset)
    i.rt_hw_hard_fault_exception             0x0801395c   Section        0  cpuport.o(i.rt_hw_hard_fault_exception)
    i.rt_hw_i2c_init                         0x08013b88   Section        0  drv_soft_i2c.o(i.rt_hw_i2c_init)
    i.rt_hw_pin_init                         0x08013c28   Section        0  drv_gpio.o(i.rt_hw_pin_init)
    i.rt_hw_serial_isr                       0x08013d54   Section        0  serial.o(i.rt_hw_serial_isr)
    i.rt_hw_serial_register                  0x08013eb4   Section        0  serial.o(i.rt_hw_serial_register)
    i.rt_hw_spi_bus_init                     0x08013f10   Section        0  drv_spi.o(i.rt_hw_spi_bus_init)
    rt_hw_spi_bus_init                       0x08013f11   Thumb Code   578  drv_spi.o(i.rt_hw_spi_bus_init)
    i.rt_hw_spi_device_attach                0x08014164   Section        0  drv_spi.o(i.rt_hw_spi_device_attach)
    i.rt_hw_spi_init                         0x080141ba   Section        0  drv_spi.o(i.rt_hw_spi_init)
    i.rt_hw_stack_init                       0x080141c8   Section        0  cpuport.o(i.rt_hw_stack_init)
    i.rt_hw_systick_init                     0x08014218   Section        0  drv_common.o(i.rt_hw_systick_init)
    i.rt_hw_usart_init                       0x08014240   Section        0  drv_usart.o(i.rt_hw_usart_init)
    i.rt_i2c_bit_add_bus                     0x08014300   Section        0  i2c-bit-ops.o(i.rt_i2c_bit_add_bus)
    i.rt_i2c_bus_device_device_init          0x08014318   Section        0  i2c_dev.o(i.rt_i2c_bus_device_device_init)
    i.rt_i2c_bus_device_find                 0x08014354   Section        0  i2c_core.o(i.rt_i2c_bus_device_find)
    i.rt_i2c_bus_device_register             0x08014374   Section        0  i2c_core.o(i.rt_i2c_bus_device_register)
    i.rt_i2c_core_init                       0x080143b0   Section        0  i2c_core.o(i.rt_i2c_core_init)
    i.rt_i2c_master_recv                     0x080143b4   Section        0  i2c_core.o(i.rt_i2c_master_recv)
    i.rt_i2c_master_send                     0x080143f6   Section        0  i2c_core.o(i.rt_i2c_master_send)
    i.rt_i2c_transfer                        0x08014434   Section        0  i2c_core.o(i.rt_i2c_transfer)
    i.rt_interrupt_enter                     0x08014470   Section        0  irq.o(i.rt_interrupt_enter)
    i.rt_interrupt_get_nest                  0x080144a4   Section        0  irq.o(i.rt_interrupt_get_nest)
    i.rt_interrupt_leave                     0x080144c0   Section        0  irq.o(i.rt_interrupt_leave)
    i.rt_ipc_list_resume                     0x080144f4   Section        0  ipc.o(i.rt_ipc_list_resume)
    rt_ipc_list_resume                       0x080144f5   Thumb Code    20  ipc.o(i.rt_ipc_list_resume)
    i.rt_ipc_list_resume_all                 0x08014508   Section        0  ipc.o(i.rt_ipc_list_resume_all)
    rt_ipc_list_resume_all                   0x08014509   Thumb Code    50  ipc.o(i.rt_ipc_list_resume_all)
    i.rt_ipc_list_suspend                    0x0801453a   Section        0  ipc.o(i.rt_ipc_list_suspend)
    rt_ipc_list_suspend                      0x0801453b   Thumb Code   110  ipc.o(i.rt_ipc_list_suspend)
    i.rt_ipc_object_init                     0x080145a8   Section        0  ipc.o(i.rt_ipc_object_init)
    rt_ipc_object_init                       0x080145a9   Thumb Code    16  ipc.o(i.rt_ipc_object_init)
    i.rt_kprintf                             0x080145b8   Section        0  kservice.o(i.rt_kprintf)
    i.rt_list_init                           0x08014620   Section        0  dataqueue.o(i.rt_list_init)
    rt_list_init                             0x08014621   Thumb Code     6  dataqueue.o(i.rt_list_init)
    i.rt_list_init                           0x08014626   Section        0  ipc.o(i.rt_list_init)
    rt_list_init                             0x08014627   Thumb Code     6  ipc.o(i.rt_list_init)
    i.rt_list_init                           0x0801462c   Section        0  scheduler.o(i.rt_list_init)
    rt_list_init                             0x0801462d   Thumb Code     6  scheduler.o(i.rt_list_init)
    i.rt_list_init                           0x08014632   Section        0  timer.o(i.rt_list_init)
    rt_list_init                             0x08014633   Thumb Code     6  timer.o(i.rt_list_init)
    i.rt_list_insert_after                   0x08014638   Section        0  object.o(i.rt_list_insert_after)
    rt_list_insert_after                     0x08014639   Thumb Code    14  object.o(i.rt_list_insert_after)
    i.rt_list_insert_after                   0x08014646   Section        0  thread.o(i.rt_list_insert_after)
    rt_list_insert_after                     0x08014647   Thumb Code    14  thread.o(i.rt_list_insert_after)
    i.rt_list_insert_after                   0x08014654   Section        0  timer.o(i.rt_list_insert_after)
    rt_list_insert_after                     0x08014655   Thumb Code    14  timer.o(i.rt_list_insert_after)
    i.rt_list_insert_before                  0x08014662   Section        0  dataqueue.o(i.rt_list_insert_before)
    rt_list_insert_before                    0x08014663   Thumb Code    14  dataqueue.o(i.rt_list_insert_before)
    i.rt_list_insert_before                  0x08014670   Section        0  ipc.o(i.rt_list_insert_before)
    rt_list_insert_before                    0x08014671   Thumb Code    14  ipc.o(i.rt_list_insert_before)
    i.rt_list_isempty                        0x0801467e   Section        0  dataqueue.o(i.rt_list_isempty)
    rt_list_isempty                          0x0801467f   Thumb Code    16  dataqueue.o(i.rt_list_isempty)
    i.rt_list_isempty                        0x0801468e   Section        0  cmd.o(i.rt_list_isempty)
    rt_list_isempty                          0x0801468f   Thumb Code    16  cmd.o(i.rt_list_isempty)
    i.rt_list_isempty                        0x0801469e   Section        0  ipc.o(i.rt_list_isempty)
    rt_list_isempty                          0x0801469f   Thumb Code    16  ipc.o(i.rt_list_isempty)
    i.rt_list_isempty                        0x080146ae   Section        0  timer.o(i.rt_list_isempty)
    rt_list_isempty                          0x080146af   Thumb Code    16  timer.o(i.rt_list_isempty)
    i.rt_list_len                            0x080146be   Section        0  cmd.o(i.rt_list_len)
    rt_list_len                              0x080146bf   Thumb Code    20  cmd.o(i.rt_list_len)
    i.rt_list_remove                         0x080146d2   Section        0  object.o(i.rt_list_remove)
    rt_list_remove                           0x080146d3   Thumb Code    18  object.o(i.rt_list_remove)
    i.rt_list_remove                         0x080146e4   Section        0  thread.o(i.rt_list_remove)
    rt_list_remove                           0x080146e5   Thumb Code    18  thread.o(i.rt_list_remove)
    i.rt_malloc                              0x080146f8   Section        0  mem.o(i.rt_malloc)
    i.rt_memcpy                              0x08014880   Section        0  kservice.o(i.rt_memcpy)
    i.rt_memmove                             0x080148fc   Section        0  kservice.o(i.rt_memmove)
    i.rt_memset                              0x0801493e   Section        0  kservice.o(i.rt_memset)
    i.rt_mutex_create                        0x08014986   Section        0  ipc.o(i.rt_mutex_create)
    i.rt_mutex_delete                        0x080149b8   Section        0  ipc.o(i.rt_mutex_delete)
    i.rt_mutex_detach                        0x080149ce   Section        0  ipc.o(i.rt_mutex_detach)
    i.rt_mutex_init                          0x080149e4   Section        0  ipc.o(i.rt_mutex_init)
    i.rt_mutex_release                       0x08014a10   Section        0  ipc.o(i.rt_mutex_release)
    i.rt_mutex_take                          0x08014ac0   Section        0  ipc.o(i.rt_mutex_take)
    i.rt_object_allocate                     0x08014ba4   Section        0  object.o(i.rt_object_allocate)
    i.rt_object_delete                       0x08014c10   Section        0  object.o(i.rt_object_delete)
    i.rt_object_detach                       0x08014c4c   Section        0  object.o(i.rt_object_detach)
    i.rt_object_get_information              0x08014c80   Section        0  object.o(i.rt_object_get_information)
    i.rt_object_init                         0x08014ca8   Section        0  object.o(i.rt_object_init)
    i.rt_object_is_systemobject              0x08014d14   Section        0  object.o(i.rt_object_is_systemobject)
    i.rt_pin_mode                            0x08014d28   Section        0  pin.o(i.rt_pin_mode)
    i.rt_pin_read                            0x08014d44   Section        0  pin.o(i.rt_pin_read)
    i.rt_pin_write                           0x08014d5c   Section        0  pin.o(i.rt_pin_write)
    i.rt_realloc                             0x08014d78   Section        0  mem.o(i.rt_realloc)
    i.rt_schedule                            0x08014eb0   Section        0  scheduler.o(i.rt_schedule)
    i.rt_schedule_insert_thread              0x08014fec   Section        0  scheduler.o(i.rt_schedule_insert_thread)
    i.rt_schedule_remove_thread              0x0801505c   Section        0  scheduler.o(i.rt_schedule_remove_thread)
    i.rt_sem_control                         0x080150b0   Section        0  ipc.o(i.rt_sem_control)
    i.rt_sem_create                          0x080150e6   Section        0  ipc.o(i.rt_sem_create)
    i.rt_sem_delete                          0x08015110   Section        0  ipc.o(i.rt_sem_delete)
    i.rt_sem_init                            0x08015126   Section        0  ipc.o(i.rt_sem_init)
    i.rt_sem_release                         0x0801514c   Section        0  ipc.o(i.rt_sem_release)
    i.rt_sem_take                            0x0801519c   Section        0  ipc.o(i.rt_sem_take)
    i.rt_serial_close                        0x0801523c   Section        0  serial.o(i.rt_serial_close)
    rt_serial_close                          0x0801523d   Thumb Code   240  serial.o(i.rt_serial_close)
    i.rt_serial_control                      0x0801532c   Section        0  serial.o(i.rt_serial_control)
    rt_serial_control                        0x0801532d   Thumb Code   130  serial.o(i.rt_serial_control)
    i.rt_serial_init                         0x080153ae   Section        0  serial.o(i.rt_serial_init)
    rt_serial_init                           0x080153af   Thumb Code    38  serial.o(i.rt_serial_init)
    i.rt_serial_open                         0x080153d4   Section        0  serial.o(i.rt_serial_open)
    rt_serial_open                           0x080153d5   Thumb Code   496  serial.o(i.rt_serial_open)
    i.rt_serial_read                         0x080155c4   Section        0  serial.o(i.rt_serial_read)
    rt_serial_read                           0x080155c5   Thumb Code   116  serial.o(i.rt_serial_read)
    i.rt_serial_write                        0x08015638   Section        0  serial.o(i.rt_serial_write)
    rt_serial_write                          0x08015639   Thumb Code   176  serial.o(i.rt_serial_write)
    i.rt_set_errno                           0x080156e8   Section        0  kservice.o(i.rt_set_errno)
    i.rt_sfud_control                        0x08015710   Section        0  spi_flash_sfud.o(i.rt_sfud_control)
    rt_sfud_control                          0x08015711   Thumb Code   144  spi_flash_sfud.o(i.rt_sfud_control)
    i.rt_sfud_flash_delete                   0x080157a0   Section        0  spi_flash_sfud.o(i.rt_sfud_flash_delete)
    i.rt_sfud_flash_probe                    0x080157d0   Section        0  spi_flash_sfud.o(i.rt_sfud_flash_probe)
    i.rt_sfud_flash_probe_ex                 0x080157f0   Section        0  spi_flash_sfud.o(i.rt_sfud_flash_probe_ex)
    i.rt_sfud_read                           0x08015944   Section        0  spi_flash_sfud.o(i.rt_sfud_read)
    rt_sfud_read                             0x08015945   Thumb Code    54  spi_flash_sfud.o(i.rt_sfud_read)
    i.rt_sfud_write                          0x0801597a   Section        0  spi_flash_sfud.o(i.rt_sfud_write)
    rt_sfud_write                            0x0801597b   Thumb Code    54  spi_flash_sfud.o(i.rt_sfud_write)
    i.rt_show_version                        0x080159b0   Section        0  kservice.o(i.rt_show_version)
    i.rt_snprintf                            0x08015a60   Section        0  kservice.o(i.rt_snprintf)
    i.rt_spi_bus_attach_device               0x08015a86   Section        0  spi_core.o(i.rt_spi_bus_attach_device)
    i.rt_spi_bus_device_init                 0x08015ad0   Section        0  spi_dev.o(i.rt_spi_bus_device_init)
    i.rt_spi_bus_register                    0x08015b08   Section        0  spi_core.o(i.rt_spi_bus_register)
    i.rt_spi_configure                       0x08015b40   Section        0  spi_core.o(i.rt_spi_configure)
    i.rt_spi_send_then_recv                  0x08015b90   Section        0  spi_core.o(i.rt_spi_send_then_recv)
    i.rt_spi_transfer                        0x08015c66   Section        0  spi_core.o(i.rt_spi_transfer)
    i.rt_spi_transfer_message                0x08015d0e   Section        0  spi_core.o(i.rt_spi_transfer_message)
    i.rt_spidev_device_init                  0x08015da4   Section        0  spi_dev.o(i.rt_spidev_device_init)
    i.rt_sprintf                             0x08015ddc   Section        0  kservice.o(i.rt_sprintf)
    i.rt_strcmp                              0x08015dfe   Section        0  kservice.o(i.rt_strcmp)
    i.rt_strdup                              0x08015e1a   Section        0  kservice.o(i.rt_strdup)
    i.rt_strlen                              0x08015e42   Section        0  kservice.o(i.rt_strlen)
    i.rt_strncmp                             0x08015e54   Section        0  kservice.o(i.rt_strncmp)
    i.rt_strncpy                             0x08015e7c   Section        0  kservice.o(i.rt_strncpy)
    i.rt_system_heap_init                    0x08015eb0   Section        0  mem.o(i.rt_system_heap_init)
    i.rt_system_scheduler_init               0x08015fa8   Section        0  scheduler.o(i.rt_system_scheduler_init)
    i.rt_system_scheduler_start              0x08015fe4   Section        0  scheduler.o(i.rt_system_scheduler_start)
    i.rt_system_timer_init                   0x0801600c   Section        0  timer.o(i.rt_system_timer_init)
    i.rt_system_timer_thread_init            0x08016028   Section        0  timer.o(i.rt_system_timer_thread_init)
    i.rt_thread_control                      0x0801602a   Section        0  thread.o(i.rt_thread_control)
    i.rt_thread_create                       0x080160a0   Section        0  thread.o(i.rt_thread_create)
    i.rt_thread_delay                        0x080160f0   Section        0  thread.o(i.rt_thread_delay)
    i.rt_thread_delete                       0x080160fc   Section        0  thread.o(i.rt_thread_delete)
    i.rt_thread_exit                         0x0801614c   Section        0  thread.o(i.rt_thread_exit)
    i.rt_thread_idle_entry                   0x080161a0   Section        0  idle.o(i.rt_thread_idle_entry)
    rt_thread_idle_entry                     0x080161a1   Thumb Code    36  idle.o(i.rt_thread_idle_entry)
    i.rt_thread_idle_excute                  0x080161c8   Section        0  idle.o(i.rt_thread_idle_excute)
    i.rt_thread_idle_init                    0x08016254   Section        0  idle.o(i.rt_thread_idle_init)
    i.rt_thread_init                         0x080162b4   Section        0  thread.o(i.rt_thread_init)
    i.rt_thread_mdelay                       0x080162e8   Section        0  thread.o(i.rt_thread_mdelay)
    i.rt_thread_resume                       0x080162fc   Section        0  thread.o(i.rt_thread_resume)
    i.rt_thread_self                         0x08016350   Section        0  thread.o(i.rt_thread_self)
    i.rt_thread_sleep                        0x0801635c   Section        0  thread.o(i.rt_thread_sleep)
    i.rt_thread_startup                      0x0801639c   Section        0  thread.o(i.rt_thread_startup)
    i.rt_thread_suspend                      0x080163c8   Section        0  thread.o(i.rt_thread_suspend)
    i.rt_thread_timeout                      0x08016428   Section        0  thread.o(i.rt_thread_timeout)
    i.rt_thread_yield                        0x08016448   Section        0  thread.o(i.rt_thread_yield)
    i.rt_tick_from_millisecond               0x08016452   Section        0  clock.o(i.rt_tick_from_millisecond)
    i.rt_tick_get                            0x0801648c   Section        0  clock.o(i.rt_tick_get)
    i.rt_tick_increase                       0x08016498   Section        0  clock.o(i.rt_tick_increase)
    i.rt_timer_check                         0x080164d4   Section        0  timer.o(i.rt_timer_check)
    i.rt_timer_control                       0x0801657c   Section        0  timer.o(i.rt_timer_control)
    i.rt_timer_detach                        0x080165c8   Section        0  timer.o(i.rt_timer_detach)
    i.rt_timer_init                          0x080165e8   Section        0  timer.o(i.rt_timer_init)
    i.rt_timer_start                         0x08016618   Section        0  timer.o(i.rt_timer_start)
    i.rt_timer_stop                          0x08016724   Section        0  timer.o(i.rt_timer_stop)
    i.rt_vsnprintf                           0x0801676c   Section        0  kservice.o(i.rt_vsnprintf)
    i.rt_vsprintf                            0x08016a9c   Section        0  kservice.o(i.rt_vsprintf)
    i.rti_board_end                          0x08016ab2   Section        0  components.o(i.rti_board_end)
    rti_board_end                            0x08016ab3   Thumb Code     4  components.o(i.rti_board_end)
    i.rti_board_start                        0x08016ab6   Section        0  components.o(i.rti_board_start)
    rti_board_start                          0x08016ab7   Thumb Code     4  components.o(i.rti_board_start)
    i.rti_end                                0x08016aba   Section        0  components.o(i.rti_end)
    rti_end                                  0x08016abb   Thumb Code     4  components.o(i.rti_end)
    i.rti_start                              0x08016abe   Section        0  components.o(i.rti_start)
    rti_start                                0x08016abf   Thumb Code     4  components.o(i.rti_start)
    i.rtthread_startup                       0x08016ac2   Section        0  components.o(i.rtthread_startup)
    i.set_4_byte_address_mode                0x08016aec   Section        0  sfud.o(i.set_4_byte_address_mode)
    set_4_byte_address_mode                  0x08016aed   Thumb Code    70  sfud.o(i.set_4_byte_address_mode)
    i.set_write_enabled                      0x08016b32   Section        0  sfud.o(i.set_write_enabled)
    set_write_enabled                        0x08016b33   Thumb Code    90  sfud.o(i.set_write_enabled)
    i.sf                                     0x08016b8c   Section        0  spi_flash_sfud.o(i.sf)
    sf                                       0x08016b8d   Thumb Code  2010  spi_flash_sfud.o(i.sf)
    i.sfud_chip_erase                        0x080175c4   Section        0  sfud.o(i.sfud_chip_erase)
    i.sfud_device_init                       0x08017654   Section        0  sfud.o(i.sfud_device_init)
    i.sfud_erase                             0x08017680   Section        0  sfud.o(i.sfud_erase)
    i.sfud_erase_write                       0x080177aa   Section        0  sfud.o(i.sfud_erase_write)
    i.sfud_read                              0x080177da   Section        0  sfud.o(i.sfud_read)
    i.sfud_read_sfdp                         0x08017854   Section        0  sfud_sfdp.o(i.sfud_read_sfdp)
    i.sfud_read_status                       0x08017878   Section        0  sfud.o(i.sfud_read_status)
    i.sfud_sfdp_get_suitable_eraser          0x08017896   Section        0  sfud_sfdp.o(i.sfud_sfdp_get_suitable_eraser)
    i.sfud_spi_port_init                     0x080178ec   Section        0  spi_flash_sfud.o(i.sfud_spi_port_init)
    i.sfud_write                             0x0801791c   Section        0  sfud.o(i.sfud_write)
    i.sfud_write_status                      0x08017968   Section        0  sfud.o(i.sfud_write_status)
    i.shell_auto_complete                    0x080179cc   Section        0  shell.o(i.shell_auto_complete)
    shell_auto_complete                      0x080179cd   Thumb Code    50  shell.o(i.shell_auto_complete)
    i.shell_handle_history                   0x08017a0c   Section        0  shell.o(i.shell_handle_history)
    shell_handle_history                     0x08017a0d   Thumb Code    32  shell.o(i.shell_handle_history)
    i.shell_push_history                     0x08017a3c   Section        0  shell.o(i.shell_push_history)
    shell_push_history                       0x08017a3d   Thumb Code   216  shell.o(i.shell_push_history)
    i.show_wait_queue                        0x08017b14   Section        0  cmd.o(i.show_wait_queue)
    show_wait_queue                          0x08017b15   Thumb Code    40  cmd.o(i.show_wait_queue)
    i.skip_atoi                              0x08017b44   Section        0  kservice.o(i.skip_atoi)
    skip_atoi                                0x08017b45   Thumb Code    38  kservice.o(i.skip_atoi)
    i.software_init                          0x08017b6a   Section        0  sfud.o(i.software_init)
    software_init                            0x08017b6b   Thumb Code     6  sfud.o(i.software_init)
    i.spi_configure                          0x08017b70   Section        0  drv_spi.o(i.spi_configure)
    spi_configure                            0x08017b71   Thumb Code    24  drv_spi.o(i.spi_configure)
    i.spi_lock                               0x08017b88   Section        0  spi_flash_sfud.o(i.spi_lock)
    spi_lock                                 0x08017b89   Thumb Code    22  spi_flash_sfud.o(i.spi_lock)
    i.spi_unlock                             0x08017b9e   Section        0  spi_flash_sfud.o(i.spi_unlock)
    spi_unlock                               0x08017b9f   Thumb Code    18  spi_flash_sfud.o(i.spi_unlock)
    i.spi_write_read                         0x08017bb0   Section        0  spi_flash_sfud.o(i.spi_write_read)
    spi_write_read                           0x08017bb1   Thumb Code   106  spi_flash_sfud.o(i.spi_write_read)
    i.spixfer                                0x08017c1a   Section        0  drv_spi.o(i.spixfer)
    spixfer                                  0x08017c1b   Thumb Code   318  drv_spi.o(i.spixfer)
    i.st_clust                               0x08017d58   Section        0  ff.o(i.st_clust)
    st_clust                                 0x08017d59   Thumb Code    36  ff.o(i.st_clust)
    i.st_dword                               0x08017d7c   Section        0  ff.o(i.st_dword)
    st_dword                                 0x08017d7d   Thumb Code    24  ff.o(i.st_dword)
    i.st_word                                0x08017d94   Section        0  ff.o(i.st_word)
    st_word                                  0x08017d95   Thumb Code    12  ff.o(i.st_word)
    i.stm32_configure                        0x08017da0   Section        0  drv_usart.o(i.stm32_configure)
    stm32_configure                          0x08017da1   Thumb Code   172  drv_usart.o(i.stm32_configure)
    i.stm32_control                          0x08017e4c   Section        0  drv_usart.o(i.stm32_control)
    stm32_control                            0x08017e4d   Thumb Code   166  drv_usart.o(i.stm32_control)
    i.stm32_dma_config                       0x08017ef8   Section        0  drv_usart.o(i.stm32_dma_config)
    stm32_dma_config                         0x08017ef9   Thumb Code   280  drv_usart.o(i.stm32_dma_config)
    i.stm32_dma_transmit                     0x08018014   Section        0  drv_usart.o(i.stm32_dma_transmit)
    stm32_dma_transmit                       0x08018015   Thumb Code    52  drv_usart.o(i.stm32_dma_transmit)
    i.stm32_get_dma_info                     0x08018048   Section        0  drv_spi.o(i.stm32_get_dma_info)
    stm32_get_dma_info                       0x08018049   Thumb Code     2  drv_spi.o(i.stm32_get_dma_info)
    i.stm32_get_scl                          0x0801804a   Section        0  drv_soft_i2c.o(i.stm32_get_scl)
    stm32_get_scl                            0x0801804b   Thumb Code    14  drv_soft_i2c.o(i.stm32_get_scl)
    i.stm32_get_sda                          0x08018058   Section        0  drv_soft_i2c.o(i.stm32_get_sda)
    stm32_get_sda                            0x08018059   Thumb Code    14  drv_soft_i2c.o(i.stm32_get_sda)
    i.stm32_getc                             0x08018066   Section        0  drv_usart.o(i.stm32_getc)
    stm32_getc                               0x08018067   Thumb Code    28  drv_usart.o(i.stm32_getc)
    i.stm32_i2c_bus_unlock                   0x08018082   Section        0  drv_soft_i2c.o(i.stm32_i2c_bus_unlock)
    stm32_i2c_bus_unlock                     0x08018083   Thumb Code    70  drv_soft_i2c.o(i.stm32_i2c_bus_unlock)
    i.stm32_i2c_gpio_init                    0x080180c8   Section        0  drv_soft_i2c.o(i.stm32_i2c_gpio_init)
    stm32_i2c_gpio_init                      0x080180c9   Thumb Code    40  drv_soft_i2c.o(i.stm32_i2c_gpio_init)
    i.stm32_pin_attach_irq                   0x080180f0   Section        0  drv_gpio.o(i.stm32_pin_attach_irq)
    stm32_pin_attach_irq                     0x080180f1   Thumb Code   216  drv_gpio.o(i.stm32_pin_attach_irq)
    i.stm32_pin_dettach_irq                  0x080181cc   Section        0  drv_gpio.o(i.stm32_pin_dettach_irq)
    stm32_pin_dettach_irq                    0x080181cd   Thumb Code   134  drv_gpio.o(i.stm32_pin_dettach_irq)
    i.stm32_pin_irq_enable                   0x08018258   Section        0  drv_gpio.o(i.stm32_pin_irq_enable)
    stm32_pin_irq_enable                     0x08018259   Thumb Code   374  drv_gpio.o(i.stm32_pin_irq_enable)
    i.stm32_pin_mode                         0x080183e8   Section        0  drv_gpio.o(i.stm32_pin_mode)
    stm32_pin_mode                           0x080183e9   Thumb Code   116  drv_gpio.o(i.stm32_pin_mode)
    i.stm32_pin_read                         0x0801845c   Section        0  drv_gpio.o(i.stm32_pin_read)
    stm32_pin_read                           0x0801845d   Thumb Code    42  drv_gpio.o(i.stm32_pin_read)
    i.stm32_pin_write                        0x08018486   Section        0  drv_gpio.o(i.stm32_pin_write)
    stm32_pin_write                          0x08018487   Thumb Code    40  drv_gpio.o(i.stm32_pin_write)
    i.stm32_putc                             0x080184ae   Section        0  drv_usart.o(i.stm32_putc)
    stm32_putc                               0x080184af   Thumb Code    40  drv_usart.o(i.stm32_putc)
    i.stm32_set_scl                          0x080184d6   Section        0  drv_soft_i2c.o(i.stm32_set_scl)
    stm32_set_scl                            0x080184d7   Thumb Code    30  drv_soft_i2c.o(i.stm32_set_scl)
    i.stm32_set_sda                          0x080184f4   Section        0  drv_soft_i2c.o(i.stm32_set_sda)
    stm32_set_sda                            0x080184f5   Thumb Code    30  drv_soft_i2c.o(i.stm32_set_sda)
    i.stm32_spi_init                         0x08018512   Section        0  drv_spi.o(i.stm32_spi_init)
    stm32_spi_init                           0x08018513   Thumb Code   428  drv_spi.o(i.stm32_spi_init)
    i.stm32_uart_get_dma_config              0x080186c0   Section        0  drv_usart.o(i.stm32_uart_get_dma_config)
    stm32_uart_get_dma_config                0x080186c1   Thumb Code    86  drv_usart.o(i.stm32_uart_get_dma_config)
    i.stm32_udelay                           0x0801872c   Section        0  drv_soft_i2c.o(i.stm32_udelay)
    stm32_udelay                             0x0801872d   Thumb Code    72  drv_soft_i2c.o(i.stm32_udelay)
    i.str_common                             0x08018774   Section        0  cmd.o(i.str_common)
    str_common                               0x08018775   Thumb Code    32  cmd.o(i.str_common)
    i.str_common                             0x08018794   Section        0  msh.o(i.str_common)
    str_common                               0x08018795   Thumb Code    32  msh.o(i.str_common)
    i.str_is_prefix                          0x080187b4   Section        0  cmd.o(i.str_is_prefix)
    str_is_prefix                            0x080187b5   Thumb Code    34  cmd.o(i.str_is_prefix)
    i.sum_sfn                                0x080187d6   Section        0  ff.o(i.sum_sfn)
    sum_sfn                                  0x080187d7   Thumb Code    32  ff.o(i.sum_sfn)
    i.sync_fs                                0x080187f8   Section        0  ff.o(i.sync_fs)
    sync_fs                                  0x080187f9   Thumb Code   134  ff.o(i.sync_fs)
    i.sync_window                            0x08018888   Section        0  ff.o(i.sync_window)
    sync_window                              0x08018889   Thumb Code    82  ff.o(i.sync_window)
    i.token_get_string                       0x080188da   Section        0  finsh_token.o(i.token_get_string)
    i.token_match_name                       0x08018954   Section        0  finsh_token.o(i.token_match_name)
    token_match_name                         0x08018955   Thumb Code    48  finsh_token.o(i.token_match_name)
    i.token_next_char                        0x08018988   Section        0  finsh_token.o(i.token_next_char)
    token_next_char                          0x08018989   Thumb Code    62  finsh_token.o(i.token_next_char)
    i.token_prev_char                        0x080189c6   Section        0  finsh_token.o(i.token_prev_char)
    token_prev_char                          0x080189c7   Thumb Code    22  finsh_token.o(i.token_prev_char)
    i.token_proc_char                        0x080189dc   Section        0  finsh_token.o(i.token_proc_char)
    token_proc_char                          0x080189dd   Thumb Code   162  finsh_token.o(i.token_proc_char)
    i.token_proc_escape                      0x08018a7e   Section        0  finsh_token.o(i.token_proc_escape)
    token_proc_escape                        0x08018a7f   Thumb Code   214  finsh_token.o(i.token_proc_escape)
    i.token_proc_number                      0x08018b54   Section        0  finsh_token.o(i.token_proc_number)
    token_proc_number                        0x08018b55   Thumb Code   288  finsh_token.o(i.token_proc_number)
    i.token_proc_string                      0x08018c74   Section        0  finsh_token.o(i.token_proc_string)
    token_proc_string                        0x08018c75   Thumb Code    80  finsh_token.o(i.token_proc_string)
    i.token_run                              0x08018cc4   Section        0  finsh_token.o(i.token_run)
    token_run                                0x08018cc5   Thumb Code   414  finsh_token.o(i.token_run)
    i.token_spec_number                      0x08018e62   Section        0  finsh_token.o(i.token_spec_number)
    token_spec_number                        0x08018e63   Thumb Code   152  finsh_token.o(i.token_spec_number)
    i.token_trim_space                       0x08018efa   Section        0  finsh_token.o(i.token_trim_space)
    token_trim_space                         0x08018efb   Thumb Code    34  finsh_token.o(i.token_trim_space)
    i.uart_isr                               0x08018f1c   Section        0  drv_usart.o(i.uart_isr)
    uart_isr                                 0x08018f1d   Thumb Code   394  drv_usart.o(i.uart_isr)
    i.unlink                                 0x080190a6   Section        0  dfs_posix.o(i.unlink)
    i.unlock_fs                              0x080190c6   Section        0  ff.o(i.unlock_fs)
    unlock_fs                                0x080190c7   Thumb Code    28  ff.o(i.unlock_fs)
    i.usage_fault_track                      0x080190e4   Section        0  cpuport.o(i.usage_fault_track)
    usage_fault_track                        0x080190e5   Thumb Code   122  cpuport.o(i.usage_fault_track)
    i.validate                               0x080191cc   Section        0  ff.o(i.validate)
    validate                                 0x080191cd   Thumb Code    72  ff.o(i.validate)
    i.version                                0x08019214   Section        0  cmd.o(i.version)
    i.wait_busy                              0x0801921e   Section        0  sfud.o(i.wait_busy)
    wait_busy                                0x0801921f   Thumb Code    58  sfud.o(i.wait_busy)
    i.write                                  0x08019258   Section        0  dfs_posix.o(i.write)
    locale$$code                             0x080192a8   Section       44  lc_ctype_c.o(locale$$code)
    locale$$code                             0x080192d4   Section       44  lc_numeric_c.o(locale$$code)
    x$fpl$basic                              0x08019300   Section       24  basic.o(x$fpl$basic)
    $v0                                      0x08019300   Number         0  basic.o(x$fpl$basic)
    x$fpl$d2f                                0x08019318   Section       98  d2f.o(x$fpl$d2f)
    $v0                                      0x08019318   Number         0  d2f.o(x$fpl$d2f)
    x$fpl$dadd                               0x0801937c   Section      336  daddsub_clz.o(x$fpl$dadd)
    $v0                                      0x0801937c   Number         0  daddsub_clz.o(x$fpl$dadd)
    _dadd1                                   0x0801938d   Thumb Code     0  daddsub_clz.o(x$fpl$dadd)
    x$fpl$ddiv                               0x080194cc   Section      688  ddiv.o(x$fpl$ddiv)
    $v0                                      0x080194cc   Number         0  ddiv.o(x$fpl$ddiv)
    ddiv_entry                               0x080194d3   Thumb Code     0  ddiv.o(x$fpl$ddiv)
    x$fpl$dfix                               0x0801977c   Section       94  dfix.o(x$fpl$dfix)
    $v0                                      0x0801977c   Number         0  dfix.o(x$fpl$dfix)
    x$fpl$dflt                               0x080197da   Section       46  dflt_clz.o(x$fpl$dflt)
    $v0                                      0x080197da   Number         0  dflt_clz.o(x$fpl$dflt)
    x$fpl$dfltu                              0x08019808   Section       38  dflt_clz.o(x$fpl$dfltu)
    $v0                                      0x08019808   Number         0  dflt_clz.o(x$fpl$dfltu)
    x$fpl$dmul                               0x08019830   Section      340  dmul.o(x$fpl$dmul)
    $v0                                      0x08019830   Number         0  dmul.o(x$fpl$dmul)
    x$fpl$dnaninf                            0x08019984   Section      156  dnaninf.o(x$fpl$dnaninf)
    $v0                                      0x08019984   Number         0  dnaninf.o(x$fpl$dnaninf)
    x$fpl$drem                               0x08019a20   Section      336  drem_clz.o(x$fpl$drem)
    $v0                                      0x08019a20   Number         0  drem_clz.o(x$fpl$drem)
    x$fpl$dretinf                            0x08019b70   Section       12  dretinf.o(x$fpl$dretinf)
    $v0                                      0x08019b70   Number         0  dretinf.o(x$fpl$dretinf)
    x$fpl$drsb                               0x08019b7c   Section       22  daddsub_clz.o(x$fpl$drsb)
    $v0                                      0x08019b7c   Number         0  daddsub_clz.o(x$fpl$drsb)
    x$fpl$dsub                               0x08019b94   Section      468  daddsub_clz.o(x$fpl$dsub)
    $v0                                      0x08019b94   Number         0  daddsub_clz.o(x$fpl$dsub)
    _dsub1                                   0x08019ba5   Thumb Code     0  daddsub_clz.o(x$fpl$dsub)
    x$fpl$f2d                                0x08019d68   Section       86  f2d.o(x$fpl$f2d)
    $v0                                      0x08019d68   Number         0  f2d.o(x$fpl$f2d)
    x$fpl$fnaninf                            0x08019dbe   Section      140  fnaninf.o(x$fpl$fnaninf)
    $v0                                      0x08019dbe   Number         0  fnaninf.o(x$fpl$fnaninf)
    x$fpl$fpinit                             0x08019e4a   Section       10  fpinit.o(x$fpl$fpinit)
    $v0                                      0x08019e4a   Number         0  fpinit.o(x$fpl$fpinit)
    x$fpl$fretinf                            0x08019e54   Section       10  fretinf.o(x$fpl$fretinf)
    $v0                                      0x08019e54   Number         0  fretinf.o(x$fpl$fretinf)
    x$fpl$printf1                            0x08019e5e   Section        4  printf1.o(x$fpl$printf1)
    $v0                                      0x08019e5e   Number         0  printf1.o(x$fpl$printf1)
    x$fpl$usenofp                            0x08019e62   Section        0  usenofp.o(x$fpl$usenofp)
    .constdata                               0x08019e64   Section        8  module_uartcom.o(.constdata)
    .constdata                               0x08019e6c   Section       60  module_as5048.o(.constdata)
    .constdata                               0x08019ea8   Section       12  i2c-bit-ops.o(.constdata)
    i2c_bit_bus_ops                          0x08019ea8   Data          12  i2c-bit-ops.o(.constdata)
    .constdata                               0x08019eb4   Section       32  spi_flash_sfud.o(.constdata)
    .constdata                               0x08019ed4   Section      584  sfud.o(.constdata)
    mf_table                                 0x08019ed4   Data         128  sfud.o(.constdata)
    flash_chip_table                         0x08019f54   Data         456  sfud.o(.constdata)
    .constdata                               0x0801a11c   Section     1816  drv_gpio.o(.constdata)
    pins                                     0x0801a11c   Data        1728  drv_gpio.o(.constdata)
    pin_irq_map                              0x0801a7dc   Data          64  drv_gpio.o(.constdata)
    _stm32_pin_ops                           0x0801a81c   Data          24  drv_gpio.o(.constdata)
    .constdata                               0x0801a834   Section       28  drv_usart.o(.constdata)
    stm32_uart_ops                           0x0801a834   Data          20  drv_usart.o(.constdata)
    .constdata                               0x0801a850   Section        8  drv_spi.o(.constdata)
    stm_spi_ops                              0x0801a850   Data           8  drv_spi.o(.constdata)
    .constdata                               0x0801a858   Section       40  drv_soft_i2c.o(.constdata)
    soft_i2c_config                          0x0801a858   Data           8  drv_soft_i2c.o(.constdata)
    stm32_bit_ops_default                    0x0801a860   Data          32  drv_soft_i2c.o(.constdata)
    .constdata                               0x0801a880   Section       12  dfs_fs.o(.constdata)
    .constdata                               0x0801a88c   Section       76  devfs.o(.constdata)
    _device_fops                             0x0801a88c   Data          36  devfs.o(.constdata)
    _device_fs                               0x0801a8b0   Data          40  devfs.o(.constdata)
    .constdata                               0x0801a8d8   Section       76  dfs_elm.o(.constdata)
    dfs_elm_fops                             0x0801a8d8   Data          36  dfs_elm.o(.constdata)
    dfs_elm                                  0x0801a8fc   Data          40  dfs_elm.o(.constdata)
    .constdata                               0x0801a924   Section      170  ff.o(.constdata)
    ExCvt                                    0x0801a924   Data         128  ff.o(.constdata)
    LfnOfs                                   0x0801a9a4   Data          13  ff.o(.constdata)
    cst                                      0x0801a9b2   Data          14  ff.o(.constdata)
    cst32                                    0x0801a9c0   Data          14  ff.o(.constdata)
    .constdata                               0x0801a9ce   Section      942  ccsbcs.o(.constdata)
    Tbl                                      0x0801a9ce   Data         256  ccsbcs.o(.constdata)
    cvt1                                     0x0801aace   Data         498  ccsbcs.o(.constdata)
    cvt2                                     0x0801acc0   Data         188  ccsbcs.o(.constdata)
    .constdata                               0x0801ad7c   Section       88  cmd.o(.constdata)
    device_type_str                          0x0801ad7c   Data          88  cmd.o(.constdata)
    .constdata                               0x0801add4   Section      196  finsh_ops.o(.constdata)
    .constdata                               0x0801ae98   Section       64  finsh_token.o(.constdata)
    finsh_name_table                         0x0801ae98   Data          64  finsh_token.o(.constdata)
    .constdata                               0x0801aed8   Section       34  kservice.o(.constdata)
    small_digits                             0x0801aed8   Data          17  kservice.o(.constdata)
    large_digits                             0x0801aee9   Data          17  kservice.o(.constdata)
    .constdata                               0x0801aefa   Section      104  time.o(.constdata)
    days                                     0x0801af14   Data          29  time.o(.constdata)
    months                                   0x0801af31   Data          49  time.o(.constdata)
    .constdata                               0x0801af62   Section       24  system_stm32f4xx.o(.constdata)
    .constdata                               0x0801af7a   Section        8  stm32f4xx_hal_dma.o(.constdata)
    flagBitshiftOffset                       0x0801af7a   Data           8  stm32f4xx_hal_dma.o(.constdata)
    .constdata                               0x0801af88   Section       48  cos_i.o(.constdata)
    C                                        0x0801af88   Data          48  cos_i.o(.constdata)
    .constdata                               0x0801afb8   Section      200  rred.o(.constdata)
    pio2s                                    0x0801afb8   Data          48  rred.o(.constdata)
    twooverpi                                0x0801afe8   Data         152  rred.o(.constdata)
    .constdata                               0x0801b080   Section       40  sin_i.o(.constdata)
    S                                        0x0801b080   Data          40  sin_i.o(.constdata)
    .constdata                               0x0801b0a8   Section      148  bigflt0.o(.constdata)
    tenpwrs_x                                0x0801b0a8   Data          60  bigflt0.o(.constdata)
    tenpwrs_i                                0x0801b0e4   Data          64  bigflt0.o(.constdata)
    .conststring                             0x0801b13c   Section       74  module_uartcom.o(.conststring)
    .conststring                             0x0801b188   Section       13  module_as5048.o(.conststring)
    .conststring                             0x0801b198   Section      773  spi_flash_sfud.o(.conststring)
    .conststring                             0x0801b4a0   Section      333  sfud.o(.conststring)
    .conststring                             0x0801b5f0   Section       22  drv_usart.o(.conststring)
    .conststring                             0x0801b608   Section       13  drv_spi.o(.conststring)
    .conststring                             0x0801b618   Section        5  drv_soft_i2c.o(.conststring)
    .conststring                             0x0801b620   Section       11  dfs_fs.o(.conststring)
    .conststring                             0x0801b62c   Section        6  devfs.o(.conststring)
    .conststring                             0x0801b634   Section       72  dfs_elm.o(.conststring)
    .conststring                             0x0801b67c   Section      381  cmd.o(.conststring)
    .conststring                             0x0801b7fc   Section      243  finsh_error.o(.conststring)
    .conststring                             0x0801b8f0   Section       62  finsh_token.o(.conststring)
    .rodata.name                             0x0801b92e   Section       39  main.o(.rodata.name)
    .rodata.name                             0x0801b955   Section       38  module_as5048.o(.rodata.name)
    .rodata.name                             0x0801b97b   Section      105  pin.o(.rodata.name)
    .rodata.name                             0x0801b9e4   Section       28  spi_flash_sfud.o(.rodata.name)
    .rodata.name                             0x0801ba00   Section       27  drv_common.o(.rodata.name)
    .rodata.name                             0x0801ba1b   Section       35  dfs.o(.rodata.name)
    .rodata.name                             0x0801ba3e   Section       95  dfs_file.o(.rodata.name)
    .rodata.name                             0x0801ba9d   Section       41  dfs_fs.o(.rodata.name)
    .rodata.name                             0x0801bac6   Section       61  dfs_posix.o(.rodata.name)
    .rodata.name                             0x0801bb03   Section      916  cmd.o(.rodata.name)
    .rodata.name                             0x0801be97   Section      182  msh.o(.rodata.name)
    .rodata.name                             0x0801bf4d   Section      400  msh_file.o(.rodata.name)
    .rodata.name                             0x0801c0dd   Section       39  mem.o(.rodata.name)
    .rti_fn.0                                0x0801c104   Section        4  components.o(.rti_fn.0)
    __tagsym$$used                           0x0801c104   Number         0  components.o(.rti_fn.0)
    .rti_fn.0.end                            0x0801c108   Section        4  components.o(.rti_fn.0.end)
    __tagsym$$used                           0x0801c108   Number         0  components.o(.rti_fn.0.end)
    .rti_fn.1                                0x0801c10c   Section        4  drv_spi.o(.rti_fn.1)
    __tagsym$$used                           0x0801c10c   Number         0  drv_spi.o(.rti_fn.1)
    .rti_fn.1                                0x0801c110   Section        4  drv_soft_i2c.o(.rti_fn.1)
    __tagsym$$used                           0x0801c110   Number         0  drv_soft_i2c.o(.rti_fn.1)
    .rti_fn.1.end                            0x0801c114   Section        4  components.o(.rti_fn.1.end)
    __tagsym$$used                           0x0801c114   Number         0  components.o(.rti_fn.1.end)
    .rti_fn.2                                0x0801c118   Section        4  dfs.o(.rti_fn.2)
    __tagsym$$used                           0x0801c118   Number         0  dfs.o(.rti_fn.2)
    .rti_fn.4                                0x0801c11c   Section        4  i2c_core.o(.rti_fn.4)
    __tagsym$$used                           0x0801c11c   Number         0  i2c_core.o(.rti_fn.4)
    .rti_fn.4                                0x0801c120   Section        4  dfs_elm.o(.rti_fn.4)
    __tagsym$$used                           0x0801c120   Number         0  dfs_elm.o(.rti_fn.4)
    .rti_fn.6                                0x0801c124   Section        4  shell.o(.rti_fn.6)
    __tagsym$$used                           0x0801c124   Number         0  shell.o(.rti_fn.6)
    .rti_fn.6.end                            0x0801c128   Section        4  components.o(.rti_fn.6.end)
    __tagsym$$used                           0x0801c128   Number         0  components.o(.rti_fn.6.end)
    FSymTab                                  0x0801c12c   Section       12  main.o(FSymTab)
    __tagsym$$used                           0x0801c12c   Number         0  main.o(FSymTab)
    FSymTab                                  0x0801c138   Section       12  module_as5048.o(FSymTab)
    __tagsym$$used                           0x0801c138   Number         0  module_as5048.o(FSymTab)
    FSymTab                                  0x0801c144   Section       36  pin.o(FSymTab)
    __tagsym$$used                           0x0801c144   Number         0  pin.o(FSymTab)
    __tagsym$$used                           0x0801c150   Number         0  pin.o(FSymTab)
    __tagsym$$used                           0x0801c15c   Number         0  pin.o(FSymTab)
    FSymTab                                  0x0801c168   Section       12  spi_flash_sfud.o(FSymTab)
    __tagsym$$used                           0x0801c168   Number         0  spi_flash_sfud.o(FSymTab)
    FSymTab                                  0x0801c174   Section       12  drv_common.o(FSymTab)
    __tagsym$$used                           0x0801c174   Number         0  drv_common.o(FSymTab)
    FSymTab                                  0x0801c180   Section       12  dfs.o(FSymTab)
    __tagsym$$used                           0x0801c180   Number         0  dfs.o(FSymTab)
    FSymTab                                  0x0801c18c   Section       48  dfs_file.o(FSymTab)
    __tagsym$$used                           0x0801c18c   Number         0  dfs_file.o(FSymTab)
    __tagsym$$used                           0x0801c198   Number         0  dfs_file.o(FSymTab)
    __tagsym$$used                           0x0801c1a4   Number         0  dfs_file.o(FSymTab)
    __tagsym$$used                           0x0801c1b0   Number         0  dfs_file.o(FSymTab)
    FSymTab                                  0x0801c1bc   Section       24  dfs_fs.o(FSymTab)
    __tagsym$$used                           0x0801c1bc   Number         0  dfs_fs.o(FSymTab)
    __tagsym$$used                           0x0801c1c8   Number         0  dfs_fs.o(FSymTab)
    FSymTab                                  0x0801c1d4   Section       24  dfs_posix.o(FSymTab)
    __tagsym$$used                           0x0801c1d4   Number         0  dfs_posix.o(FSymTab)
    __tagsym$$used                           0x0801c1e0   Number         0  dfs_posix.o(FSymTab)
    FSymTab                                  0x0801c1ec   Section      288  cmd.o(FSymTab)
    __tagsym$$used                           0x0801c1ec   Number         0  cmd.o(FSymTab)
    __tagsym$$used                           0x0801c1f8   Number         0  cmd.o(FSymTab)
    __tagsym$$used                           0x0801c204   Number         0  cmd.o(FSymTab)
    __tagsym$$used                           0x0801c210   Number         0  cmd.o(FSymTab)
    __tagsym$$used                           0x0801c21c   Number         0  cmd.o(FSymTab)
    __tagsym$$used                           0x0801c228   Number         0  cmd.o(FSymTab)
    __tagsym$$used                           0x0801c234   Number         0  cmd.o(FSymTab)
    __tagsym$$used                           0x0801c240   Number         0  cmd.o(FSymTab)
    __tagsym$$used                           0x0801c24c   Number         0  cmd.o(FSymTab)
    __tagsym$$used                           0x0801c258   Number         0  cmd.o(FSymTab)
    __tagsym$$used                           0x0801c264   Number         0  cmd.o(FSymTab)
    __tagsym$$used                           0x0801c270   Number         0  cmd.o(FSymTab)
    __tagsym$$used                           0x0801c27c   Number         0  cmd.o(FSymTab)
    __tagsym$$used                           0x0801c288   Number         0  cmd.o(FSymTab)
    __tagsym$$used                           0x0801c294   Number         0  cmd.o(FSymTab)
    __tagsym$$used                           0x0801c2a0   Number         0  cmd.o(FSymTab)
    __tagsym$$used                           0x0801c2ac   Number         0  cmd.o(FSymTab)
    __tagsym$$used                           0x0801c2b8   Number         0  cmd.o(FSymTab)
    __tagsym$$used                           0x0801c2c4   Number         0  cmd.o(FSymTab)
    __tagsym$$used                           0x0801c2d0   Number         0  cmd.o(FSymTab)
    __tagsym$$used                           0x0801c2dc   Number         0  cmd.o(FSymTab)
    __tagsym$$used                           0x0801c2e8   Number         0  cmd.o(FSymTab)
    __tagsym$$used                           0x0801c2f4   Number         0  cmd.o(FSymTab)
    __tagsym$$used                           0x0801c300   Number         0  cmd.o(FSymTab)
    FSymTab                                  0x0801c30c   Section       60  msh.o(FSymTab)
    __tagsym$$used                           0x0801c30c   Number         0  msh.o(FSymTab)
    __tagsym$$used                           0x0801c318   Number         0  msh.o(FSymTab)
    __tagsym$$used                           0x0801c324   Number         0  msh.o(FSymTab)
    __tagsym$$used                           0x0801c330   Number         0  msh.o(FSymTab)
    __tagsym$$used                           0x0801c33c   Number         0  msh.o(FSymTab)
    FSymTab                                  0x0801c348   Section      132  msh_file.o(FSymTab)
    __tagsym$$used                           0x0801c348   Number         0  msh_file.o(FSymTab)
    __tagsym$$used                           0x0801c354   Number         0  msh_file.o(FSymTab)
    __tagsym$$used                           0x0801c360   Number         0  msh_file.o(FSymTab)
    __tagsym$$used                           0x0801c36c   Number         0  msh_file.o(FSymTab)
    __tagsym$$used                           0x0801c378   Number         0  msh_file.o(FSymTab)
    __tagsym$$used                           0x0801c384   Number         0  msh_file.o(FSymTab)
    __tagsym$$used                           0x0801c390   Number         0  msh_file.o(FSymTab)
    __tagsym$$used                           0x0801c39c   Number         0  msh_file.o(FSymTab)
    __tagsym$$used                           0x0801c3a8   Number         0  msh_file.o(FSymTab)
    __tagsym$$used                           0x0801c3b4   Number         0  msh_file.o(FSymTab)
    __tagsym$$used                           0x0801c3c0   Number         0  msh_file.o(FSymTab)
    FSymTab                                  0x0801c3cc   Section       12  mem.o(FSymTab)
    __tagsym$$used                           0x0801c3cc   Number         0  mem.o(FSymTab)
    VSymTab                                  0x0801c3f8   Section       16  cmd.o(VSymTab)
    __tagsym$$used                           0x0801c3f8   Number         0  cmd.o(VSymTab)
    locale$$data                             0x0801c408   Section      272  lc_ctype_c.o(locale$$data)
    __lcctype_c_name                         0x0801c40c   Data           2  lc_ctype_c.o(locale$$data)
    __lcctype_c_start                        0x0801c414   Data           0  lc_ctype_c.o(locale$$data)
    locale$$data                             0x0801c518   Section       28  lc_numeric_c.o(locale$$data)
    __lcctype_c_end                          0x0801c518   Data           0  lc_ctype_c.o(locale$$data)
    __lcnum_c_name                           0x0801c51c   Data           2  lc_numeric_c.o(locale$$data)
    __lcnum_c_start                          0x0801c524   Data           0  lc_numeric_c.o(locale$$data)
    __lcnum_c_point                          0x0801c530   Data           0  lc_numeric_c.o(locale$$data)
    __lcnum_c_thousands                      0x0801c532   Data           0  lc_numeric_c.o(locale$$data)
    __lcnum_c_grouping                       0x0801c533   Data           0  lc_numeric_c.o(locale$$data)
    __lcnum_c_end                            0x0801c534   Data           0  lc_numeric_c.o(locale$$data)
    .data                                    0x20000000   Section        4  app_globalpos.o(.data)
    MPUoffset_sem                            0x20000000   Data           4  app_globalpos.o(.data)
    .data                                    0x20000004   Section       16  cpuport.o(.data)
    rt_exception_hook                        0x20000010   Data           4  cpuport.o(.data)
    .data                                    0x20000014   Section        4  serial.o(.data)
    already_output                           0x20000014   Data           4  serial.o(.data)
    .data                                    0x20000018   Section       12  spi_flash_sfud.o(.data)
    sfud_dev                                 0x20000018   Data           4  spi_flash_sfud.o(.data)
    rtt_dev                                  0x2000001c   Data           4  spi_flash_sfud.o(.data)
    rtt_dev_bak                              0x20000020   Data           4  spi_flash_sfud.o(.data)
    .data                                    0x20000024   Section      196  drv_gpio.o(.data)
    pin_irq_hdr_tab                          0x20000024   Data         192  drv_gpio.o(.data)
    pin_irq_enable_mask                      0x200000e4   Data           4  drv_gpio.o(.data)
    .data                                    0x200000e8   Section      108  drv_usart.o(.data)
    uart_config                              0x200000e8   Data          60  drv_usart.o(.data)
    uart2_dma_rx                             0x20000124   Data          16  drv_usart.o(.data)
    uart3_dma_rx                             0x20000134   Data          16  drv_usart.o(.data)
    uart4_dma_rx                             0x20000144   Data          16  drv_usart.o(.data)
    .data                                    0x20000154   Section       32  drv_spi.o(.data)
    spi_config                               0x20000154   Data          32  drv_spi.o(.data)
    .data                                    0x20000174   Section      276  dfs.o(.data)
    _fdtab                                   0x2000027c   Data           8  dfs.o(.data)
    init_ok                                  0x20000284   Data           4  dfs.o(.data)
    .data                                    0x20000288   Section        4  dfs_elm.o(.data)
    disk                                     0x20000288   Data           4  dfs_elm.o(.data)
    .data                                    0x2000028c   Section        6  ff.o(.data)
    FatFs                                    0x2000028c   Data           4  ff.o(.data)
    Fsid                                     0x20000290   Data           2  ff.o(.data)
    .data                                    0x20000294   Section       24  shell.o(.data)
    finsh_prompt_custom                      0x200002a8   Data           4  shell.o(.data)
    .data                                    0x200002ac   Section        4  cmd.o(.data)
    dummy                                    0x200002ac   Data           4  cmd.o(.data)
    .data                                    0x200002b0   Section        4  msh.o(.data)
    __msh_state                              0x200002b0   Data           4  msh.o(.data)
    .data                                    0x200002b4   Section        8  finsh_compiler.o(.data)
    .data                                    0x200002bc   Section       64  finsh_error.o(.data)
    finsh_error_string_table                 0x200002c0   Data          60  finsh_error.o(.data)
    .data                                    0x200002fc   Section        8  finsh_heap.o(.data)
    free_list                                0x200002fc   Data           4  finsh_heap.o(.data)
    allocate_list                            0x20000300   Data           4  finsh_heap.o(.data)
    .data                                    0x20000304   Section        4  finsh_var.o(.data)
    .data                                    0x20000308   Section       12  finsh_vm.o(.data)
    .data                                    0x20000314   Section        4  clock.o(.data)
    rt_tick                                  0x20000314   Data           4  clock.o(.data)
    .data                                    0x20000318   Section        9  irq.o(.data)
    rt_interrupt_enter_hook                  0x20000318   Data           4  irq.o(.data)
    rt_interrupt_leave_hook                  0x2000031c   Data           4  irq.o(.data)
    .data                                    0x20000324   Section        8  kservice.o(.data)
    __rt_errno                               0x20000324   Data           4  kservice.o(.data)
    _console_device                          0x20000328   Data           4  kservice.o(.data)
    .data                                    0x2000032c   Section       32  mem.o(.data)
    rt_malloc_hook                           0x2000032c   Data           4  mem.o(.data)
    rt_free_hook                             0x20000330   Data           4  mem.o(.data)
    heap_ptr                                 0x20000334   Data           4  mem.o(.data)
    heap_end                                 0x20000338   Data           4  mem.o(.data)
    lfree                                    0x2000033c   Data           4  mem.o(.data)
    mem_size_aligned                         0x20000340   Data           4  mem.o(.data)
    used_mem                                 0x20000344   Data           4  mem.o(.data)
    max_mem                                  0x20000348   Data           4  mem.o(.data)
    .data                                    0x2000034c   Section      164  object.o(.data)
    rt_object_container                      0x2000034c   Data         144  object.o(.data)
    rt_object_attach_hook                    0x200003dc   Data           4  object.o(.data)
    rt_object_detach_hook                    0x200003e0   Data           4  object.o(.data)
    .data                                    0x200003f0   Section       28  scheduler.o(.data)
    rt_scheduler_lock_nest                   0x200003f4   Data           2  scheduler.o(.data)
    rt_scheduler_hook                        0x20000408   Data           4  scheduler.o(.data)
    .data                                    0x2000040c   Section       12  thread.o(.data)
    rt_thread_suspend_hook                   0x2000040c   Data           4  thread.o(.data)
    rt_thread_resume_hook                    0x20000410   Data           4  thread.o(.data)
    rt_thread_inited_hook                    0x20000414   Data           4  thread.o(.data)
    .data                                    0x20000418   Section       20  timer.o(.data)
    rt_timer_list                            0x20000418   Data           8  timer.o(.data)
    rt_timer_enter_hook                      0x20000420   Data           4  timer.o(.data)
    rt_timer_exit_hook                       0x20000424   Data           4  timer.o(.data)
    random_nr                                0x20000428   Data           4  timer.o(.data)
    .data                                    0x2000042c   Section        4  system_stm32f4xx.o(.data)
    .data                                    0x20000430   Section        9  stm32f4xx_hal.o(.data)
    .bss                                     0x2000043c   Section      468  main.o(.bss)
    .bss                                     0x20000610   Section       32  module_uartcom.o(.bss)
    uartCom_sem                              0x20000610   Data          32  module_uartcom.o(.bss)
    .bss                                     0x20000630   Section       68  pin.o(.bss)
    _hw_pin                                  0x20000630   Data          68  pin.o(.bss)
    .bss                                     0x20000674   Section      377  sfud.o(.bss)
    flash_table                              0x20000674   Data         116  sfud.o(.bss)
    cmd_data                                 0x200006e8   Data         261  sfud.o(.bss)
    .bss                                     0x200007f0   Section     1056  drv_usart.o(.bss)
    uart_obj                                 0x200007f0   Data        1056  drv_usart.o(.bss)
    .bss                                     0x20000c10   Section      808  drv_spi.o(.bss)
    spi_bus_obj                              0x20000c10   Data         808  drv_spi.o(.bss)
    .bss                                     0x20000f38   Section      152  drv_soft_i2c.o(.bss)
    i2c_obj                                  0x20000f38   Data         152  drv_soft_i2c.o(.bss)
    .bss                                     0x20000fd0   Section       68  dfs.o(.bss)
    fslock                                   0x20000ff0   Data          36  dfs.o(.bss)
    .bss                                     0x20001014   Section      296  dfs_file.o(.bss)
    fd                                       0x20001014   Data          36  dfs_file.o(.bss)
    dirent                                   0x20001038   Data         260  dfs_file.o(.bss)
    .bss                                     0x2000113c   Section      129  shell.o(.bss)
    finsh_prompt                             0x2000113c   Data         129  shell.o(.bss)
    .bss                                     0x200011c0   Section      128  finsh_heap.o(.bss)
    .bss                                     0x20001240   Section      320  finsh_node.o(.bss)
    .bss                                     0x20001380   Section      192  finsh_var.o(.bss)
    .bss                                     0x20001440   Section      384  finsh_vm.o(.bss)
    .bss                                     0x200015c0   Section      400  idle.o(.bss)
    idle                                     0x200015c0   Data         128  idle.o(.bss)
    rt_thread_stack                          0x20001640   Data         256  idle.o(.bss)
    idle_hook_list                           0x20001740   Data          16  idle.o(.bss)
    .bss                                     0x20001750   Section      128  kservice.o(.bss)
    rt_log_buf                               0x20001750   Data         128  kservice.o(.bss)
    .bss                                     0x200017d0   Section       32  mem.o(.bss)
    heap_sem                                 0x200017d0   Data          32  mem.o(.bss)
    .bss                                     0x200017f0   Section      256  scheduler.o(.bss)
    .bss                                     0x200018f0   Section       96  libspace.o(.bss)
    HEAP                                     0x20001950   Section      512  startup_stm32f405xx.o(HEAP)
    Heap_Mem                                 0x20001950   Data         512  startup_stm32f405xx.o(HEAP)
    STACK                                    0x20001b50   Section     1024  startup_stm32f405xx.o(STACK)
    Stack_Mem                                0x20001b50   Data        1024  startup_stm32f405xx.o(STACK)
    __initial_sp                             0x20001f50   Data           0  startup_stm32f405xx.o(STACK)

    Global Symbols

    Symbol Name                              Value     Ov Type        Size  Object(Section)

    BuildAttributes$$THM_ISAv4$E$P$D$K$B$S$7EM$VFPi3$EXTD16$VFPS$VFMA$PE$A:L22UL41UL21$X:L11$S22US41US21$IEEE1$IW$USESV6$~STKCKD$USESV7$~SHL$OTIME$ROPI$IEEEX$EBA8$UX$STANDARDLIB$REQ8$PRES8$EABIv2 0x00000000   Number         0  anon$$obj.o ABSOLUTE
    __ARM_use_no_argv                        0x00000000   Number         0  main.o ABSOLUTE
    _printf_flags                            0x00000000   Number         0  printf_stubs.o ABSOLUTE
    _printf_return_value                     0x00000000   Number         0  printf_stubs.o ABSOLUTE
    _printf_sizespec                         0x00000000   Number         0  printf_stubs.o ABSOLUTE
    _printf_widthprec                        0x00000000   Number         0  printf_stubs.o ABSOLUTE
    __ARM_exceptions_init                     - Undefined Weak Reference
    __alloca_initialize                       - Undefined Weak Reference
    __arm_preinit_                            - Undefined Weak Reference
    __cpp_initialize__aeabi_                  - Undefined Weak Reference
    __cxa_finalize                            - Undefined Weak Reference
    __sigvec_lookup                           - Undefined Weak Reference
    _atexit_init                              - Undefined Weak Reference
    _call_atexit_fns                          - Undefined Weak Reference
    _clock_init                               - Undefined Weak Reference
    _fp_trap_init                             - Undefined Weak Reference
    _fp_trap_shutdown                         - Undefined Weak Reference
    _get_lc_collate                           - Undefined Weak Reference
    _get_lc_monetary                          - Undefined Weak Reference
    _get_lc_time                              - Undefined Weak Reference
    _getenv_init                              - Undefined Weak Reference
    _handle_redirection                       - Undefined Weak Reference
    _init_alloc                               - Undefined Weak Reference
    _init_user_alloc                          - Undefined Weak Reference
    _initio                                   - Undefined Weak Reference
    _printf_post_padding                      - Undefined Weak Reference
    _printf_pre_padding                       - Undefined Weak Reference
    _rand_init                                - Undefined Weak Reference
    _signal_finish                            - Undefined Weak Reference
    _signal_init                              - Undefined Weak Reference
    _terminate_alloc                          - Undefined Weak Reference
    _terminate_user_alloc                     - Undefined Weak Reference
    _terminateio                              - Undefined Weak Reference
    __Vectors_Size                           0x00000188   Number         0  startup_stm32f405xx.o ABSOLUTE
    __Vectors                                0x08000000   Data           4  startup_stm32f405xx.o(RESET)
    __Vectors_End                            0x08000188   Data           0  startup_stm32f405xx.o(RESET)
    __main                                   0x08000189   Thumb Code     8  __main.o(!!!main)
    __scatterload                            0x08000191   Thumb Code     0  __scatter.o(!!!scatter)
    __scatterload_rt2                        0x08000191   Thumb Code    44  __scatter.o(!!!scatter)
    __scatterload_rt2_thumb_only             0x08000191   Thumb Code     0  __scatter.o(!!!scatter)
    __scatterload_null                       0x0800019f   Thumb Code     0  __scatter.o(!!!scatter)
    __decompress                             0x080001c5   Thumb Code    90  __dczerorl2.o(!!dczerorl2)
    __decompress1                            0x080001c5   Thumb Code     0  __dczerorl2.o(!!dczerorl2)
    __scatterload_zeroinit                   0x08000221   Thumb Code    28  __scatter_zi.o(!!handler_zi)
    _printf_f                                0x0800023d   Thumb Code     0  _printf_f.o(.ARM.Collect$$_printf_percent$$00000003)
    _printf_percent                          0x0800023d   Thumb Code     0  _printf_percent.o(.ARM.Collect$$_printf_percent$$00000000)
    _printf_percent_end                      0x08000243   Thumb Code     0  _printf_percent_end.o(.ARM.Collect$$_printf_percent$$00000017)
    __rt_lib_init                            0x08000247   Thumb Code     0  libinit.o(.ARM.Collect$$libinit$$00000000)
    __rt_lib_init_fp_1                       0x08000249   Thumb Code     0  libinit2.o(.ARM.Collect$$libinit$$00000001)
    __rt_lib_init_heap_1                     0x0800024d   Thumb Code     0  libinit2.o(.ARM.Collect$$libinit$$0000000A)
    __rt_lib_init_lc_common                  0x0800024d   Thumb Code     0  libinit2.o(.ARM.Collect$$libinit$$0000000F)
    __rt_lib_init_preinit_1                  0x0800024d   Thumb Code     0  libinit2.o(.ARM.Collect$$libinit$$00000004)
    __rt_lib_init_rand_1                     0x0800024d   Thumb Code     0  libinit2.o(.ARM.Collect$$libinit$$0000000E)
    __rt_lib_init_user_alloc_1               0x0800024d   Thumb Code     0  libinit2.o(.ARM.Collect$$libinit$$0000000C)
    __rt_lib_init_lc_collate_1               0x08000253   Thumb Code     0  libinit2.o(.ARM.Collect$$libinit$$00000011)
    __rt_lib_init_lc_ctype_2                 0x08000253   Thumb Code     0  libinit2.o(.ARM.Collect$$libinit$$00000012)
    __rt_lib_init_lc_ctype_1                 0x0800025f   Thumb Code     0  libinit2.o(.ARM.Collect$$libinit$$00000013)
    __rt_lib_init_lc_monetary_1              0x0800025f   Thumb Code     0  libinit2.o(.ARM.Collect$$libinit$$00000015)
    __rt_lib_init_lc_numeric_2               0x0800025f   Thumb Code     0  libinit2.o(.ARM.Collect$$libinit$$00000016)
    __rt_lib_init_alloca_1                   0x08000269   Thumb Code     0  libinit2.o(.ARM.Collect$$libinit$$0000002E)
    __rt_lib_init_argv_1                     0x08000269   Thumb Code     0  libinit2.o(.ARM.Collect$$libinit$$0000002C)
    __rt_lib_init_atexit_1                   0x08000269   Thumb Code     0  libinit2.o(.ARM.Collect$$libinit$$0000001B)
    __rt_lib_init_clock_1                    0x08000269   Thumb Code     0  libinit2.o(.ARM.Collect$$libinit$$00000021)
    __rt_lib_init_cpp_1                      0x08000269   Thumb Code     0  libinit2.o(.ARM.Collect$$libinit$$00000032)
    __rt_lib_init_exceptions_1               0x08000269   Thumb Code     0  libinit2.o(.ARM.Collect$$libinit$$00000030)
    __rt_lib_init_fp_trap_1                  0x08000269   Thumb Code     0  libinit2.o(.ARM.Collect$$libinit$$0000001F)
    __rt_lib_init_getenv_1                   0x08000269   Thumb Code     0  libinit2.o(.ARM.Collect$$libinit$$00000023)
    __rt_lib_init_lc_numeric_1               0x08000269   Thumb Code     0  libinit2.o(.ARM.Collect$$libinit$$00000017)
    __rt_lib_init_lc_time_1                  0x08000269   Thumb Code     0  libinit2.o(.ARM.Collect$$libinit$$00000019)
    __rt_lib_init_return                     0x08000269   Thumb Code     0  libinit2.o(.ARM.Collect$$libinit$$00000033)
    __rt_lib_init_signal_1                   0x08000269   Thumb Code     0  libinit2.o(.ARM.Collect$$libinit$$0000001D)
    __rt_lib_init_stdio_1                    0x08000269   Thumb Code     0  libinit2.o(.ARM.Collect$$libinit$$00000025)
    __rt_lib_shutdown                        0x0800026b   Thumb Code     0  libshutdown.o(.ARM.Collect$$libshutdown$$00000000)
    __rt_lib_shutdown_cpp_1                  0x0800026d   Thumb Code     0  libshutdown2.o(.ARM.Collect$$libshutdown$$00000002)
    __rt_lib_shutdown_fp_trap_1              0x0800026d   Thumb Code     0  libshutdown2.o(.ARM.Collect$$libshutdown$$00000007)
    __rt_lib_shutdown_heap_1                 0x0800026d   Thumb Code     0  libshutdown2.o(.ARM.Collect$$libshutdown$$0000000F)
    __rt_lib_shutdown_return                 0x0800026d   Thumb Code     0  libshutdown2.o(.ARM.Collect$$libshutdown$$00000010)
    __rt_lib_shutdown_signal_1               0x0800026d   Thumb Code     0  libshutdown2.o(.ARM.Collect$$libshutdown$$0000000A)
    __rt_lib_shutdown_stdio_1                0x0800026d   Thumb Code     0  libshutdown2.o(.ARM.Collect$$libshutdown$$00000004)
    __rt_lib_shutdown_user_alloc_1           0x0800026d   Thumb Code     0  libshutdown2.o(.ARM.Collect$$libshutdown$$0000000C)
    __rt_entry                               0x0800026f   Thumb Code     0  __rtentry.o(.ARM.Collect$$rtentry$$00000000)
    __rt_entry_presh_1                       0x0800026f   Thumb Code     0  __rtentry2.o(.ARM.Collect$$rtentry$$00000002)
    __rt_entry_sh                            0x0800026f   Thumb Code     0  __rtentry4.o(.ARM.Collect$$rtentry$$00000004)
    __rt_entry_li                            0x08000275   Thumb Code     0  __rtentry2.o(.ARM.Collect$$rtentry$$0000000A)
    __rt_entry_postsh_1                      0x08000275   Thumb Code     0  __rtentry2.o(.ARM.Collect$$rtentry$$00000009)
    __rt_entry_main                          0x08000279   Thumb Code     0  __rtentry2.o(.ARM.Collect$$rtentry$$0000000D)
    __rt_entry_postli_1                      0x08000279   Thumb Code     0  __rtentry2.o(.ARM.Collect$$rtentry$$0000000C)
    __rt_exit                                0x08000281   Thumb Code     0  rtexit.o(.ARM.Collect$$rtexit$$00000000)
    __rt_exit_ls                             0x08000283   Thumb Code     0  rtexit2.o(.ARM.Collect$$rtexit$$00000003)
    __rt_exit_prels_1                        0x08000283   Thumb Code     0  rtexit2.o(.ARM.Collect$$rtexit$$00000002)
